{
    "contractName": "LedNFT",
    "abi": [
        {
            "inputs": [
                {
                    "internalType": "address",
                    "name": "_ictAddress",
                    "type": "address"
                }
            ],
            "stateMutability": "nonpayable",
            "type": "constructor"
        },
        {
            "anonymous": false,
            "inputs": [
                {
                    "indexed": true,
                    "internalType": "address",
                    "name": "owner",
                    "type": "address"
                },
                {
                    "indexed": true,
                    "internalType": "address",
                    "name": "approved",
                    "type": "address"
                },
                {
                    "indexed": true,
                    "internalType": "uint256",
                    "name": "tokenId",
                    "type": "uint256"
                }
            ],
            "name": "Approval",
            "type": "event"
        },
        {
            "anonymous": false,
            "inputs": [
                {
                    "indexed": true,
                    "internalType": "address",
                    "name": "owner",
                    "type": "address"
                },
                {
                    "indexed": true,
                    "internalType": "address",
                    "name": "operator",
                    "type": "address"
                },
                {
                    "indexed": false,
                    "internalType": "bool",
                    "name": "approved",
                    "type": "bool"
                }
            ],
            "name": "ApprovalForAll",
            "type": "event"
        },
        {
            "anonymous": false,
            "inputs": [
                {
                    "indexed": true,
                    "internalType": "address",
                    "name": "_owner",
                    "type": "address"
                },
                {
                    "indexed": true,
                    "internalType": "uint256",
                    "name": "_tokenId",
                    "type": "uint256"
                }
            ],
            "name": "MintedNFT",
            "type": "event"
        },
        {
            "anonymous": false,
            "inputs": [
                {
                    "indexed": true,
                    "internalType": "address",
                    "name": "from",
                    "type": "address"
                },
                {
                    "indexed": true,
                    "internalType": "address",
                    "name": "to",
                    "type": "address"
                },
                {
                    "indexed": true,
                    "internalType": "uint256",
                    "name": "tokenId",
                    "type": "uint256"
                }
            ],
            "name": "Transfer",
            "type": "event"
        },
        {
            "inputs": [],
            "name": "BLINK_PATTERN_CHANGE_PRICE",
            "outputs": [
                {
                    "internalType": "uint256",
                    "name": "",
                    "type": "uint256"
                }
            ],
            "stateMutability": "view",
            "type": "function",
            "constant": true
        },
        {
            "inputs": [],
            "name": "ICTContractAddress",
            "outputs": [
                {
                    "internalType": "address",
                    "name": "",
                    "type": "address"
                }
            ],
            "stateMutability": "view",
            "type": "function",
            "constant": true
        },
        {
            "inputs": [],
            "name": "MAX_NFT_SUPPLY",
            "outputs": [
                {
                    "internalType": "uint256",
                    "name": "",
                    "type": "uint256"
                }
            ],
            "stateMutability": "view",
            "type": "function",
            "constant": true
        },
        {
            "inputs": [
                {
                    "internalType": "address",
                    "name": "to",
                    "type": "address"
                },
                {
                    "internalType": "uint256",
                    "name": "tokenId",
                    "type": "uint256"
                }
            ],
            "name": "approve",
            "outputs": [],
            "stateMutability": "nonpayable",
            "type": "function"
        },
        {
            "inputs": [
                {
                    "internalType": "address",
                    "name": "owner",
                    "type": "address"
                }
            ],
            "name": "balanceOf",
            "outputs": [
                {
                    "internalType": "uint256",
                    "name": "",
                    "type": "uint256"
                }
            ],
            "stateMutability": "view",
            "type": "function",
            "constant": true
        },
        {
            "inputs": [],
            "name": "baseURI",
            "outputs": [
                {
                    "internalType": "string",
                    "name": "",
                    "type": "string"
                }
            ],
            "stateMutability": "view",
            "type": "function",
            "constant": true
        },
        {
            "inputs": [],
            "name": "endTime",
            "outputs": [
                {
                    "internalType": "uint256",
                    "name": "",
                    "type": "uint256"
                }
            ],
            "stateMutability": "view",
            "type": "function",
            "constant": true
        },
        {
            "inputs": [
                {
                    "internalType": "uint256",
                    "name": "tokenId",
                    "type": "uint256"
                }
            ],
            "name": "getApproved",
            "outputs": [
                {
                    "internalType": "address",
                    "name": "",
                    "type": "address"
                }
            ],
            "stateMutability": "view",
            "type": "function",
            "constant": true
        },
        {
            "inputs": [
                {
                    "internalType": "uint256",
                    "name": "",
                    "type": "uint256"
                }
            ],
            "name": "initialOwner",
            "outputs": [
                {
                    "internalType": "address payable",
                    "name": "",
                    "type": "address"
                }
            ],
            "stateMutability": "view",
            "type": "function",
            "constant": true
        },
        {
            "inputs": [
                {
                    "internalType": "address",
                    "name": "owner",
                    "type": "address"
                },
                {
                    "internalType": "address",
                    "name": "operator",
                    "type": "address"
                }
            ],
            "name": "isApprovedForAll",
            "outputs": [
                {
                    "internalType": "bool",
                    "name": "",
                    "type": "bool"
                }
            ],
            "stateMutability": "view",
            "type": "function",
            "constant": true
        },
        {
            "inputs": [],
            "name": "isMintingActive",
            "outputs": [
                {
                    "internalType": "bool",
                    "name": "",
                    "type": "bool"
                }
            ],
            "stateMutability": "view",
            "type": "function",
            "constant": true
        },
        {
            "inputs": [
                {
                    "internalType": "address",
                    "name": "",
                    "type": "address"
                }
            ],
            "name": "mintCount",
            "outputs": [
                {
                    "internalType": "uint256",
                    "name": "",
                    "type": "uint256"
                }
            ],
            "stateMutability": "view",
            "type": "function",
            "constant": true
        },
        {
            "inputs": [],
            "name": "name",
            "outputs": [
                {
                    "internalType": "string",
                    "name": "",
                    "type": "string"
                }
            ],
            "stateMutability": "view",
            "type": "function",
            "constant": true
        },
        {
            "inputs": [
                {
                    "internalType": "uint256",
                    "name": "",
                    "type": "uint256"
                }
            ],
            "name": "numNotAllowed",
            "outputs": [
                {
                    "internalType": "bool",
                    "name": "",
                    "type": "bool"
                }
            ],
            "stateMutability": "view",
            "type": "function",
            "constant": true
        },
        {
            "inputs": [],
            "name": "owner",
            "outputs": [
                {
                    "internalType": "address",
                    "name": "",
                    "type": "address"
                }
            ],
            "stateMutability": "view",
            "type": "function",
            "constant": true
        },
        {
            "inputs": [
                {
                    "internalType": "uint256",
                    "name": "tokenId",
                    "type": "uint256"
                }
            ],
            "name": "ownerOf",
            "outputs": [
                {
                    "internalType": "address",
                    "name": "",
                    "type": "address"
                }
            ],
            "stateMutability": "view",
            "type": "function",
            "constant": true
        },
        {
            "inputs": [
                {
                    "internalType": "address",
                    "name": "",
                    "type": "address"
                }
            ],
            "name": "ownerTotalTokensMintCount",
            "outputs": [
                {
                    "internalType": "uint256",
                    "name": "",
                    "type": "uint256"
                }
            ],
            "stateMutability": "view",
            "type": "function",
            "constant": true
        },
        {
            "inputs": [
                {
                    "internalType": "address",
                    "name": "from",
                    "type": "address"
                },
                {
                    "internalType": "address",
                    "name": "to",
                    "type": "address"
                },
                {
                    "internalType": "uint256",
                    "name": "tokenId",
                    "type": "uint256"
                }
            ],
            "name": "safeTransferFrom",
            "outputs": [],
            "stateMutability": "nonpayable",
            "type": "function"
        },
        {
            "inputs": [
                {
                    "internalType": "address",
                    "name": "from",
                    "type": "address"
                },
                {
                    "internalType": "address",
                    "name": "to",
                    "type": "address"
                },
                {
                    "internalType": "uint256",
                    "name": "tokenId",
                    "type": "uint256"
                },
                {
                    "internalType": "bytes",
                    "name": "_data",
                    "type": "bytes"
                }
            ],
            "name": "safeTransferFrom",
            "outputs": [],
            "stateMutability": "nonpayable",
            "type": "function"
        },
        {
            "inputs": [
                {
                    "internalType": "address",
                    "name": "operator",
                    "type": "address"
                },
                {
                    "internalType": "bool",
                    "name": "approved",
                    "type": "bool"
                }
            ],
            "name": "setApprovalForAll",
            "outputs": [],
            "stateMutability": "nonpayable",
            "type": "function"
        },
        {
            "inputs": [
                {
                    "internalType": "bytes32",
                    "name": "",
                    "type": "bytes32"
                }
            ],
            "name": "skinOwner",
            "outputs": [
                {
                    "internalType": "address",
                    "name": "",
                    "type": "address"
                }
            ],
            "stateMutability": "view",
            "type": "function",
            "constant": true
        },
        {
            "inputs": [
                {
                    "internalType": "bytes4",
                    "name": "interfaceId",
                    "type": "bytes4"
                }
            ],
            "name": "supportsInterface",
            "outputs": [
                {
                    "internalType": "bool",
                    "name": "",
                    "type": "bool"
                }
            ],
            "stateMutability": "view",
            "type": "function",
            "constant": true
        },
        {
            "inputs": [],
            "name": "symbol",
            "outputs": [
                {
                    "internalType": "string",
                    "name": "",
                    "type": "string"
                }
            ],
            "stateMutability": "view",
            "type": "function",
            "constant": true
        },
        {
            "inputs": [
                {
                    "internalType": "uint256",
                    "name": "index",
                    "type": "uint256"
                }
            ],
            "name": "tokenByIndex",
            "outputs": [
                {
                    "internalType": "uint256",
                    "name": "",
                    "type": "uint256"
                }
            ],
            "stateMutability": "view",
            "type": "function",
            "constant": true
        },
        {
            "inputs": [
                {
                    "internalType": "address",
                    "name": "owner",
                    "type": "address"
                },
                {
                    "internalType": "uint256",
                    "name": "index",
                    "type": "uint256"
                }
            ],
            "name": "tokenOfOwnerByIndex",
            "outputs": [
                {
                    "internalType": "uint256",
                    "name": "",
                    "type": "uint256"
                }
            ],
            "stateMutability": "view",
            "type": "function",
            "constant": true
        },
        {
            "inputs": [
                {
                    "internalType": "uint256",
                    "name": "",
                    "type": "uint256"
                }
            ],
            "name": "tokenSaleData",
            "outputs": [
                {
                    "internalType": "bool",
                    "name": "forSale",
                    "type": "bool"
                },
                {
                    "internalType": "uint256",
                    "name": "price",
                    "type": "uint256"
                }
            ],
            "stateMutability": "view",
            "type": "function",
            "constant": true
        },
        {
            "inputs": [
                {
                    "internalType": "uint256",
                    "name": "tokenId",
                    "type": "uint256"
                }
            ],
            "name": "tokenURI",
            "outputs": [
                {
                    "internalType": "string",
                    "name": "",
                    "type": "string"
                }
            ],
            "stateMutability": "view",
            "type": "function",
            "constant": true
        },
        {
            "inputs": [],
            "name": "totalSupply",
            "outputs": [
                {
                    "internalType": "uint256",
                    "name": "",
                    "type": "uint256"
                }
            ],
            "stateMutability": "view",
            "type": "function",
            "constant": true
        },
        {
            "inputs": [
                {
                    "internalType": "address",
                    "name": "from",
                    "type": "address"
                },
                {
                    "internalType": "address",
                    "name": "to",
                    "type": "address"
                },
                {
                    "internalType": "uint256",
                    "name": "tokenId",
                    "type": "uint256"
                }
            ],
            "name": "transferFrom",
            "outputs": [],
            "stateMutability": "nonpayable",
            "type": "function"
        },
        {
            "inputs": [
                {
                    "internalType": "uint256",
                    "name": "_endTimeLimit",
                    "type": "uint256"
                }
            ],
            "name": "startTimerForNFTMinting",
            "outputs": [],
            "stateMutability": "nonpayable",
            "type": "function"
        },
        {
            "inputs": [
                {
                    "internalType": "bool",
                    "name": "_status",
                    "type": "bool"
                }
            ],
            "name": "pauseUnpauseMinting",
            "outputs": [],
            "stateMutability": "nonpayable",
            "type": "function"
        },
        {
            "inputs": [
                {
                    "internalType": "uint256",
                    "name": "_nos",
                    "type": "uint256"
                }
            ],
            "name": "getNFTPrice",
            "outputs": [
                {
                    "internalType": "uint256",
                    "name": "",
                    "type": "uint256"
                }
            ],
            "stateMutability": "view",
            "type": "function",
            "constant": true
        },
        {
            "inputs": [],
            "name": "getContractBalance",
            "outputs": [
                {
                    "internalType": "uint256",
                    "name": "",
                    "type": "uint256"
                }
            ],
            "stateMutability": "view",
            "type": "function",
            "constant": true
        },
        {
            "inputs": [
                {
                    "internalType": "uint256",
                    "name": "_tokenId",
                    "type": "uint256"
                }
            ],
            "name": "getBlinkPatternOfTokenID",
            "outputs": [
                {
                    "internalType": "uint256[]",
                    "name": "",
                    "type": "uint256[]"
                }
            ],
            "stateMutability": "view",
            "type": "function",
            "constant": true
        },
        {
            "inputs": [
                {
                    "internalType": "uint256",
                    "name": "_nos",
                    "type": "uint256"
                }
            ],
            "name": "mintToken",
            "outputs": [],
            "stateMutability": "payable",
            "type": "function",
            "payable": true
        },
        {
            "inputs": [
                {
                    "internalType": "uint256",
                    "name": "_tokenId",
                    "type": "uint256"
                },
                {
                    "internalType": "uint256[30]",
                    "name": "_newPattern",
                    "type": "uint256[30]"
                }
            ],
            "name": "changeLEDBlinkPattern",
            "outputs": [],
            "stateMutability": "nonpayable",
            "type": "function"
        },
        {
            "inputs": [],
            "name": "withdrawCollectedEther",
            "outputs": [],
            "stateMutability": "nonpayable",
            "type": "function"
        },
        {
            "inputs": [
                {
                    "internalType": "address",
                    "name": "_address",
                    "type": "address"
                }
            ],
            "name": "mintedTokens",
            "outputs": [
                {
                    "internalType": "uint256",
                    "name": "",
                    "type": "uint256"
                }
            ],
            "stateMutability": "view",
            "type": "function",
            "constant": true
        },
        {
            "inputs": [
                {
                    "internalType": "uint256",
                    "name": "_tokenId",
                    "type": "uint256"
                },
                {
                    "internalType": "uint256",
                    "name": "_price",
                    "type": "uint256"
                }
            ],
            "name": "markForSale",
            "outputs": [],
            "stateMutability": "nonpayable",
            "type": "function"
        },
        {
            "inputs": [
                {
                    "internalType": "uint256",
                    "name": "_tokenId",
                    "type": "uint256"
                }
            ],
            "name": "getPriceOfToken",
            "outputs": [
                {
                    "internalType": "uint256",
                    "name": "",
                    "type": "uint256"
                }
            ],
            "stateMutability": "view",
            "type": "function",
            "constant": true
        },
        {
            "inputs": [
                {
                    "internalType": "uint256",
                    "name": "_tokenId",
                    "type": "uint256"
                }
            ],
            "name": "isAvailableForSale",
            "outputs": [
                {
                    "internalType": "bool",
                    "name": "",
                    "type": "bool"
                }
            ],
            "stateMutability": "view",
            "type": "function",
            "constant": true
        },
        {
            "inputs": [
                {
                    "internalType": "uint256",
                    "name": "_tokenId",
                    "type": "uint256"
                }
            ],
            "name": "purchaseToken",
            "outputs": [],
            "stateMutability": "payable",
            "type": "function",
            "payable": true
        },
        {
            "inputs": [],
            "name": "allMintedId",
            "outputs": [
                {
                    "internalType": "uint256[]",
                    "name": "",
                    "type": "uint256[]"
                }
            ],
            "stateMutability": "view",
            "type": "function",
            "constant": true
        },
        {
            "inputs": [
                {
                    "internalType": "uint256",
                    "name": "_tokenId",
                    "type": "uint256"
                }
            ],
            "name": "getSkinsOfToken",
            "outputs": [
                {
                    "internalType": "bytes32[]",
                    "name": "",
                    "type": "bytes32[]"
                }
            ],
            "stateMutability": "view",
            "type": "function",
            "constant": true
        },
        {
            "inputs": [
                {
                    "internalType": "bytes32",
                    "name": "_skin",
                    "type": "bytes32"
                }
            ],
            "name": "getpulseNSeed",
            "outputs": [
                {
                    "internalType": "uint256[]",
                    "name": "",
                    "type": "uint256[]"
                },
                {
                    "internalType": "uint256",
                    "name": "",
                    "type": "uint256"
                }
            ],
            "stateMutability": "view",
            "type": "function",
            "constant": true
        }
    ],
    "bytecode": "0x60806040526000600f553480156200001657600080fd5b5060405162005c6e38038062005c6e833981810160405260208110156200003c57600080fd5b81019080805190602001909291905050506040518060400160405280600681526020017f4c65644e465400000000000000000000000000000000000000000000000000008152506040518060400160405280600381526020017f4c45440000000000000000000000000000000000000000000000000000000000815250620000d16301ffc9a760e01b620001f960201b60201c565b8160069080519060200190620000e992919062000302565b5080600790805190602001906200010292919062000302565b506200011b6380ac58cd60e01b620001f960201b60201c565b62000133635b5e139f60e01b620001f960201b60201c565b6200014b63780e9d6360e01b620001f960201b60201c565b505080601460006101000a81548173ffffffffffffffffffffffffffffffffffffffff021916908373ffffffffffffffffffffffffffffffffffffffff16021790555033601560006101000a81548173ffffffffffffffffffffffffffffffffffffffff021916908373ffffffffffffffffffffffffffffffffffffffff1602179055506000601860006101000a81548160ff021916908315150217905550600060178190555050620003b1565b63ffffffff60e01b817bffffffffffffffffffffffffffffffffffffffffffffffffffffffff1916141562000296576040517f08c379a000000000000000000000000000000000000000000000000000000000815260040180806020018281038252601c8152602001807f4552433136353a20696e76616c696420696e746572666163652069640000000081525060200191505060405180910390fd5b6001600080837bffffffffffffffffffffffffffffffffffffffffffffffffffffffff19167bffffffffffffffffffffffffffffffffffffffffffffffffffffffff1916815260200190815260200160002060006101000a81548160ff02191690831515021790555050565b828054600181600116156101000203166002900490600052602060002090601f016020900481019282601f106200034557805160ff191683800117855562000376565b8280016001018555821562000376579182015b828111156200037557825182559160200191906001019062000358565b5b50905062000385919062000389565b5090565b620003ae91905b80821115620003aa57600081600090555060010162000390565b5090565b90565b6158ad80620003c16000396000f3fe6080604052600436106102725760003560e01c80638571d3551161014f578063c634d032116100c1578063dcd6a95d1161007a578063dcd6a95d14611203578063dfe9c3cf14611252578063e985e9c5146112b7578063ea72a36d14611340578063ed9ec88814611357578063f4487d7c146113bc57610272565b8063c634d03214610fb8578063c87b56dd14610fe6578063cc6d45231461109a578063ccee2838146110f1578063cdfb36cd1461112e578063d89eac9a1461117357610272565b806398b2b5231161011357806398b2b52314610cf4578063a22cb46514610d60578063b5077f4414610dbd578063b88d4fde14610de8578063c2db2c4214610efa578063c5e09b6614610f2857610272565b80638571d35514610ad45780638da5cb5b14610b275780639297617914610b7e5780639426543814610bcd57806395d89b4114610c6457610272565b80633197cbb6116101e85780636ac437b0116101ac5780636ac437b0146108a55780636c0360eb146108d45780636f9fb98a1461096457806370a082311461098f5780637241dfa0146109f4578063814b525514610a5957610272565b80633197cbb6146106b757806342842e0e146106e25780634404c50f1461075d5780634f6ccce7146107db5780636352211e1461082a57610272565b806318160ddd1161023a57806318160ddd1461047a578063207ce2fe146104a557806323b872dd1461052057806324ac8cc21461059b5780632f745c59146105f55780633145065c1461066457610272565b806301ffc9a71461027757806306fdde03146102e9578063081812fc14610379578063095ea7b3146103f45780630c129ccf1461044f575b600080fd5b34801561028357600080fd5b506102cf6004803603602081101561029a57600080fd5b8101908080357bffffffffffffffffffffffffffffffffffffffffffffffffffffffff191690602001909291905050506113f7565b604051808215151515815260200191505060405180910390f35b3480156102f557600080fd5b506102fe61145e565b6040518080602001828103825283818151815260200191508051906020019080838360005b8381101561033e578082015181840152602081019050610323565b50505050905090810190601f16801561036b5780820380516001836020036101000a031916815260200191505b509250505060405180910390f35b34801561038557600080fd5b506103b26004803603602081101561039c57600080fd5b8101908080359060200190929190505050611500565b604051808273ffffffffffffffffffffffffffffffffffffffff1673ffffffffffffffffffffffffffffffffffffffff16815260200191505060405180910390f35b34801561040057600080fd5b5061044d6004803603604081101561041757600080fd5b81019080803573ffffffffffffffffffffffffffffffffffffffff1690602001909291908035906020019092919050505061159b565b005b34801561045b57600080fd5b506104646116df565b6040518082815260200191505060405180910390f35b34801561048657600080fd5b5061048f6116eb565b6040518082815260200191505060405180910390f35b3480156104b157600080fd5b506104de600480360360208110156104c857600080fd5b81019080803590602001909291905050506116fc565b604051808273ffffffffffffffffffffffffffffffffffffffff1673ffffffffffffffffffffffffffffffffffffffff16815260200191505060405180910390f35b34801561052c57600080fd5b506105996004803603606081101561054357600080fd5b81019080803573ffffffffffffffffffffffffffffffffffffffff169060200190929190803573ffffffffffffffffffffffffffffffffffffffff1690602001909291908035906020019092919050505061172f565b005b3480156105a757600080fd5b506105d4600480360360208110156105be57600080fd5b81019080803590602001909291905050506117a5565b60405180831515151581526020018281526020019250505060405180910390f35b34801561060157600080fd5b5061064e6004803603604081101561061857600080fd5b81019080803573ffffffffffffffffffffffffffffffffffffffff169060200190929190803590602001909291905050506117d6565b6040518082815260200191505060405180910390f35b34801561067057600080fd5b5061069d6004803603602081101561068757600080fd5b8101908080359060200190929190505050611831565b604051808215151515815260200191505060405180910390f35b3480156106c357600080fd5b506106cc61185e565b6040518082815260200191505060405180910390f35b3480156106ee57600080fd5b5061075b6004803603606081101561070557600080fd5b81019080803573ffffffffffffffffffffffffffffffffffffffff169060200190929190803573ffffffffffffffffffffffffffffffffffffffff16906020019092919080359060200190929190505050611864565b005b34801561076957600080fd5b506107d960048036036103e081101561078157600080fd5b8101908080359060200190929190806103c00190601e806020026040519081016040528092919082601e60200280828437600081840152601f19601f8201169050808301925050505050509192919290505050611884565b005b3480156107e757600080fd5b50610814600480360360208110156107fe57600080fd5b810190808035906020019092919050505061208d565b6040518082815260200191505060405180910390f35b34801561083657600080fd5b506108636004803603602081101561084d57600080fd5b81019080803590602001909291905050506120b0565b604051808273ffffffffffffffffffffffffffffffffffffffff1673ffffffffffffffffffffffffffffffffffffffff16815260200191505060405180910390f35b3480156108b157600080fd5b506108ba6120e7565b604051808215151515815260200191505060405180910390f35b3480156108e057600080fd5b506108e96120fa565b6040518080602001828103825283818151815260200191508051906020019080838360005b8381101561092957808201518184015260208101905061090e565b50505050905090810190601f1680156109565780820380516001836020036101000a031916815260200191505b509250505060405180910390f35b34801561097057600080fd5b5061097961219c565b6040518082815260200191505060405180910390f35b34801561099b57600080fd5b506109de600480360360208110156109b257600080fd5b81019080803573ffffffffffffffffffffffffffffffffffffffff16906020019092919050505061224a565b6040518082815260200191505060405180910390f35b348015610a0057600080fd5b50610a4360048036036020811015610a1757600080fd5b81019080803573ffffffffffffffffffffffffffffffffffffffff16906020019092919050505061231f565b6040518082815260200191505060405180910390f35b348015610a6557600080fd5b50610a9260048036036020811015610a7c57600080fd5b8101908080359060200190929190505050612368565b604051808273ffffffffffffffffffffffffffffffffffffffff1673ffffffffffffffffffffffffffffffffffffffff16815260200191505060405180910390f35b348015610ae057600080fd5b50610b0d60048036036020811015610af757600080fd5b810190808035906020019092919050505061239b565b604051808215151515815260200191505060405180910390f35b348015610b3357600080fd5b50610b3c6123bb565b604051808273ffffffffffffffffffffffffffffffffffffffff1673ffffffffffffffffffffffffffffffffffffffff16815260200191505060405180910390f35b348015610b8a57600080fd5b50610bb760048036036020811015610ba157600080fd5b81019080803590602001909291905050506123e1565b6040518082815260200191505060405180910390f35b348015610bd957600080fd5b50610c0660048036036020811015610bf057600080fd5b81019080803590602001909291905050506124f2565b6040518080602001838152602001828103825284818151815260200191508051906020019060200280838360005b83811015610c4f578082015181840152602081019050610c34565b50505050905001935050505060405180910390f35b348015610c7057600080fd5b50610c79612635565b6040518080602001828103825283818151815260200191508051906020019080838360005b83811015610cb9578082015181840152602081019050610c9e565b50505050905090810190601f168015610ce65780820380516001836020036101000a031916815260200191505b509250505060405180910390f35b348015610d0057600080fd5b50610d096126d7565b6040518080602001828103825283818151815260200191508051906020019060200280838360005b83811015610d4c578082015181840152602081019050610d31565b505050509050019250505060405180910390f35b348015610d6c57600080fd5b50610dbb60048036036040811015610d8357600080fd5b81019080803573ffffffffffffffffffffffffffffffffffffffff16906020019092919080351515906020019092919050505061272f565b005b348015610dc957600080fd5b50610dd26128e7565b6040518082815260200191505060405180910390f35b348015610df457600080fd5b50610ef860048036036080811015610e0b57600080fd5b81019080803573ffffffffffffffffffffffffffffffffffffffff169060200190929190803573ffffffffffffffffffffffffffffffffffffffff1690602001909291908035906020019092919080359060200190640100000000811115610e7257600080fd5b820183602082011115610e8457600080fd5b80359060200191846001830284011164010000000083111715610ea657600080fd5b91908080601f016020809104026020016040519081016040528093929190818152602001838380828437600081840152601f19601f8201169050808301925050505050505091929192905050506128ed565b005b610f2660048036036020811015610f1057600080fd5b8101908080359060200190929190505050612965565b005b348015610f3457600080fd5b50610f6160048036036020811015610f4b57600080fd5b8101908080359060200190929190505050612bc6565b6040518080602001828103825283818151815260200191508051906020019060200280838360005b83811015610fa4578082015181840152602081019050610f89565b505050509050019250505060405180910390f35b610fe460048036036020811015610fce57600080fd5b8101908080359060200190929190505050612cda565b005b348015610ff257600080fd5b5061101f6004803603602081101561100957600080fd5b8101908080359060200190929190505050613529565b6040518080602001828103825283818151815260200191508051906020019080838360005b8381101561105f578082015181840152602081019050611044565b50505050905090810190601f16801561108c5780820380516001836020036101000a031916815260200191505b509250505060405180910390f35b3480156110a657600080fd5b506110af613812565b604051808273ffffffffffffffffffffffffffffffffffffffff1673ffffffffffffffffffffffffffffffffffffffff16815260200191505060405180910390f35b3480156110fd57600080fd5b5061112c6004803603602081101561111457600080fd5b81019080803515159060200190929190505050613838565b005b34801561113a57600080fd5b506111716004803603604081101561115157600080fd5b8101908080359060200190929190803590602001909291905050506138fb565b005b34801561117f57600080fd5b506111ac6004803603602081101561119657600080fd5b8101908080359060200190929190505050613a73565b6040518080602001828103825283818151815260200191508051906020019060200280838360005b838110156111ef5780820151818401526020810190506111d4565b505050509050019250505060405180910390f35b34801561120f57600080fd5b5061123c6004803603602081101561122657600080fd5b8101908080359060200190929190505050613ba8565b6040518082815260200191505060405180910390f35b34801561125e57600080fd5b506112a16004803603602081101561127557600080fd5b81019080803573ffffffffffffffffffffffffffffffffffffffff169060200190929190505050613bc8565b6040518082815260200191505060405180910390f35b3480156112c357600080fd5b50611326600480360360408110156112da57600080fd5b81019080803573ffffffffffffffffffffffffffffffffffffffff169060200190929190803573ffffffffffffffffffffffffffffffffffffffff169060200190929190505050613be0565b604051808215151515815260200191505060405180910390f35b34801561134c57600080fd5b50611355613c74565b005b34801561136357600080fd5b506113a66004803603602081101561137a57600080fd5b81019080803573ffffffffffffffffffffffffffffffffffffffff169060200190929190505050613d76565b6040518082815260200191505060405180910390f35b3480156113c857600080fd5b506113f5600480360360208110156113df57600080fd5b8101908080359060200190929190505050613d8e565b005b6000806000837bffffffffffffffffffffffffffffffffffffffffffffffffffffffff19167bffffffffffffffffffffffffffffffffffffffffffffffffffffffff1916815260200190815260200160002060009054906101000a900460ff169050919050565b606060068054600181600116156101000203166002900480601f0160208091040260200160405190810160405280929190818152602001828054600181600116156101000203166002900480156114f65780601f106114cb576101008083540402835291602001916114f6565b820191906000526020600020905b8154815290600101906020018083116114d957829003601f168201915b5050505050905090565b600061150b82613e40565b611560576040517f08c379a000000000000000000000000000000000000000000000000000000000815260040180806020018281038252602c8152602001806156d3602c913960400191505060405180910390fd5b6004600083815260200190815260200160002060009054906101000a900473ffffffffffffffffffffffffffffffffffffffff169050919050565b60006115a6826120b0565b90508073ffffffffffffffffffffffffffffffffffffffff168373ffffffffffffffffffffffffffffffffffffffff16141561162d576040517f08c379a00000000000000000000000000000000000000000000000000000000081526004018080602001828103825260218152602001806157576021913960400191505060405180910390fd5b8073ffffffffffffffffffffffffffffffffffffffff1661164c613e5d565b73ffffffffffffffffffffffffffffffffffffffff16148061167b575061167a81611675613e5d565b613be0565b5b6116d0576040517f08c379a00000000000000000000000000000000000000000000000000000000081526004018080602001828103825260388152602001806155aa6038913960400191505060405180910390fd5b6116da8383613e65565b505050565b670de0b6b3a764000081565b60006116f76002613f1e565b905090565b600b6020528060005260406000206000915054906101000a900473ffffffffffffffffffffffffffffffffffffffff1681565b61174061173a613e5d565b82613f33565b611795576040517f08c379a00000000000000000000000000000000000000000000000000000000081526004018080602001828103825260318152602001806157bf6031913960400191505060405180910390fd5b6117a0838383614027565b505050565b600e6020528060005260406000206000915090508060000160009054906101000a900460ff16908060010154905082565b600061182982600160008673ffffffffffffffffffffffffffffffffffffffff1673ffffffffffffffffffffffffffffffffffffffff16815260200190815260200160002061426a90919063ffffffff16565b905092915050565b6000600e600083815260200190815260200160002060000160009054906101000a900460ff169050919050565b60175481565b61187f838383604051806020016040528060008152506128ed565b505050565b600061188f836120b0565b90503373ffffffffffffffffffffffffffffffffffffffff168173ffffffffffffffffffffffffffffffffffffffff1614611932576040517f08c379a000000000000000000000000000000000000000000000000000000000815260040180806020018281038252600e8152602001807f4e6f7420617574686f726973656400000000000000000000000000000000000081525060200191505060405180910390fd5b670de0b6b3a7640000601460009054906101000a900473ffffffffffffffffffffffffffffffffffffffff1673ffffffffffffffffffffffffffffffffffffffff166370a08231336040518263ffffffff1660e01b8152600401808273ffffffffffffffffffffffffffffffffffffffff1673ffffffffffffffffffffffffffffffffffffffff16815260200191505060206040518083038186803b1580156119da57600080fd5b505afa1580156119ee573d6000803e3d6000fd5b505050506040513d6020811015611a0457600080fd5b81019080805190602001909291905050501015611a89576040517f08c379a00000000000000000000000000000000000000000000000000000000081526004018080602001828103825260128152602001807f4e6f7420656e6f7567682062616c616e6365000000000000000000000000000081525060200191505060405180910390fd5b611a9283613a73565b60405160200180828051906020019060200280838360005b83811015611ac5578082015181840152602081019050611aaa565b5050505090500191505060405160208183030381529060405280519060200120826040516020018082601e60200280838360005b83811015611b14578082015181840152602081019050611af9565b50505050905001915050604051602081830303815290604052805190602001201415611b8b576040517f08c379a00000000000000000000000000000000000000000000000000000000081526004018080602001828103825260268152602001806154f76026913960400191505060405180910390fd5b60008090505b601e811015611c4b5760008382601e8110611ba857fe5b602002015110158015611bcc575060648382601e8110611bc457fe5b602002015111155b611c3e576040517f08c379a00000000000000000000000000000000000000000000000000000000081526004018080602001828103825260158152602001807f496e76616c696420626c696e6b207061747465726e000000000000000000000081525060200191505060405180910390fd5b8080600101915050611b91565b50816013600085815260200190815260200160002090601e611c6e92919061536e565b506000834260405160200180838152602001828152602001925050506040516020818303038152906040528051906020012060001c9050600083826040516020018083601e60200280838360005b83811015611cd7578082015181840152602081019050611cbc565b505050509050018281526020019250505060405160208183030381529060405280519060200120905060126000868152602001908152602001600020819080600181540180825580915050600190039060005260206000200160009091909190915055336010600083815260200190815260200160002060006101000a81548173ffffffffffffffffffffffffffffffffffffffff021916908373ffffffffffffffffffffffffffffffffffffffff160217905550836011600083815260200190815260200160002060000190601e611db192919061536e565b50816011600083815260200190815260200160002060010181905550601460009054906101000a900473ffffffffffffffffffffffffffffffffffffffff1673ffffffffffffffffffffffffffffffffffffffff1663e1f21c673330670de0b6b3a76400006040518463ffffffff1660e01b8152600401808473ffffffffffffffffffffffffffffffffffffffff1673ffffffffffffffffffffffffffffffffffffffff1681526020018373ffffffffffffffffffffffffffffffffffffffff1673ffffffffffffffffffffffffffffffffffffffff1681526020018281526020019350505050602060405180830381600087803b158015611eb257600080fd5b505af1158015611ec6573d6000803e3d6000fd5b505050506040513d6020811015611edc57600080fd5b8101908080519060200190929190505050506000601460009054906101000a900473ffffffffffffffffffffffffffffffffffffffff1673ffffffffffffffffffffffffffffffffffffffff166323b872dd3330670de0b6b3a76400006040518463ffffffff1660e01b8152600401808473ffffffffffffffffffffffffffffffffffffffff1673ffffffffffffffffffffffffffffffffffffffff1681526020018373ffffffffffffffffffffffffffffffffffffffff1673ffffffffffffffffffffffffffffffffffffffff1681526020018281526020019350505050602060405180830381600087803b158015611fd557600080fd5b505af1158015611fe9573d6000803e3d6000fd5b505050506040513d6020811015611fff57600080fd5b8101908080519060200190929190505050905080612085576040517f08c379a00000000000000000000000000000000000000000000000000000000081526004018080602001828103825260168152602001807f4661696c656420746f207472616e73666572204943540000000000000000000081525060200191505060405180910390fd5b505050505050565b6000806120a483600261428490919063ffffffff16565b50905080915050919050565b60006120e0826040518060600160405280602981526020016156426029913960026142b39092919063ffffffff16565b9050919050565b601860009054906101000a900460ff1681565b606060098054600181600116156101000203166002900480601f0160208091040260200160405190810160405280929190818152602001828054600181600116156101000203166002900480156121925780601f1061216757610100808354040283529160200191612192565b820191906000526020600020905b81548152906001019060200180831161217557829003601f168201915b5050505050905090565b60003373ffffffffffffffffffffffffffffffffffffffff16601560009054906101000a900473ffffffffffffffffffffffffffffffffffffffff1673ffffffffffffffffffffffffffffffffffffffff1614612244576040517f08c379a000000000000000000000000000000000000000000000000000000000815260040180806020018281038252602d81526020018061551d602d913960400191505060405180910390fd5b47905090565b60008073ffffffffffffffffffffffffffffffffffffffff168273ffffffffffffffffffffffffffffffffffffffff1614156122d1576040517f08c379a000000000000000000000000000000000000000000000000000000000815260040180806020018281038252602a815260200180615618602a913960400191505060405180910390fd5b612318600160008473ffffffffffffffffffffffffffffffffffffffff1673ffffffffffffffffffffffffffffffffffffffff1681526020019081526020016000206142d2565b9050919050565b6000600c60008373ffffffffffffffffffffffffffffffffffffffff1673ffffffffffffffffffffffffffffffffffffffff168152602001908152602001600020549050919050565b60106020528060005260406000206000915054906101000a900473ffffffffffffffffffffffffffffffffffffffff1681565b600a6020528060005260406000206000915054906101000a900460ff1681565b601560009054906101000a900473ffffffffffffffffffffffffffffffffffffffff1681565b600042601754101561245b576040517f08c379a000000000000000000000000000000000000000000000000000000000815260040180806020018281038252600d8152602001807f53616c65206973206f766572210000000000000000000000000000000000000081525060200191505060405180910390fd5b6108006124666116eb565b11156124da576040517f08c379a00000000000000000000000000000000000000000000000000000000081526004018080602001828103825260148152602001807f416c6c204e4654277320617265206d696e74656400000000000000000000000081525060200191505060405180910390fd5b6000670b1a2bc2ec5000009050808302915050919050565b606060006010600084815260200190815260200160002060009054906101000a900473ffffffffffffffffffffffffffffffffffffffff1673ffffffffffffffffffffffffffffffffffffffff163373ffffffffffffffffffffffffffffffffffffffff16146125ad576040517f08c379a000000000000000000000000000000000000000000000000000000000815260040180806020018281038252602581526020018061566b6025913960400191505060405180910390fd5b6011600084815260200190815260200160002060000160116000858152602001908152602001600020600101548180548060200260200160405190810160405280929190818152602001828054801561262557602002820191906000526020600020905b815481526020019060010190808311612611575b5050505050915091509150915091565b606060078054600181600116156101000203166002900480601f0160208091040260200160405190810160405280929190818152602001828054600181600116156101000203166002900480156126cd5780601f106126a2576101008083540402835291602001916126cd565b820191906000526020600020905b8154815290600101906020018083116126b057829003601f168201915b5050505050905090565b6060600d80548060200260200160405190810160405280929190818152602001828054801561272557602002820191906000526020600020905b815481526020019060010190808311612711575b5050505050905090565b612737613e5d565b73ffffffffffffffffffffffffffffffffffffffff168273ffffffffffffffffffffffffffffffffffffffff1614156127d8576040517f08c379a00000000000000000000000000000000000000000000000000000000081526004018080602001828103825260198152602001807f4552433732313a20617070726f766520746f2063616c6c65720000000000000081525060200191505060405180910390fd5b80600560006127e5613e5d565b73ffffffffffffffffffffffffffffffffffffffff1673ffffffffffffffffffffffffffffffffffffffff16815260200190815260200160002060008473ffffffffffffffffffffffffffffffffffffffff1673ffffffffffffffffffffffffffffffffffffffff16815260200190815260200160002060006101000a81548160ff0219169083151502179055508173ffffffffffffffffffffffffffffffffffffffff16612892613e5d565b73ffffffffffffffffffffffffffffffffffffffff167f17307eab39ab6107e8899845ad3d59bd9653f200f220920489ca2b5937696c3183604051808215151515815260200191505060405180910390a35050565b61080081565b6128fe6128f8613e5d565b83613f33565b612953576040517f08c379a00000000000000000000000000000000000000000000000000000000081526004018080602001828103825260318152602001806157bf6031913960400191505060405180910390fd5b61295f848484846142e7565b50505050565b6001151561297282611831565b1515146129e7576040517f08c379a000000000000000000000000000000000000000000000000000000000815260040180806020018281038252601b8152602001807f546f6b656e206e6f7420617661696c616c6520666f722073616c65000000000081525060200191505060405180910390fd5b346129f182613ba8565b14612a47576040517f08c379a00000000000000000000000000000000000000000000000000000000081526004018080602001828103825260248152602001806157786024913960400191505060405180910390fd5b3373ffffffffffffffffffffffffffffffffffffffff16612a67826120b0565b73ffffffffffffffffffffffffffffffffffffffff161415612ad4576040517f08c379a00000000000000000000000000000000000000000000000000000000081526004018080602001828103825260238152602001806154506023913960400191505060405180910390fd5b60003490506000612aef600a8361435990919063ffffffff16565b9050612b2e600b600085815260200190815260200160002060009054906101000a900473ffffffffffffffffffffffffffffffffffffffff16826143a3565b6000600a612b4660098561446490919063ffffffff16565b81612b4d57fe5b049050612b62612b5c856120b0565b826143a3565b6000600e6000868152602001908152602001600020600101819055506000600e600086815260200190815260200160002060000160006101000a81548160ff021916908315150217905550612bc0612bb9856120b0565b33866144ea565b50505050565b6060612bd1826120b0565b73ffffffffffffffffffffffffffffffffffffffff163373ffffffffffffffffffffffffffffffffffffffff1614612c71576040517f08c379a00000000000000000000000000000000000000000000000000000000081526004018080602001828103825260208152602001807f596f752063616e206f6e6c79207669657720796f7572206f776e20736b696e7381525060200191505060405180910390fd5b60126000838152602001908152602001600020805480602002602001604051908101604052809291908181526020018280548015612cce57602002820191906000526020600020905b815481526020019060010190808311612cba575b50505050509050919050565b60018110158015612cec575060038111155b612d41576040517f08c379a00000000000000000000000000000000000000000000000000000000081526004018080602001828103825260368152602001806155e26036913960400191505060405180910390fd5b60008090505b818160ff1610156135255760011515601860009054906101000a900460ff16151514612ddb576040517f08c379a00000000000000000000000000000000000000000000000000000000081526004018080602001828103825260128152602001807f4d696e74696e672069732050617573656421000000000000000000000000000081525060200191505060405180910390fd5b426017541015612e53576040517f08c379a000000000000000000000000000000000000000000000000000000000815260040180806020018281038252600d8152602001807f53616c65206973206f766572210000000000000000000000000000000000000081525060200191505060405180910390fd5b6003601660003373ffffffffffffffffffffffffffffffffffffffff1673ffffffffffffffffffffffffffffffffffffffff1681526020019081526020016000205410612eeb576040517f08c379a000000000000000000000000000000000000000000000000000000000815260040180806020018281038252602381526020018061579c6023913960400191505060405180910390fd5b610800612ef66116eb565b10612f4c576040517f08c379a00000000000000000000000000000000000000000000000000000000081526004018080602001828103825260368152602001806158426036913960400191505060405180910390fd5b34612f56836123e1565b14612fac576040517f08c379a00000000000000000000000000000000000000000000000000000000081526004018080602001828103825260348152602001806155766034913960400191505060405180910390fd5b600080905060006108004233600f54604051602001808481526020018373ffffffffffffffffffffffffffffffffffffffff1673ffffffffffffffffffffffffffffffffffffffff1660601b815260140182815260200193505050506040516020818303038152906040528051906020012060001c8161302857fe5b069050600181019050600f600081548092919060010191905055505b60011515600a600083815260200190815260200160002060009054906101000a900460ff161515141561309757610801600182018161307f57fe5b0690506000811415613092576001810190505b6130cb565b6001600a600083815260200190815260200160002060006101000a81548160ff0219169083151502179055508091506130d4565b60008214613044575b6001600c60003373ffffffffffffffffffffffffffffffffffffffff1673ffffffffffffffffffffffffffffffffffffffff1681526020019081526020016000206000828254019250508190555033600b600084815260200190815260200160002060006101000a81548173ffffffffffffffffffffffffffffffffffffffff021916908373ffffffffffffffffffffffffffffffffffffffff160217905550601660003373ffffffffffffffffffffffffffffffffffffffff1673ffffffffffffffffffffffffffffffffffffffff1681526020019081526020016000206000815460010191905081905550600d82908060018154018082558091505060019003906000526020600020016000909190919091505560008090505b601e8110156132ba5760136000848152602001908152602001600020606533424485604051602001808573ffffffffffffffffffffffffffffffffffffffff1673ffffffffffffffffffffffffffffffffffffffff1660601b81526014018481526020018381526020018281526020019450505050506040516020818303038152906040528051906020012060001c8161328657fe5b06908060018154018082558091505060019003906000526020600020016000909190919091505580806001019150506131f0565b506000824260405160200180838152602001828152602001925050506040516020818303038152906040528051906020012060001c905060606132fc84613a73565b90506000818360405160200180838051906020019060200280838360005b8381101561333557808201518184015260208101905061331a565b505050509050018281526020019250505060405160208183030381529060405280519060200120905060126000868152602001908152602001600020819080600181540180825580915050600190039060005260206000200160009091909190915055336010600083815260200190815260200160002060006101000a81548173ffffffffffffffffffffffffffffffffffffffff021916908373ffffffffffffffffffffffffffffffffffffffff160217905550816011600083815260200190815260200160002060000190805190602001906134149291906153bb565b50826011600083815260200190815260200160002060010181905550601460009054906101000a900473ffffffffffffffffffffffffffffffffffffffff1673ffffffffffffffffffffffffffffffffffffffff1663f74b40c386426040518363ffffffff1660e01b81526004018083815260200182815260200192505050600060405180830381600087803b1580156134ad57600080fd5b505af11580156134c1573d6000803e3d6000fd5b505050506134cf33866144fa565b843373ffffffffffffffffffffffffffffffffffffffff167f7a5477f3d257e8974dc6fb5c008b442d975968577dfad5d1283aa0a488bfab0b60405160405180910390a350505050508080600101915050612d47565b5050565b606061353482613e40565b613589576040517f08c379a000000000000000000000000000000000000000000000000000000000815260040180806020018281038252602f815260200180615728602f913960400191505060405180910390fd5b6060600860008481526020019081526020016000208054600181600116156101000203166002900480601f0160208091040260200160405190810160405280929190818152602001828054600181600116156101000203166002900480156136325780601f1061360757610100808354040283529160200191613632565b820191906000526020600020905b81548152906001019060200180831161361557829003601f168201915b50505050509050600060098054600181600116156101000203166002900490501415613661578091505061380d565b60008151111561373a5760098160405160200180838054600181600116156101000203166002900480156136cc5780601f106136aa5761010080835404028352918201916136cc565b820191906000526020600020905b8154815290600101906020018083116136b8575b505082805190602001908083835b602083106136fd57805182526020820191506020810190506020830392506136da565b6001836020036101000a0380198251168184511680821785525050505050509050019250505060405160208183030381529060405291505061380d565b600961374584614518565b60405160200180838054600181600116156101000203166002900480156137a35780601f106137815761010080835404028352918201916137a3565b820191906000526020600020905b81548152906001019060200180831161378f575b505082805190602001908083835b602083106137d457805182526020820191506020810190506020830392506137b1565b6001836020036101000a038019825116818451168082178552505050505050905001925050506040516020818303038152906040529150505b919050565b601460009054906101000a900473ffffffffffffffffffffffffffffffffffffffff1681565b3373ffffffffffffffffffffffffffffffffffffffff16601560009054906101000a900473ffffffffffffffffffffffffffffffffffffffff1673ffffffffffffffffffffffffffffffffffffffff16146138de576040517f08c379a000000000000000000000000000000000000000000000000000000000815260040180806020018281038252602d81526020018061551d602d913960400191505060405180910390fd5b80601860006101000a81548160ff02191690831515021790555050565b60011515600e600084815260200190815260200160002060000160009054906101000a900460ff1615151415613999576040517f08c379a00000000000000000000000000000000000000000000000000000000081526004018080602001828103825260208152602001807f546f6b656e20616c7265616479206176616961626c6520666f722073616c652e81525060200191505060405180910390fd5b6139a2826120b0565b73ffffffffffffffffffffffffffffffffffffffff163373ffffffffffffffffffffffffffffffffffffffff1614613a25576040517f08c379a00000000000000000000000000000000000000000000000000000000081526004018080602001828103825260278152602001806157f06027913960400191505060405180910390fd5b6001600e600084815260200190815260200160002060000160006101000a81548160ff02191690831515021790555080600e6000848152602001908152602001600020600101819055505050565b6060610800821115613ad0576040517f08c379a000000000000000000000000000000000000000000000000000000000815260040180806020018281038252602b815260200180615817602b913960400191505060405180910390fd5b601e601360008481526020019081526020016000208054905014613b3f576040517f08c379a000000000000000000000000000000000000000000000000000000000815260040180806020018281038252602e8152602001806154c9602e913960400191505060405180910390fd5b60136000838152602001908152602001600020805480602002602001604051908101604052809291908181526020018280548015613b9c57602002820191906000526020600020905b815481526020019060010190808311613b88575b50505050509050919050565b6000600e6000838152602001908152602001600020600101549050919050565b60166020528060005260406000206000915090505481565b6000600560008473ffffffffffffffffffffffffffffffffffffffff1673ffffffffffffffffffffffffffffffffffffffff16815260200190815260200160002060008373ffffffffffffffffffffffffffffffffffffffff1673ffffffffffffffffffffffffffffffffffffffff16815260200190815260200160002060009054906101000a900460ff16905092915050565b3373ffffffffffffffffffffffffffffffffffffffff16601560009054906101000a900473ffffffffffffffffffffffffffffffffffffffff1673ffffffffffffffffffffffffffffffffffffffff1614613d1a576040517f08c379a000000000000000000000000000000000000000000000000000000000815260040180806020018281038252602d81526020018061551d602d913960400191505060405180910390fd5b60003390506000613d2961219c565b90508173ffffffffffffffffffffffffffffffffffffffff166108fc829081150290604051600060405180830381858888f19350505050158015613d71573d6000803e3d6000fd5b505050565b600c6020528060005260406000206000915090505481565b3373ffffffffffffffffffffffffffffffffffffffff16601560009054906101000a900473ffffffffffffffffffffffffffffffffffffffff1673ffffffffffffffffffffffffffffffffffffffff1614613e34576040517f08c379a000000000000000000000000000000000000000000000000000000000815260040180806020018281038252602d81526020018061551d602d913960400191505060405180910390fd5b80420160178190555050565b6000613e5682600261465f90919063ffffffff16565b9050919050565b600033905090565b816004600083815260200190815260200160002060006101000a81548173ffffffffffffffffffffffffffffffffffffffff021916908373ffffffffffffffffffffffffffffffffffffffff160217905550808273ffffffffffffffffffffffffffffffffffffffff16613ed8836120b0565b73ffffffffffffffffffffffffffffffffffffffff167f8c5be1e5ebec7d5bd14f71427d1e84f3dd0314c0f7b2291e5b200ac8c7c3b92560405160405180910390a45050565b6000613f2c82600001614679565b9050919050565b6000613f3e82613e40565b613f93576040517f08c379a000000000000000000000000000000000000000000000000000000000815260040180806020018281038252602c81526020018061554a602c913960400191505060405180910390fd5b6000613f9e836120b0565b90508073ffffffffffffffffffffffffffffffffffffffff168473ffffffffffffffffffffffffffffffffffffffff16148061400d57508373ffffffffffffffffffffffffffffffffffffffff16613ff584611500565b73ffffffffffffffffffffffffffffffffffffffff16145b8061401e575061401d8185613be0565b5b91505092915050565b8273ffffffffffffffffffffffffffffffffffffffff16614047826120b0565b73ffffffffffffffffffffffffffffffffffffffff16146140b3576040517f08c379a00000000000000000000000000000000000000000000000000000000081526004018080602001828103825260298152602001806156ff6029913960400191505060405180910390fd5b600073ffffffffffffffffffffffffffffffffffffffff168273ffffffffffffffffffffffffffffffffffffffff161415614139576040517f08c379a00000000000000000000000000000000000000000000000000000000081526004018080602001828103825260248152602001806154a56024913960400191505060405180910390fd5b61414483838361468a565b61414f600082613e65565b6141a081600160008673ffffffffffffffffffffffffffffffffffffffff1673ffffffffffffffffffffffffffffffffffffffff16815260200190815260200160002061468f90919063ffffffff16565b506141f281600160008573ffffffffffffffffffffffffffffffffffffffff1673ffffffffffffffffffffffffffffffffffffffff1681526020019081526020016000206146a990919063ffffffff16565b50614209818360026146c39092919063ffffffff16565b50808273ffffffffffffffffffffffffffffffffffffffff168473ffffffffffffffffffffffffffffffffffffffff167fddf252ad1be2c89b69c2b068fc378daa952ba7f163c4a11628f55a4df523b3ef60405160405180910390a4505050565b600061427983600001836146f8565b60001c905092915050565b600080600080614297866000018661477b565b915091508160001c8160001c8090509350935050509250929050565b60006142c6846000018460001b84614814565b60001c90509392505050565b60006142e08260000161490a565b9050919050565b6142f2848484614027565b6142fe8484848461491b565b614353576040517f08c379a00000000000000000000000000000000000000000000000000000000081526004018080602001828103825260328152602001806154736032913960400191505060405180910390fd5b50505050565b600061439b83836040518060400160405280601a81526020017f536166654d6174683a206469766973696f6e206279207a65726f000000000000815250614b60565b905092915050565b47811115614419576040517f08c379a00000000000000000000000000000000000000000000000000000000081526004018080602001828103825260038152602001807f6d7367000000000000000000000000000000000000000000000000000000000081525060200191505060405180910390fd5b8173ffffffffffffffffffffffffffffffffffffffff166108fc829081150290604051600060405180830381858888f1935050505015801561445f573d6000803e3d6000fd5b505050565b60008083141561447757600090506144e4565b600082840290508284828161448857fe5b04146144df576040517f08c379a00000000000000000000000000000000000000000000000000000000081526004018080602001828103825260218152602001806156b26021913960400191505060405180910390fd5b809150505b92915050565b6144f5838383614027565b505050565b614514828260405180602001604052806000815250614c26565b5050565b60606000821415614560576040518060400160405280600181526020017f3000000000000000000000000000000000000000000000000000000000000000815250905061465a565b600082905060005b6000821461458a578080600101915050600a828161458257fe5b049150614568565b60608167ffffffffffffffff811180156145a357600080fd5b506040519080825280601f01601f1916602001820160405280156145d65781602001600182028036833780820191505090505b50905060006001830390508593505b6000841461465257600a84816145f757fe5b0660300160f81b8282806001900393508151811061461157fe5b60200101907effffffffffffffffffffffffffffffffffffffffffffffffffffffffffffff1916908160001a905350600a848161464a57fe5b0493506145e5565b819450505050505b919050565b6000614671836000018360001b614c97565b905092915050565b600081600001805490509050919050565b505050565b60006146a1836000018360001b614cba565b905092915050565b60006146bb836000018360001b614da2565b905092915050565b60006146ef846000018460001b8473ffffffffffffffffffffffffffffffffffffffff1660001b614e12565b90509392505050565b600081836000018054905011614759576040517f08c379a000000000000000000000000000000000000000000000000000000000815260040180806020018281038252602281526020018061542e6022913960400191505060405180910390fd5b82600001828154811061476857fe5b9060005260206000200154905092915050565b600080828460000180549050116147dd576040517f08c379a00000000000000000000000000000000000000000000000000000000081526004018080602001828103825260228152602001806156906022913960400191505060405180910390fd5b60008460000184815481106147ee57fe5b906000526020600020906002020190508060000154816001015492509250509250929050565b600080846001016000858152602001908152602001600020549050600081141583906148db576040517f08c379a00000000000000000000000000000000000000000000000000000000081526004018080602001828103825283818151815260200191508051906020019080838360005b838110156148a0578082015181840152602081019050614885565b50505050905090810190601f1680156148cd5780820380516001836020036101000a031916815260200191505b509250505060405180910390fd5b508460000160018203815481106148ee57fe5b9060005260206000209060020201600101549150509392505050565b600081600001805490509050919050565b600061493c8473ffffffffffffffffffffffffffffffffffffffff16614eee565b6149495760019050614b58565b6060614adf63150b7a0260e01b61495e613e5d565b888787604051602401808573ffffffffffffffffffffffffffffffffffffffff1673ffffffffffffffffffffffffffffffffffffffff1681526020018473ffffffffffffffffffffffffffffffffffffffff1673ffffffffffffffffffffffffffffffffffffffff16815260200183815260200180602001828103825283818151815260200191508051906020019080838360005b83811015614a0e5780820151818401526020810190506149f3565b50505050905090810190601f168015614a3b5780820380516001836020036101000a031916815260200191505b5095505050505050604051602081830303815290604052907bffffffffffffffffffffffffffffffffffffffffffffffffffffffff19166020820180517bffffffffffffffffffffffffffffffffffffffffffffffffffffffff8381831617835250505050604051806060016040528060328152602001615473603291398773ffffffffffffffffffffffffffffffffffffffff16614f399092919063ffffffff16565b90506000818060200190516020811015614af857600080fd5b8101908080519060200190929190505050905063150b7a0260e01b7bffffffffffffffffffffffffffffffffffffffffffffffffffffffff1916817bffffffffffffffffffffffffffffffffffffffffffffffffffffffff191614925050505b949350505050565b60008083118290614c0c576040517f08c379a00000000000000000000000000000000000000000000000000000000081526004018080602001828103825283818151815260200191508051906020019080838360005b83811015614bd1578082015181840152602081019050614bb6565b50505050905090810190601f168015614bfe5780820380516001836020036101000a031916815260200191505b509250505060405180910390fd5b506000838581614c1857fe5b049050809150509392505050565b614c308383614f51565b614c3d600084848461491b565b614c92576040517f08c379a00000000000000000000000000000000000000000000000000000000081526004018080602001828103825260328152602001806154736032913960400191505060405180910390fd5b505050565b600080836001016000848152602001908152602001600020541415905092915050565b60008083600101600084815260200190815260200160002054905060008114614d965760006001820390506000600186600001805490500390506000866000018281548110614d0557fe5b9060005260206000200154905080876000018481548110614d2257fe5b9060005260206000200181905550600183018760010160008381526020019081526020016000208190555086600001805480614d5a57fe5b60019003818190600052602060002001600090559055866001016000878152602001908152602001600020600090556001945050505050614d9c565b60009150505b92915050565b6000614dae8383615145565b614e07578260000182908060018154018082558091505060019003906000526020600020016000909190919091505582600001805490508360010160008481526020019081526020016000208190555060019050614e0c565b600090505b92915050565b6000808460010160008581526020019081526020016000205490506000811415614eb957846000016040518060400160405280868152602001858152509080600181540180825580915050600190039060005260206000209060020201600090919091909150600082015181600001556020820151816001015550508460000180549050856001016000868152602001908152602001600020819055506001915050614ee7565b82856000016001830381548110614ecc57fe5b90600052602060002090600202016001018190555060009150505b9392505050565b60008060007fc5d2460186f7233c927e7db2dcc703c0e500b653ca82273b7bfad8045d85a47060001b9050833f9150808214158015614f3057506000801b8214155b92505050919050565b6060614f488484600085615168565b90509392505050565b600073ffffffffffffffffffffffffffffffffffffffff168273ffffffffffffffffffffffffffffffffffffffff161415614ff4576040517f08c379a00000000000000000000000000000000000000000000000000000000081526004018080602001828103825260208152602001807f4552433732313a206d696e7420746f20746865207a65726f206164647265737381525060200191505060405180910390fd5b614ffd81613e40565b15615070576040517f08c379a000000000000000000000000000000000000000000000000000000000815260040180806020018281038252601c8152602001807f4552433732313a20746f6b656e20616c7265616479206d696e7465640000000081525060200191505060405180910390fd5b61507c6000838361468a565b6150cd81600160008573ffffffffffffffffffffffffffffffffffffffff1673ffffffffffffffffffffffffffffffffffffffff1681526020019081526020016000206146a990919063ffffffff16565b506150e4818360026146c39092919063ffffffff16565b50808273ffffffffffffffffffffffffffffffffffffffff16600073ffffffffffffffffffffffffffffffffffffffff167fddf252ad1be2c89b69c2b068fc378daa952ba7f163c4a11628f55a4df523b3ef60405160405180910390a45050565b600080836001016000848152602001908152602001600020541415905092915050565b606061517385614eee565b6151e5576040517f08c379a000000000000000000000000000000000000000000000000000000000815260040180806020018281038252601d8152602001807f416464726573733a2063616c6c20746f206e6f6e2d636f6e747261637400000081525060200191505060405180910390fd5b600060608673ffffffffffffffffffffffffffffffffffffffff1685876040518082805190602001908083835b602083106152355780518252602082019150602081019050602083039250615212565b6001836020036101000a03801982511681845116808217855250505050505090500191505060006040518083038185875af1925050503d8060008114615297576040519150601f19603f3d011682016040523d82523d6000602084013e61529c565b606091505b509150915081156152b1578092505050615366565b6000815111156152c45780518082602001fd5b836040517f08c379a00000000000000000000000000000000000000000000000000000000081526004018080602001828103825283818151815260200191508051906020019080838360005b8381101561532b578082015181840152602081019050615310565b50505050905090810190601f1680156153585780820380516001836020036101000a031916815260200191505b509250505060405180910390fd5b949350505050565b8280548282559060005260206000209081019282156153aa579160200282015b828111156153a957825182559160200191906001019061538e565b5b5090506153b79190615408565b5090565b8280548282559060005260206000209081019282156153f7579160200282015b828111156153f65782518255916020019190600101906153db565b5b5090506154049190615408565b5090565b61542a91905b8082111561542657600081600090555060010161540e565b5090565b9056fe456e756d657261626c655365743a20696e646578206f7574206f6620626f756e6473596f752063616e6e6f742073656c6c20746f6b656e7320746f20796f757273656c662e4552433732313a207472616e7366657220746f206e6f6e20455243373231526563656976657220696d706c656d656e7465724552433732313a207472616e7366657220746f20746865207a65726f20616464726573734e465420666f722074686520737570706c69656420746f6b656e4964206973206e6f74206d696e746564207965744e6577207061747465726e2069732073616d65206173207468652063757272656e74206f6e654f6e6c79206f776e657220697320617574686f72697a656420666f722074686973207472616e73616374696f6e4552433732313a206f70657261746f7220717565727920666f72206e6f6e6578697374656e7420746f6b656e45746865722076616c756520697320696e636f72726563742c20706c656173652073656e6420636f727265637420616d6f756e744552433732313a20617070726f76652063616c6c6572206973206e6f74206f776e6572206e6f7220617070726f76656420666f7220616c6c596f752063616e206d696e74206f6e6c792031206f722032206f72203320746f6b656e7320696e206f6e65206f7065726174696f6e2e4552433732313a2062616c616e636520717565727920666f7220746865207a65726f20616464726573734552433732313a206f776e657220717565727920666f72206e6f6e6578697374656e7420746f6b656e4f6e6c7920736b696e206f776e65722063616e207669657720746865697220736b696e732e456e756d657261626c654d61703a20696e646578206f7574206f6620626f756e6473536166654d6174683a206d756c7469706c69636174696f6e206f766572666c6f774552433732313a20617070726f76656420717565727920666f72206e6f6e6578697374656e7420746f6b656e4552433732313a207472616e73666572206f6620746f6b656e2074686174206973206e6f74206f776e4552433732314d657461646174613a2055524920717565727920666f72206e6f6e6578697374656e7420746f6b656e4552433732313a20617070726f76616c20746f2063757272656e74206f776e657276616c75652073656e74206973206e6f7420657175616c20746f207468652070726963654d6178203320746f6b656e732063616e206265206d696e7465642070657220757365724552433732313a207472616e736665722063616c6c6572206973206e6f74206f776e6572206e6f7220617070726f7665644f6e6c7920746865206f776e65722063616e206d61726b206974656d7320666f722073616c652e546f6b656e2049642073686f756c64206265206c657373207468616e206d6178696d756d20737570706c7943616e6e6f74206d696e74206d6f7265204e46542c203230343820697320746865206d6178204e465420737570706c79206c696d6974a26469706673582212203adfd59846411e7c124109e0339946184ec6d3876dedf15fcb490399e894f76e64736f6c63430006060033",
    "immutableReferences": {},
    "source": "// SPDX-License-Identifier: MIT\npragma solidity ^0.6.6;\n\nimport \"@openzeppelin/contracts/token/ERC721/ERC721.sol\";\n\ninterface Token20 {\n    //This will set the birth time of NFT in ICT contract\n    function setBirthOfNFT(uint256 _tokenId, uint256 _time) external;\n\n    /**\n     * @dev Returns the amount of tokens in existence.\n     */\n    function totalSupply() external view returns (uint256);\n\n    /**\n     * @dev Returns the amount of tokens owned by `account`.\n     */\n    function balanceOf(address account) external view returns (uint256);\n\n    /**\n     * @dev Moves `amount` tokens from the caller's account to `recipient`.\n     *\n     * Returns a boolean value indicating whether the operation succeeded.\n     *\n     * Emits a {Transfer} event.\n     */\n    function transfer(address recipient, uint256 amount)\n        external\n        returns (bool);\n\n    /**\n     * @dev Returns the remaining number of tokens that `spender` will be\n     * allowed to spend on behalf of `owner` through {transferFrom}. This is\n     * zero by default.\n     *\n     * This value changes when {approve} or {transferFrom} are called.\n     */\n    function allowance(address owner, address spender)\n        external\n        view\n        returns (uint256);\n\n    /**\n     * @dev Sets `amount` as the allowance of `spender` over the caller's tokens.\n     *\n     * Returns a boolean value indicating whether the operation succeeded.\n     *\n     * IMPORTANT: Beware that changing an allowance with this method brings the risk\n     * that someone may use both the old and the new allowance by unfortunate\n     * transaction ordering. One possible solution to mitigate this race\n     * condition is to first reduce the spender's allowance to 0 and set the\n     * desired value afterwards:\n     * https://github.com/ethereum/EIPs/issues/20#issuecomment-263524729\n     *\n     * Emits an {Approval} event.\n     */\n    function approve(\n        address owner,\n        address spender,\n        uint256 amount\n    ) external returns (bool);\n\n    /**\n     * @dev Moves `amount` tokens from `sender` to `recipient` using the\n     * allowance mechanism. `amount` is then deducted from the caller's\n     * allowance.\n     *\n     * Returns a boolean value indicating whether the operation succeeded.\n     *\n     * Emits a {Transfer} event.\n     */\n    function transferFrom(\n        address sender,\n        address recipient,\n        uint256 amount\n    ) external returns (bool);\n\n    /**\n     * TODO: Add comment\n     */\n    function burn(uint256 burnQuantity) external returns (bool);\n\n    /**\n     * @dev Emitted when `value` tokens are moved from one account (`from`) to\n     * another (`to`).\n     *\n     * Note that `value` may be zero.\n     */\n    event Transfer(address indexed from, address indexed to, uint256 value);\n\n    /**\n     * @dev Emitted when the allowance of a `spender` for an `owner` is set by\n     * a call to {approve}. `value` is the new allowance.\n     */\n    event Approval(\n        address indexed owner,\n        address indexed spender,\n        uint256 value\n    );\n}\n\ncontract LedNFT is ERC721 {\n    using SafeMath for uint256;\n    mapping(uint256 => bool) public numNotAllowed;\n    mapping(uint256 => address payable) public initialOwner;\n\n    // tokens minted by an address\n    mapping(address => uint256) public mintCount;\n    uint256[] mintedIds;\n\n    struct tokenSaleStat {\n        bool forSale;\n        uint256 price;\n    }\n    mapping(uint256 => tokenSaleStat) public tokenSaleData;\n\n    uint256 nonce = 0;\n\n    event MintedNFT(address indexed _owner, uint256 indexed _tokenId);\n\n    // owners and their pulse and seed\n    struct pulseData {\n        uint256[] pulse;\n        uint256 seed;\n    }\n\n    // owner of skin\n    mapping(bytes32 => address) public skinOwner;\n\n    // skin to pulseData\n    mapping(bytes32 => pulseData) skinToPulse;\n\n    // token to skins\n    mapping(uint256 => bytes32[]) tokenSkin;\n\n    //mapping for NFT tokendID to blinking pattern\n    mapping(uint256 => uint256[]) ledNFTBlinkPattern;\n\n    //Store the ICT token contract address\n    address public ICTContractAddress;\n\n    //owner of the contract\n    address public owner;\n\n    //mapping of address to their minted token count\n    mapping(address => uint256) public ownerTotalTokensMintCount;\n\n    //end time for minting NFT once the timer is started\n    uint256 public endTime;\n\n    //It stores the pause/unpause status of minting (owner can pause/unpause the minting)\n    bool public isMintingActive;\n\n    //Maximum NFT supply\n    uint256 public constant MAX_NFT_SUPPLY = 2048;\n\n    //1 ICT token is required to change the LED NFT blink pattern\n    uint256 public constant BLINK_PATTERN_CHANGE_PRICE = 1 * 10**18;\n\n    modifier onlyOwner() {\n        require(\n            owner == msg.sender,\n            \"Only owner is authorized for this transaction\"\n        );\n        _;\n    }\n\n    constructor(address _ictAddress) public ERC721(\"LedNFT\", \"LED\") {\n        ICTContractAddress = _ictAddress;\n        owner = msg.sender;\n        isMintingActive = false;\n        endTime = 0;\n    }\n\n    //Function accepts epoch time as parameter which will be added to the current epoch time and timer will be started\n    function startTimerForNFTMinting(uint256 _endTimeLimit) public onlyOwner {\n        endTime = block.timestamp + _endTimeLimit;\n    }\n\n    //Function to pause and unpause minting process\n    function pauseUnpauseMinting(bool _status) public onlyOwner {\n        isMintingActive = _status;\n    }\n\n    //function to get the NFT price based on the supplied NFT's\n    function getNFTPrice(uint256 _nos) public view returns (uint256) {\n        require(endTime >= block.timestamp, \"Sale is over!\");\n        require(totalSupply() <= MAX_NFT_SUPPLY, \"All NFT's are minted\");\n\n        // uint256 currentSupply = totalSupply();\n        uint256 priceOfOneToken = 0.8 * 10**18;\n\n        // if (currentSupply >= 2000) {\n        //     priceOfOneToken = 150 * 10**18; // 2000  - 2048 150 ETH\n        // } else if (currentSupply >= 1900) {\n        //     priceOfOneToken = 50 * 10**18; // 1900 - 1999 50 ETH\n        // } else if (currentSupply >= 1600) {\n        //     priceOfOneToken = 10 * 10**18; // 1600 - 1899 10 ETH\n        // } else if (currentSupply >= 1000) {\n        //     priceOfOneToken = 1 * 10**18; // 1000 - 1599 1 ETH\n        // } else {\n        //     priceOfOneToken = 0.1 * 10**18; // 0 - 999 0.1 ETH\n        // }\n\n        return _nos * priceOfOneToken;\n    }\n\n    //Get contract balance\n    function getContractBalance() public view onlyOwner returns (uint256) {\n        return address(this).balance;\n    }\n\n    //Get the blinking pattern for any LED NFT\n    function getBlinkPatternOfTokenID(uint256 _tokenId)\n        public\n        view\n        returns (uint256[] memory)\n    {\n        require(\n            _tokenId <= MAX_NFT_SUPPLY,\n            \"Token Id should be less than maximum supply\"\n        );\n        require(\n            ledNFTBlinkPattern[_tokenId].length == 30,\n            \"NFT for the supplied tokenId is not minted yet\"\n        );\n        return ledNFTBlinkPattern[_tokenId];\n    }\n\n    //method to mint LED NFT tokens for msg.sender\n    function mintToken(uint256 _nos) public payable {\n        require(\n            _nos >= 1 && _nos <= 3,\n            \"You can mint only 1 or 2 or 3 tokens in one operation.\"\n        );\n        for (uint8 j = 0; j < _nos; j++) {\n            require(isMintingActive == true, \"Minting is Paused!\");\n\n            require(endTime >= block.timestamp, \"Sale is over!\");\n\n            require(\n                ownerTotalTokensMintCount[msg.sender] < 3,\n                \"Max 3 tokens can be minted per user\"\n            );\n\n            require(\n                totalSupply() < MAX_NFT_SUPPLY,\n                \"Cannot mint more NFT, 2048 is the max NFT supply limit\"\n            );\n\n            require(\n                getNFTPrice(_nos) == msg.value,\n                \"Ether value is incorrect, please send correct amount\"\n            );\n\n            // uint256 tokenId = totalSupply() + 1;\n            uint256 tokenId = 0;\n            uint256 randomNumber = uint256(\n                keccak256(abi.encodePacked(now, msg.sender, nonce))\n            ) % 2048;\n            randomNumber = randomNumber + 1;\n            nonce++;\n\n            do {\n                if (numNotAllowed[randomNumber] == true) {\n                    randomNumber = (randomNumber + 1) % 2049;\n                    if (randomNumber == 0) {\n                        randomNumber = randomNumber + 1;\n                    }\n                } else {\n                    numNotAllowed[randomNumber] = true;\n                    tokenId = randomNumber;\n                    break;\n                }\n            } while (tokenId == 0);\n\n            // forSale[_tokenId] = false;\n            mintCount[msg.sender] += 1;\n            initialOwner[tokenId] = msg.sender;\n            ++ownerTotalTokensMintCount[msg.sender];\n            mintedIds.push(tokenId);\n\n            //Generating random LED blink pattern array\n            for (uint256 i = 0; i < 30; i++) {\n                ledNFTBlinkPattern[tokenId].push(\n                    uint256(\n                        keccak256(\n                            abi.encodePacked(\n                                msg.sender,\n                                block.timestamp,\n                                block.difficulty,\n                                i\n                            )\n                        )\n                    ) % 101\n                );\n            }\n\n            // pulseOwner[msg.sender].pulse = getBlinkPatternOfTokenID(tokenId);\n            // pulseOwner[msg.sender].seed = nseed;\n\n            // generating a unique seed\n            uint256 nseed = uint256(\n                keccak256(abi.encodePacked(tokenId, block.timestamp))\n            );\n\n            // pulse\n            uint256[] memory npulse = getBlinkPatternOfTokenID(tokenId);\n            // use built array\n\n            // calculate skin\n            bytes32 skin = keccak256(abi.encodePacked(npulse, nseed));\n\n            // record history of skin - token to string\n            tokenSkin[tokenId].push(skin);\n\n            skinOwner[skin] = msg.sender;\n\n            // skin to its data\n            skinToPulse[skin].pulse = npulse;\n            skinToPulse[skin].seed = nseed;\n\n            //set birth time of NFT in ICT contract, this will be used in calculation of claim ICT amount\n            Token20(ICTContractAddress).setBirthOfNFT(tokenId, block.timestamp);\n\n            //Mint ERC721\n            _safeMint(msg.sender, tokenId);\n            emit MintedNFT(msg.sender, tokenId);\n        }\n    }\n\n    function changeLEDBlinkPattern(\n        uint256 _tokenId,\n        uint256[30] memory _newPattern\n    ) public {\n        address ownerOfToken = ownerOf(_tokenId);\n        require(ownerOfToken == msg.sender, \"Not authorised\");\n        require(\n            Token20(ICTContractAddress).balanceOf(msg.sender) >=\n                BLINK_PATTERN_CHANGE_PRICE,\n            \"Not enough balance\"\n        );\n        require(\n            keccak256(abi.encodePacked(_newPattern)) !=\n                keccak256(abi.encodePacked(getBlinkPatternOfTokenID(_tokenId))),\n            \"New pattern is same as the current one\"\n        );\n\n        //validate blink pattern\n        for (uint256 i = 0; i < 30; i++) {\n            if (!(_newPattern[i] >= 0 && _newPattern[i] <= 100)) {\n                revert(\"Invalid blink pattern\");\n            }\n        }\n\n        ledNFTBlinkPattern[_tokenId] = _newPattern;\n\n        // new seed\n        uint256 nseed = uint256(\n            keccak256(abi.encodePacked(_tokenId, block.timestamp))\n        );\n\n        // calculate skin\n        bytes32 skin = keccak256(abi.encodePacked(_newPattern, nseed));\n\n        // record history of skin - token to string\n        tokenSkin[_tokenId].push(skin);\n\n        skinOwner[skin] = msg.sender;\n\n        // skin to its data\n        skinToPulse[skin].pulse = _newPattern;\n        skinToPulse[skin].seed = nseed;\n\n        Token20(ICTContractAddress).approve(\n            msg.sender,\n            address(this),\n            BLINK_PATTERN_CHANGE_PRICE\n        );\n        bool res1 = Token20(ICTContractAddress).transferFrom(\n            msg.sender,\n            address(this),\n            BLINK_PATTERN_CHANGE_PRICE\n        );\n\n        require(res1, \"Failed to transfer ICT\");\n    }\n\n    //Owner can withdraw the Ethers collected via NFT minting\n    function withdrawCollectedEther() public onlyOwner {\n        address payable addr = payable(msg.sender);\n        uint256 amount = getContractBalance();\n        addr.transfer(amount);\n    }\n\n    // ////////////////\n    function mintedTokens(address _address) public view returns (uint256) {\n        return mintCount[_address];\n    }\n\n    //\n\n    function markForSale(uint256 _tokenId, uint256 _price) public {\n        require(\n            tokenSaleData[_tokenId].forSale != true,\n            \"Token already avaiable for sale.\"\n        );\n        require(\n            msg.sender == ownerOf(_tokenId),\n            \"Only the owner can mark items for sale.\"\n        );\n        tokenSaleData[_tokenId].forSale = true;\n        tokenSaleData[_tokenId].price = _price;\n    }\n\n    function getPriceOfToken(uint256 _tokenId) public view returns (uint256) {\n        return tokenSaleData[_tokenId].price;\n    }\n\n    function isAvailableForSale(uint256 _tokenId) public view returns (bool) {\n        return tokenSaleData[_tokenId].forSale;\n    }\n\n    // buyer side\n    function sendMoney(address payable _to, uint256 _value) private {\n        require(_value <= address(this).balance, \"msg\");\n        _to.transfer(_value);\n    }\n\n    function transferPurchasedToken(\n        address from,\n        address to,\n        uint256 tokenId\n    ) private {\n        _transfer(from, to, tokenId);\n    }\n\n    // buy function\n    function purchaseToken(uint256 _tokenId) public payable {\n        require(\n            isAvailableForSale(_tokenId) == true,\n            \"Token not availale for sale\"\n        );\n        require(\n            getPriceOfToken(_tokenId) == msg.value,\n            \"value sent is not equal to the price\"\n        );\n        require(\n            ownerOf(_tokenId) != msg.sender,\n            \"You cannot sell tokens to yourself.\"\n        );\n\n        uint256 value = msg.value;\n\n        // transfer 10% of msg.value to owner\n        uint256 _10value = value.div(10);\n        sendMoney(initialOwner[_tokenId], _10value);\n\n        // transfer 90% to new owner\n        uint256 _90value = (value.mul(9)) / 10;\n        sendMoney(payable(ownerOf(_tokenId)), _90value);\n\n        // unmark from sale\n        tokenSaleData[_tokenId].price = 0;\n        tokenSaleData[_tokenId].forSale = false;\n\n        // transfer token ot buyer\n        transferPurchasedToken(ownerOf(_tokenId), msg.sender, _tokenId);\n    }\n\n    // list of all ids in circulation\n    function allMintedId() public view returns (uint256[] memory) {\n        return mintedIds;\n    }\n\n    // get all skins of a token\n    function getSkinsOfToken(uint256 _tokenId)\n        public\n        view\n        returns (bytes32[] memory)\n    {\n        require(\n            msg.sender == ownerOf(_tokenId),\n            \"You can only view your own skins\"\n        );\n        return tokenSkin[_tokenId];\n    }\n\n    function getpulseNSeed(bytes32 _skin)\n        public\n        view\n        returns (uint256[] memory, uint256)\n    {\n        require(\n            msg.sender == skinOwner[_skin],\n            \"Only skin owner can view their skins.\"\n        );\n\n        return (skinToPulse[_skin].pulse, skinToPulse[_skin].seed);\n    }\n}\n",
    "sourcePath": "/home/vdcodes/internship/NFT/nft-truffle/src/contracts/LedNFT.sol",
    "compiler": {
        "name": "solc",
        "version": "0.6.6+commit.6c089d02.Emscripten.clang"
    },
    "schemaVersion": "3.3.3",
    "updatedAt": "2021-10-12T16:31:55.796Z",
    "networkType": "ethereum",
    "devdoc": {
        "methods": {
            "approve(address,uint256)": {
                "details": "See {IERC721-approve}."
            },
            "balanceOf(address)": {
                "details": "See {IERC721-balanceOf}."
            },
            "baseURI()": {
                "details": "Returns the base URI set via {_setBaseURI}. This will be automatically added as a prefix in {tokenURI} to each token's URI, or to the token ID if no specific URI is set for that token ID."
            },
            "getApproved(uint256)": {
                "details": "See {IERC721-getApproved}."
            },
            "isApprovedForAll(address,address)": {
                "details": "See {IERC721-isApprovedForAll}."
            },
            "name()": {
                "details": "See {IERC721Metadata-name}."
            },
            "ownerOf(uint256)": {
                "details": "See {IERC721-ownerOf}."
            },
            "safeTransferFrom(address,address,uint256)": {
                "details": "See {IERC721-safeTransferFrom}."
            },
            "safeTransferFrom(address,address,uint256,bytes)": {
                "details": "See {IERC721-safeTransferFrom}."
            },
            "setApprovalForAll(address,bool)": {
                "details": "See {IERC721-setApprovalForAll}."
            },
            "supportsInterface(bytes4)": {
                "details": "See {IERC165-supportsInterface}.     * Time complexity O(1), guaranteed to always use less than 30 000 gas."
            },
            "symbol()": {
                "details": "See {IERC721Metadata-symbol}."
            },
            "tokenByIndex(uint256)": {
                "details": "See {IERC721Enumerable-tokenByIndex}."
            },
            "tokenOfOwnerByIndex(address,uint256)": {
                "details": "See {IERC721Enumerable-tokenOfOwnerByIndex}."
            },
            "tokenURI(uint256)": {
                "details": "See {IERC721Metadata-tokenURI}."
            },
            "totalSupply()": {
                "details": "See {IERC721Enumerable-totalSupply}."
            },
            "transferFrom(address,address,uint256)": {
                "details": "See {IERC721-transferFrom}."
            }
        }
    },
    "userdoc": {
        "methods": {}
    }
}