{
  "contractName": "LedNFT",
  "abi": [
    {
      "inputs": [
        {
          "internalType": "address",
          "name": "_ictAddress",
          "type": "address"
        }
      ],
      "stateMutability": "nonpayable",
      "type": "constructor"
    },
    {
      "anonymous": false,
      "inputs": [
        {
          "indexed": true,
          "internalType": "address",
          "name": "owner",
          "type": "address"
        },
        {
          "indexed": true,
          "internalType": "address",
          "name": "approved",
          "type": "address"
        },
        {
          "indexed": true,
          "internalType": "uint256",
          "name": "tokenId",
          "type": "uint256"
        }
      ],
      "name": "Approval",
      "type": "event"
    },
    {
      "anonymous": false,
      "inputs": [
        {
          "indexed": true,
          "internalType": "address",
          "name": "owner",
          "type": "address"
        },
        {
          "indexed": true,
          "internalType": "address",
          "name": "operator",
          "type": "address"
        },
        {
          "indexed": false,
          "internalType": "bool",
          "name": "approved",
          "type": "bool"
        }
      ],
      "name": "ApprovalForAll",
      "type": "event"
    },
    {
      "anonymous": false,
      "inputs": [
        {
          "indexed": true,
          "internalType": "address",
          "name": "_owner",
          "type": "address"
        },
        {
          "indexed": true,
          "internalType": "uint256",
          "name": "_tokenId",
          "type": "uint256"
        }
      ],
      "name": "MintedNFT",
      "type": "event"
    },
    {
      "anonymous": false,
      "inputs": [
        {
          "indexed": true,
          "internalType": "address",
          "name": "from",
          "type": "address"
        },
        {
          "indexed": true,
          "internalType": "address",
          "name": "to",
          "type": "address"
        },
        {
          "indexed": true,
          "internalType": "uint256",
          "name": "tokenId",
          "type": "uint256"
        }
      ],
      "name": "Transfer",
      "type": "event"
    },
    {
      "inputs": [],
      "name": "BLINK_PATTERN_CHANGE_PRICE",
      "outputs": [
        {
          "internalType": "uint256",
          "name": "",
          "type": "uint256"
        }
      ],
      "stateMutability": "view",
      "type": "function",
      "constant": true
    },
    {
      "inputs": [],
      "name": "ICTContractAddress",
      "outputs": [
        {
          "internalType": "address",
          "name": "",
          "type": "address"
        }
      ],
      "stateMutability": "view",
      "type": "function",
      "constant": true
    },
    {
      "inputs": [],
      "name": "MAX_NFT_SUPPLY",
      "outputs": [
        {
          "internalType": "uint256",
          "name": "",
          "type": "uint256"
        }
      ],
      "stateMutability": "view",
      "type": "function",
      "constant": true
    },
    {
      "inputs": [
        {
          "internalType": "address",
          "name": "to",
          "type": "address"
        },
        {
          "internalType": "uint256",
          "name": "tokenId",
          "type": "uint256"
        }
      ],
      "name": "approve",
      "outputs": [],
      "stateMutability": "nonpayable",
      "type": "function"
    },
    {
      "inputs": [
        {
          "internalType": "address",
          "name": "owner",
          "type": "address"
        }
      ],
      "name": "balanceOf",
      "outputs": [
        {
          "internalType": "uint256",
          "name": "",
          "type": "uint256"
        }
      ],
      "stateMutability": "view",
      "type": "function",
      "constant": true
    },
    {
      "inputs": [],
      "name": "baseURI",
      "outputs": [
        {
          "internalType": "string",
          "name": "",
          "type": "string"
        }
      ],
      "stateMutability": "view",
      "type": "function",
      "constant": true
    },
    {
      "inputs": [],
      "name": "endTime",
      "outputs": [
        {
          "internalType": "uint256",
          "name": "",
          "type": "uint256"
        }
      ],
      "stateMutability": "view",
      "type": "function",
      "constant": true
    },
    {
      "inputs": [
        {
          "internalType": "uint256",
          "name": "tokenId",
          "type": "uint256"
        }
      ],
      "name": "getApproved",
      "outputs": [
        {
          "internalType": "address",
          "name": "",
          "type": "address"
        }
      ],
      "stateMutability": "view",
      "type": "function",
      "constant": true
    },
    {
      "inputs": [
        {
          "internalType": "uint256",
          "name": "",
          "type": "uint256"
        }
      ],
      "name": "initialOwner",
      "outputs": [
        {
          "internalType": "address payable",
          "name": "",
          "type": "address"
        }
      ],
      "stateMutability": "view",
      "type": "function",
      "constant": true
    },
    {
      "inputs": [
        {
          "internalType": "address",
          "name": "owner",
          "type": "address"
        },
        {
          "internalType": "address",
          "name": "operator",
          "type": "address"
        }
      ],
      "name": "isApprovedForAll",
      "outputs": [
        {
          "internalType": "bool",
          "name": "",
          "type": "bool"
        }
      ],
      "stateMutability": "view",
      "type": "function",
      "constant": true
    },
    {
      "inputs": [],
      "name": "isMintingActive",
      "outputs": [
        {
          "internalType": "bool",
          "name": "",
          "type": "bool"
        }
      ],
      "stateMutability": "view",
      "type": "function",
      "constant": true
    },
    {
      "inputs": [
        {
          "internalType": "uint256",
          "name": "",
          "type": "uint256"
        },
        {
          "internalType": "uint256",
          "name": "",
          "type": "uint256"
        }
      ],
      "name": "ledNFTBlinkPattern",
      "outputs": [
        {
          "internalType": "uint256",
          "name": "",
          "type": "uint256"
        }
      ],
      "stateMutability": "view",
      "type": "function",
      "constant": true
    },
    {
      "inputs": [
        {
          "internalType": "address",
          "name": "",
          "type": "address"
        }
      ],
      "name": "mintCount",
      "outputs": [
        {
          "internalType": "uint256",
          "name": "",
          "type": "uint256"
        }
      ],
      "stateMutability": "view",
      "type": "function",
      "constant": true
    },
    {
      "inputs": [],
      "name": "name",
      "outputs": [
        {
          "internalType": "string",
          "name": "",
          "type": "string"
        }
      ],
      "stateMutability": "view",
      "type": "function",
      "constant": true
    },
    {
      "inputs": [
        {
          "internalType": "uint256",
          "name": "",
          "type": "uint256"
        }
      ],
      "name": "numNotAllowed",
      "outputs": [
        {
          "internalType": "bool",
          "name": "",
          "type": "bool"
        }
      ],
      "stateMutability": "view",
      "type": "function",
      "constant": true
    },
    {
      "inputs": [],
      "name": "owner",
      "outputs": [
        {
          "internalType": "address",
          "name": "",
          "type": "address"
        }
      ],
      "stateMutability": "view",
      "type": "function",
      "constant": true
    },
    {
      "inputs": [
        {
          "internalType": "uint256",
          "name": "tokenId",
          "type": "uint256"
        }
      ],
      "name": "ownerOf",
      "outputs": [
        {
          "internalType": "address",
          "name": "",
          "type": "address"
        }
      ],
      "stateMutability": "view",
      "type": "function",
      "constant": true
    },
    {
      "inputs": [
        {
          "internalType": "address",
          "name": "",
          "type": "address"
        }
      ],
      "name": "ownerTotalTokensMintCount",
      "outputs": [
        {
          "internalType": "uint256",
          "name": "",
          "type": "uint256"
        }
      ],
      "stateMutability": "view",
      "type": "function",
      "constant": true
    },
    {
      "inputs": [
        {
          "internalType": "address",
          "name": "from",
          "type": "address"
        },
        {
          "internalType": "address",
          "name": "to",
          "type": "address"
        },
        {
          "internalType": "uint256",
          "name": "tokenId",
          "type": "uint256"
        }
      ],
      "name": "safeTransferFrom",
      "outputs": [],
      "stateMutability": "nonpayable",
      "type": "function"
    },
    {
      "inputs": [
        {
          "internalType": "address",
          "name": "from",
          "type": "address"
        },
        {
          "internalType": "address",
          "name": "to",
          "type": "address"
        },
        {
          "internalType": "uint256",
          "name": "tokenId",
          "type": "uint256"
        },
        {
          "internalType": "bytes",
          "name": "_data",
          "type": "bytes"
        }
      ],
      "name": "safeTransferFrom",
      "outputs": [],
      "stateMutability": "nonpayable",
      "type": "function"
    },
    {
      "inputs": [
        {
          "internalType": "address",
          "name": "operator",
          "type": "address"
        },
        {
          "internalType": "bool",
          "name": "approved",
          "type": "bool"
        }
      ],
      "name": "setApprovalForAll",
      "outputs": [],
      "stateMutability": "nonpayable",
      "type": "function"
    },
    {
      "inputs": [
        {
          "internalType": "bytes32",
          "name": "",
          "type": "bytes32"
        }
      ],
      "name": "skinOwner",
      "outputs": [
        {
          "internalType": "address",
          "name": "",
          "type": "address"
        }
      ],
      "stateMutability": "view",
      "type": "function",
      "constant": true
    },
    {
      "inputs": [
        {
          "internalType": "bytes32",
          "name": "",
          "type": "bytes32"
        }
      ],
      "name": "skinToPulse",
      "outputs": [
        {
          "internalType": "uint256",
          "name": "seed",
          "type": "uint256"
        }
      ],
      "stateMutability": "view",
      "type": "function",
      "constant": true
    },
    {
      "inputs": [
        {
          "internalType": "bytes4",
          "name": "interfaceId",
          "type": "bytes4"
        }
      ],
      "name": "supportsInterface",
      "outputs": [
        {
          "internalType": "bool",
          "name": "",
          "type": "bool"
        }
      ],
      "stateMutability": "view",
      "type": "function",
      "constant": true
    },
    {
      "inputs": [],
      "name": "symbol",
      "outputs": [
        {
          "internalType": "string",
          "name": "",
          "type": "string"
        }
      ],
      "stateMutability": "view",
      "type": "function",
      "constant": true
    },
    {
      "inputs": [
        {
          "internalType": "uint256",
          "name": "index",
          "type": "uint256"
        }
      ],
      "name": "tokenByIndex",
      "outputs": [
        {
          "internalType": "uint256",
          "name": "",
          "type": "uint256"
        }
      ],
      "stateMutability": "view",
      "type": "function",
      "constant": true
    },
    {
      "inputs": [
        {
          "internalType": "address",
          "name": "owner",
          "type": "address"
        },
        {
          "internalType": "uint256",
          "name": "index",
          "type": "uint256"
        }
      ],
      "name": "tokenOfOwnerByIndex",
      "outputs": [
        {
          "internalType": "uint256",
          "name": "",
          "type": "uint256"
        }
      ],
      "stateMutability": "view",
      "type": "function",
      "constant": true
    },
    {
      "inputs": [
        {
          "internalType": "uint256",
          "name": "",
          "type": "uint256"
        }
      ],
      "name": "tokenSaleData",
      "outputs": [
        {
          "internalType": "bool",
          "name": "forSale",
          "type": "bool"
        },
        {
          "internalType": "uint256",
          "name": "price",
          "type": "uint256"
        }
      ],
      "stateMutability": "view",
      "type": "function",
      "constant": true
    },
    {
      "inputs": [
        {
          "internalType": "uint256",
          "name": "",
          "type": "uint256"
        },
        {
          "internalType": "uint256",
          "name": "",
          "type": "uint256"
        }
      ],
      "name": "tokenSkin",
      "outputs": [
        {
          "internalType": "bytes32",
          "name": "",
          "type": "bytes32"
        }
      ],
      "stateMutability": "view",
      "type": "function",
      "constant": true
    },
    {
      "inputs": [
        {
          "internalType": "uint256",
          "name": "tokenId",
          "type": "uint256"
        }
      ],
      "name": "tokenURI",
      "outputs": [
        {
          "internalType": "string",
          "name": "",
          "type": "string"
        }
      ],
      "stateMutability": "view",
      "type": "function",
      "constant": true
    },
    {
      "inputs": [],
      "name": "totalSupply",
      "outputs": [
        {
          "internalType": "uint256",
          "name": "",
          "type": "uint256"
        }
      ],
      "stateMutability": "view",
      "type": "function",
      "constant": true
    },
    {
      "inputs": [
        {
          "internalType": "address",
          "name": "from",
          "type": "address"
        },
        {
          "internalType": "address",
          "name": "to",
          "type": "address"
        },
        {
          "internalType": "uint256",
          "name": "tokenId",
          "type": "uint256"
        }
      ],
      "name": "transferFrom",
      "outputs": [],
      "stateMutability": "nonpayable",
      "type": "function"
    },
    {
      "inputs": [
        {
          "internalType": "uint256",
          "name": "_endTimeLimit",
          "type": "uint256"
        }
      ],
      "name": "startTimerForNFTMinting",
      "outputs": [],
      "stateMutability": "nonpayable",
      "type": "function"
    },
    {
      "inputs": [
        {
          "internalType": "bool",
          "name": "_status",
          "type": "bool"
        }
      ],
      "name": "pauseUnpauseMinting",
      "outputs": [],
      "stateMutability": "nonpayable",
      "type": "function"
    },
    {
      "inputs": [
        {
          "internalType": "uint256",
          "name": "_nos",
          "type": "uint256"
        }
      ],
      "name": "getNFTPrice",
      "outputs": [
        {
          "internalType": "uint256",
          "name": "",
          "type": "uint256"
        }
      ],
      "stateMutability": "view",
      "type": "function",
      "constant": true
    },
    {
      "inputs": [],
      "name": "getContractBalance",
      "outputs": [
        {
          "internalType": "uint256",
          "name": "",
          "type": "uint256"
        }
      ],
      "stateMutability": "view",
      "type": "function",
      "constant": true
    },
    {
      "inputs": [
        {
          "internalType": "uint256",
          "name": "_tokenId",
          "type": "uint256"
        }
      ],
      "name": "getBlinkPatternOfTokenID",
      "outputs": [
        {
          "internalType": "uint256[]",
          "name": "",
          "type": "uint256[]"
        }
      ],
      "stateMutability": "view",
      "type": "function",
      "constant": true
    },
    {
      "inputs": [
        {
          "internalType": "uint256",
          "name": "_nos",
          "type": "uint256"
        }
      ],
      "name": "mintToken",
      "outputs": [],
      "stateMutability": "payable",
      "type": "function",
      "payable": true
    },
    {
      "inputs": [
        {
          "internalType": "uint256",
          "name": "_tokenId",
          "type": "uint256"
        },
        {
          "internalType": "uint256[30]",
          "name": "_newPattern",
          "type": "uint256[30]"
        }
      ],
      "name": "changeLEDBlinkPattern",
      "outputs": [],
      "stateMutability": "nonpayable",
      "type": "function"
    },
    {
      "inputs": [],
      "name": "withdrawCollectedEther",
      "outputs": [],
      "stateMutability": "nonpayable",
      "type": "function"
    },
    {
      "inputs": [
        {
          "internalType": "address",
          "name": "_address",
          "type": "address"
        }
      ],
      "name": "mintedTokens",
      "outputs": [
        {
          "internalType": "uint256",
          "name": "",
          "type": "uint256"
        }
      ],
      "stateMutability": "view",
      "type": "function",
      "constant": true
    },
    {
      "inputs": [
        {
          "internalType": "uint256",
          "name": "_tokenId",
          "type": "uint256"
        },
        {
          "internalType": "uint256",
          "name": "_price",
          "type": "uint256"
        }
      ],
      "name": "markForSale",
      "outputs": [],
      "stateMutability": "nonpayable",
      "type": "function"
    },
    {
      "inputs": [
        {
          "internalType": "uint256",
          "name": "_tokenId",
          "type": "uint256"
        }
      ],
      "name": "getPriceOfToken",
      "outputs": [
        {
          "internalType": "uint256",
          "name": "",
          "type": "uint256"
        }
      ],
      "stateMutability": "view",
      "type": "function",
      "constant": true
    },
    {
      "inputs": [
        {
          "internalType": "uint256",
          "name": "_tokenId",
          "type": "uint256"
        }
      ],
      "name": "isAvailableForSale",
      "outputs": [
        {
          "internalType": "bool",
          "name": "",
          "type": "bool"
        }
      ],
      "stateMutability": "view",
      "type": "function",
      "constant": true
    },
    {
      "inputs": [
        {
          "internalType": "uint256",
          "name": "_tokenId",
          "type": "uint256"
        }
      ],
      "name": "purchaseToken",
      "outputs": [],
      "stateMutability": "payable",
      "type": "function",
      "payable": true
    },
    {
      "inputs": [],
      "name": "allMintedId",
      "outputs": [
        {
          "internalType": "uint256[]",
          "name": "",
          "type": "uint256[]"
        }
      ],
      "stateMutability": "view",
      "type": "function",
      "constant": true
    },
    {
      "inputs": [
        {
          "internalType": "uint256",
          "name": "_tokenId",
          "type": "uint256"
        }
      ],
      "name": "getSkinsOfToken",
      "outputs": [
        {
          "internalType": "bytes32[]",
          "name": "",
          "type": "bytes32[]"
        }
      ],
      "stateMutability": "view",
      "type": "function",
      "constant": true
    },
    {
      "inputs": [
        {
          "internalType": "bytes32",
          "name": "_skin",
          "type": "bytes32"
        }
      ],
      "name": "getpulseNSeed",
      "outputs": [
        {
          "internalType": "uint256[]",
          "name": "",
          "type": "uint256[]"
        },
        {
          "internalType": "uint256",
          "name": "",
          "type": "uint256"
        }
      ],
      "stateMutability": "view",
      "type": "function",
      "constant": true
    }
  ],
  "bytecode": "0x60806040526000600f553480156200001657600080fd5b5060405162005fb938038062005fb9833981810160405260208110156200003c57600080fd5b81019080805190602001909291905050506040518060400160405280600681526020017f4c65644e465400000000000000000000000000000000000000000000000000008152506040518060400160405280600381526020017f4c45440000000000000000000000000000000000000000000000000000000000815250620000d16301ffc9a760e01b620001f960201b60201c565b8160069080519060200190620000e992919062000302565b5080600790805190602001906200010292919062000302565b506200011b6380ac58cd60e01b620001f960201b60201c565b62000133635b5e139f60e01b620001f960201b60201c565b6200014b63780e9d6360e01b620001f960201b60201c565b505080601460006101000a81548173ffffffffffffffffffffffffffffffffffffffff021916908373ffffffffffffffffffffffffffffffffffffffff16021790555033601560006101000a81548173ffffffffffffffffffffffffffffffffffffffff021916908373ffffffffffffffffffffffffffffffffffffffff1602179055506000601860006101000a81548160ff021916908315150217905550600060178190555050620003b1565b63ffffffff60e01b817bffffffffffffffffffffffffffffffffffffffffffffffffffffffff1916141562000296576040517f08c379a000000000000000000000000000000000000000000000000000000000815260040180806020018281038252601c8152602001807f4552433136353a20696e76616c696420696e746572666163652069640000000081525060200191505060405180910390fd5b6001600080837bffffffffffffffffffffffffffffffffffffffffffffffffffffffff19167bffffffffffffffffffffffffffffffffffffffffffffffffffffffff1916815260200190815260200160002060006101000a81548160ff02191690831515021790555050565b828054600181600116156101000203166002900490600052602060002090601f016020900481019282601f106200034557805160ff191683800117855562000376565b8280016001018555821562000376579182015b828111156200037557825182559160200191906001019062000358565b5b50905062000385919062000389565b5090565b620003ae91905b80821115620003aa57600081600090555060010162000390565b5090565b90565b615bf880620003c16000396000f3fe6080604052600436106102935760003560e01c80638571d3551161015a578063c634d032116100c1578063dcd6a95d1161007a578063dcd6a95d14611325578063dfe9c3cf14611374578063e985e9c5146113d9578063ea72a36d14611462578063ed9ec88814611479578063f4487d7c146114de57610293565b8063c634d032146110da578063c87b56dd14611108578063cc6d4523146111bc578063ccee283814611213578063cdfb36cd14611250578063d89eac9a1461129557610293565b8063a22cb46511610113578063a22cb46514610e29578063b5077f4414610e86578063b88d4fde14610eb1578063bab33dd614610fc3578063c2db2c421461101c578063c5e09b661461104a57610293565b80638571d35514610b9d5780638da5cb5b14610bf05780639297617914610c475780639426543814610c9657806395d89b4114610d2d57806398b2b52314610dbd57610293565b80633197cbb6116101fe5780636c0360eb116101b75780636c0360eb1461094e5780636f9fb98a146109de57806370a0823114610a095780637241dfa014610a6e5780637fec13d714610ad3578063814b525514610b2257610293565b80633197cbb61461073157806342842e0e1461075c5780634404c50f146107d75780634f6ccce7146108555780636352211e146108a45780636ac437b01461091f57610293565b806318160ddd1161025057806318160ddd146104f4578063207ce2fe1461051f57806323b872dd1461059a57806324ac8cc2146106155780632f745c591461066f5780633145065c146106de57610293565b806301ffc9a71461029857806306fdde031461030a578063081812fc1461039a578063095ea7b3146104155780630c129ccf146104705780630ef59bd01461049b575b600080fd5b3480156102a457600080fd5b506102f0600480360360208110156102bb57600080fd5b8101908080357bffffffffffffffffffffffffffffffffffffffffffffffffffffffff19169060200190929190505050611519565b604051808215151515815260200191505060405180910390f35b34801561031657600080fd5b5061031f611580565b6040518080602001828103825283818151815260200191508051906020019080838360005b8381101561035f578082015181840152602081019050610344565b50505050905090810190601f16801561038c5780820380516001836020036101000a031916815260200191505b509250505060405180910390f35b3480156103a657600080fd5b506103d3600480360360208110156103bd57600080fd5b8101908080359060200190929190505050611622565b604051808273ffffffffffffffffffffffffffffffffffffffff1673ffffffffffffffffffffffffffffffffffffffff16815260200191505060405180910390f35b34801561042157600080fd5b5061046e6004803603604081101561043857600080fd5b81019080803573ffffffffffffffffffffffffffffffffffffffff169060200190929190803590602001909291905050506116bd565b005b34801561047c57600080fd5b50610485611801565b6040518082815260200191505060405180910390f35b3480156104a757600080fd5b506104de600480360360408110156104be57600080fd5b81019080803590602001909291908035906020019092919050505061180d565b6040518082815260200191505060405180910390f35b34801561050057600080fd5b5061050961183b565b6040518082815260200191505060405180910390f35b34801561052b57600080fd5b506105586004803603602081101561054257600080fd5b810190808035906020019092919050505061184c565b604051808273ffffffffffffffffffffffffffffffffffffffff1673ffffffffffffffffffffffffffffffffffffffff16815260200191505060405180910390f35b3480156105a657600080fd5b50610613600480360360608110156105bd57600080fd5b81019080803573ffffffffffffffffffffffffffffffffffffffff169060200190929190803573ffffffffffffffffffffffffffffffffffffffff1690602001909291908035906020019092919050505061187f565b005b34801561062157600080fd5b5061064e6004803603602081101561063857600080fd5b81019080803590602001909291905050506118f5565b60405180831515151581526020018281526020019250505060405180910390f35b34801561067b57600080fd5b506106c86004803603604081101561069257600080fd5b81019080803573ffffffffffffffffffffffffffffffffffffffff16906020019092919080359060200190929190505050611926565b6040518082815260200191505060405180910390f35b3480156106ea57600080fd5b506107176004803603602081101561070157600080fd5b8101908080359060200190929190505050611981565b604051808215151515815260200191505060405180910390f35b34801561073d57600080fd5b506107466119ae565b6040518082815260200191505060405180910390f35b34801561076857600080fd5b506107d56004803603606081101561077f57600080fd5b81019080803573ffffffffffffffffffffffffffffffffffffffff169060200190929190803573ffffffffffffffffffffffffffffffffffffffff169060200190929190803590602001909291905050506119b4565b005b3480156107e357600080fd5b5061085360048036036103e08110156107fb57600080fd5b8101908080359060200190929190806103c00190601e806020026040519081016040528092919082601e60200280828437600081840152601f19601f82011690508083019250505050505091929192905050506119d4565b005b34801561086157600080fd5b5061088e6004803603602081101561087857600080fd5b81019080803590602001909291905050506121dd565b6040518082815260200191505060405180910390f35b3480156108b057600080fd5b506108dd600480360360208110156108c757600080fd5b8101908080359060200190929190505050612200565b604051808273ffffffffffffffffffffffffffffffffffffffff1673ffffffffffffffffffffffffffffffffffffffff16815260200191505060405180910390f35b34801561092b57600080fd5b50610934612237565b604051808215151515815260200191505060405180910390f35b34801561095a57600080fd5b5061096361224a565b6040518080602001828103825283818151815260200191508051906020019080838360005b838110156109a3578082015181840152602081019050610988565b50505050905090810190601f1680156109d05780820380516001836020036101000a031916815260200191505b509250505060405180910390f35b3480156109ea57600080fd5b506109f36122ec565b6040518082815260200191505060405180910390f35b348015610a1557600080fd5b50610a5860048036036020811015610a2c57600080fd5b81019080803573ffffffffffffffffffffffffffffffffffffffff16906020019092919050505061239a565b6040518082815260200191505060405180910390f35b348015610a7a57600080fd5b50610abd60048036036020811015610a9157600080fd5b81019080803573ffffffffffffffffffffffffffffffffffffffff16906020019092919050505061246f565b6040518082815260200191505060405180910390f35b348015610adf57600080fd5b50610b0c60048036036020811015610af657600080fd5b81019080803590602001909291905050506124b8565b6040518082815260200191505060405180910390f35b348015610b2e57600080fd5b50610b5b60048036036020811015610b4557600080fd5b81019080803590602001909291905050506124d6565b604051808273ffffffffffffffffffffffffffffffffffffffff1673ffffffffffffffffffffffffffffffffffffffff16815260200191505060405180910390f35b348015610ba957600080fd5b50610bd660048036036020811015610bc057600080fd5b8101908080359060200190929190505050612509565b604051808215151515815260200191505060405180910390f35b348015610bfc57600080fd5b50610c05612529565b604051808273ffffffffffffffffffffffffffffffffffffffff1673ffffffffffffffffffffffffffffffffffffffff16815260200191505060405180910390f35b348015610c5357600080fd5b50610c8060048036036020811015610c6a57600080fd5b810190808035906020019092919050505061254f565b6040518082815260200191505060405180910390f35b348015610ca257600080fd5b50610ccf60048036036020811015610cb957600080fd5b8101908080359060200190929190505050612660565b6040518080602001838152602001828103825284818151815260200191508051906020019060200280838360005b83811015610d18578082015181840152602081019050610cfd565b50505050905001935050505060405180910390f35b348015610d3957600080fd5b50610d426127a3565b6040518080602001828103825283818151815260200191508051906020019080838360005b83811015610d82578082015181840152602081019050610d67565b50505050905090810190601f168015610daf5780820380516001836020036101000a031916815260200191505b509250505060405180910390f35b348015610dc957600080fd5b50610dd2612845565b6040518080602001828103825283818151815260200191508051906020019060200280838360005b83811015610e15578082015181840152602081019050610dfa565b505050509050019250505060405180910390f35b348015610e3557600080fd5b50610e8460048036036040811015610e4c57600080fd5b81019080803573ffffffffffffffffffffffffffffffffffffffff16906020019092919080351515906020019092919050505061289d565b005b348015610e9257600080fd5b50610e9b612a55565b6040518082815260200191505060405180910390f35b348015610ebd57600080fd5b50610fc160048036036080811015610ed457600080fd5b81019080803573ffffffffffffffffffffffffffffffffffffffff169060200190929190803573ffffffffffffffffffffffffffffffffffffffff1690602001909291908035906020019092919080359060200190640100000000811115610f3b57600080fd5b820183602082011115610f4d57600080fd5b80359060200191846001830284011164010000000083111715610f6f57600080fd5b91908080601f016020809104026020016040519081016040528093929190818152602001838380828437600081840152601f19601f820116905080830192505050505050509192919290505050612a5b565b005b348015610fcf57600080fd5b5061100660048036036040811015610fe657600080fd5b810190808035906020019092919080359060200190929190505050612ad3565b6040518082815260200191505060405180910390f35b6110486004803603602081101561103257600080fd5b8101908080359060200190929190505050612b01565b005b34801561105657600080fd5b506110836004803603602081101561106d57600080fd5b8101908080359060200190929190505050612d62565b6040518080602001828103825283818151815260200191508051906020019060200280838360005b838110156110c65780820151818401526020810190506110ab565b505050509050019250505060405180910390f35b611106600480360360208110156110f057600080fd5b8101908080359060200190929190505050612e76565b005b34801561111457600080fd5b506111416004803603602081101561112b57600080fd5b81019080803590602001909291905050506136e7565b6040518080602001828103825283818151815260200191508051906020019080838360005b83811015611181578082015181840152602081019050611166565b50505050905090810190601f1680156111ae5780820380516001836020036101000a031916815260200191505b509250505060405180910390f35b3480156111c857600080fd5b506111d16139d0565b604051808273ffffffffffffffffffffffffffffffffffffffff1673ffffffffffffffffffffffffffffffffffffffff16815260200191505060405180910390f35b34801561121f57600080fd5b5061124e6004803603602081101561123657600080fd5b810190808035151590602001909291905050506139f6565b005b34801561125c57600080fd5b506112936004803603604081101561127357600080fd5b810190808035906020019092919080359060200190929190505050613ab9565b005b3480156112a157600080fd5b506112ce600480360360208110156112b857600080fd5b8101908080359060200190929190505050613c31565b6040518080602001828103825283818151815260200191508051906020019060200280838360005b838110156113115780820151818401526020810190506112f6565b505050509050019250505060405180910390f35b34801561133157600080fd5b5061135e6004803603602081101561134857600080fd5b8101908080359060200190929190505050613d66565b6040518082815260200191505060405180910390f35b34801561138057600080fd5b506113c36004803603602081101561139757600080fd5b81019080803573ffffffffffffffffffffffffffffffffffffffff169060200190929190505050613d86565b6040518082815260200191505060405180910390f35b3480156113e557600080fd5b50611448600480360360408110156113fc57600080fd5b81019080803573ffffffffffffffffffffffffffffffffffffffff169060200190929190803573ffffffffffffffffffffffffffffffffffffffff169060200190929190505050613d9e565b604051808215151515815260200191505060405180910390f35b34801561146e57600080fd5b50611477613e32565b005b34801561148557600080fd5b506114c86004803603602081101561149c57600080fd5b81019080803573ffffffffffffffffffffffffffffffffffffffff169060200190929190505050613f34565b6040518082815260200191505060405180910390f35b3480156114ea57600080fd5b506115176004803603602081101561150157600080fd5b8101908080359060200190929190505050613f4c565b005b6000806000837bffffffffffffffffffffffffffffffffffffffffffffffffffffffff19167bffffffffffffffffffffffffffffffffffffffffffffffffffffffff1916815260200190815260200160002060009054906101000a900460ff169050919050565b606060068054600181600116156101000203166002900480601f0160208091040260200160405190810160405280929190818152602001828054600181600116156101000203166002900480156116185780601f106115ed57610100808354040283529160200191611618565b820191906000526020600020905b8154815290600101906020018083116115fb57829003601f168201915b5050505050905090565b600061162d82613ffe565b611682576040517f08c379a000000000000000000000000000000000000000000000000000000000815260040180806020018281038252602c8152602001806159f2602c913960400191505060405180910390fd5b6004600083815260200190815260200160002060009054906101000a900473ffffffffffffffffffffffffffffffffffffffff169050919050565b60006116c882612200565b90508073ffffffffffffffffffffffffffffffffffffffff168373ffffffffffffffffffffffffffffffffffffffff16141561174f576040517f08c379a0000000000000000000000000000000000000000000000000000000008152600401808060200182810382526021815260200180615aa26021913960400191505060405180910390fd5b8073ffffffffffffffffffffffffffffffffffffffff1661176e61401b565b73ffffffffffffffffffffffffffffffffffffffff16148061179d575061179c8161179761401b565b613d9e565b5b6117f2576040517f08c379a00000000000000000000000000000000000000000000000000000000081526004018080602001828103825260388152602001806158726038913960400191505060405180910390fd5b6117fc8383614023565b505050565b670de0b6b3a764000081565b6012602052816000526040600020818154811061182657fe5b90600052602060002001600091509150505481565b600061184760026140dc565b905090565b600b6020528060005260406000206000915054906101000a900473ffffffffffffffffffffffffffffffffffffffff1681565b61189061188a61401b565b826140f1565b6118e5576040517f08c379a0000000000000000000000000000000000000000000000000000000008152600401808060200182810382526031815260200180615b0a6031913960400191505060405180910390fd5b6118f08383836141e5565b505050565b600e6020528060005260406000206000915090508060000160009054906101000a900460ff16908060010154905082565b600061197982600160008673ffffffffffffffffffffffffffffffffffffffff1673ffffffffffffffffffffffffffffffffffffffff16815260200190815260200160002061442890919063ffffffff16565b905092915050565b6000600e600083815260200190815260200160002060000160009054906101000a900460ff169050919050565b60175481565b6119cf83838360405180602001604052806000815250612a5b565b505050565b60006119df83612200565b90503373ffffffffffffffffffffffffffffffffffffffff168173ffffffffffffffffffffffffffffffffffffffff1614611a82576040517f08c379a000000000000000000000000000000000000000000000000000000000815260040180806020018281038252600e8152602001807f4e6f7420617574686f726973656400000000000000000000000000000000000081525060200191505060405180910390fd5b670de0b6b3a7640000601460009054906101000a900473ffffffffffffffffffffffffffffffffffffffff1673ffffffffffffffffffffffffffffffffffffffff166370a08231336040518263ffffffff1660e01b8152600401808273ffffffffffffffffffffffffffffffffffffffff1673ffffffffffffffffffffffffffffffffffffffff16815260200191505060206040518083038186803b158015611b2a57600080fd5b505afa158015611b3e573d6000803e3d6000fd5b505050506040513d6020811015611b5457600080fd5b81019080805190602001909291905050501015611bd9576040517f08c379a00000000000000000000000000000000000000000000000000000000081526004018080602001828103825260128152602001807f4e6f7420656e6f7567682062616c616e6365000000000000000000000000000081525060200191505060405180910390fd5b611be283613c31565b60405160200180828051906020019060200280838360005b83811015611c15578082015181840152602081019050611bfa565b5050505090500191505060405160208183030381529060405280519060200120826040516020018082601e60200280838360005b83811015611c64578082015181840152602081019050611c49565b50505050905001915050604051602081830303815290604052805190602001201415611cdb576040517f08c379a00000000000000000000000000000000000000000000000000000000081526004018080602001828103825260268152602001806157bf6026913960400191505060405180910390fd5b60008090505b601e811015611d9b5760008382601e8110611cf857fe5b602002015110158015611d1c575060648382601e8110611d1457fe5b602002015111155b611d8e576040517f08c379a00000000000000000000000000000000000000000000000000000000081526004018080602001828103825260158152602001807f496e76616c696420626c696e6b207061747465726e000000000000000000000081525060200191505060405180910390fd5b8080600101915050611ce1565b50816013600085815260200190815260200160002090601e611dbe9291906155b6565b506000834260405160200180838152602001828152602001925050506040516020818303038152906040528051906020012060001c9050600083826040516020018083601e60200280838360005b83811015611e27578082015181840152602081019050611e0c565b505050509050018281526020019250505060405160208183030381529060405280519060200120905060126000868152602001908152602001600020819080600181540180825580915050600190039060005260206000200160009091909190915055336010600083815260200190815260200160002060006101000a81548173ffffffffffffffffffffffffffffffffffffffff021916908373ffffffffffffffffffffffffffffffffffffffff160217905550836011600083815260200190815260200160002060000190601e611f019291906155b6565b50816011600083815260200190815260200160002060010181905550601460009054906101000a900473ffffffffffffffffffffffffffffffffffffffff1673ffffffffffffffffffffffffffffffffffffffff1663e1f21c673330670de0b6b3a76400006040518463ffffffff1660e01b8152600401808473ffffffffffffffffffffffffffffffffffffffff1673ffffffffffffffffffffffffffffffffffffffff1681526020018373ffffffffffffffffffffffffffffffffffffffff1673ffffffffffffffffffffffffffffffffffffffff1681526020018281526020019350505050602060405180830381600087803b15801561200257600080fd5b505af1158015612016573d6000803e3d6000fd5b505050506040513d602081101561202c57600080fd5b8101908080519060200190929190505050506000601460009054906101000a900473ffffffffffffffffffffffffffffffffffffffff1673ffffffffffffffffffffffffffffffffffffffff166323b872dd3330670de0b6b3a76400006040518463ffffffff1660e01b8152600401808473ffffffffffffffffffffffffffffffffffffffff1673ffffffffffffffffffffffffffffffffffffffff1681526020018373ffffffffffffffffffffffffffffffffffffffff1673ffffffffffffffffffffffffffffffffffffffff1681526020018281526020019350505050602060405180830381600087803b15801561212557600080fd5b505af1158015612139573d6000803e3d6000fd5b505050506040513d602081101561214f57600080fd5b81019080805190602001909291905050509050806121d5576040517f08c379a00000000000000000000000000000000000000000000000000000000081526004018080602001828103825260168152602001807f4661696c656420746f207472616e73666572204943540000000000000000000081525060200191505060405180910390fd5b505050505050565b6000806121f483600261444290919063ffffffff16565b50905080915050919050565b60006122308260405180606001604052806029815260200161590a6029913960026144719092919063ffffffff16565b9050919050565b601860009054906101000a900460ff1681565b606060098054600181600116156101000203166002900480601f0160208091040260200160405190810160405280929190818152602001828054600181600116156101000203166002900480156122e25780601f106122b7576101008083540402835291602001916122e2565b820191906000526020600020905b8154815290600101906020018083116122c557829003601f168201915b5050505050905090565b60003373ffffffffffffffffffffffffffffffffffffffff16601560009054906101000a900473ffffffffffffffffffffffffffffffffffffffff1673ffffffffffffffffffffffffffffffffffffffff1614612394576040517f08c379a000000000000000000000000000000000000000000000000000000000815260040180806020018281038252602d8152602001806157e5602d913960400191505060405180910390fd5b47905090565b60008073ffffffffffffffffffffffffffffffffffffffff168273ffffffffffffffffffffffffffffffffffffffff161415612421576040517f08c379a000000000000000000000000000000000000000000000000000000000815260040180806020018281038252602a8152602001806158e0602a913960400191505060405180910390fd5b612468600160008473ffffffffffffffffffffffffffffffffffffffff1673ffffffffffffffffffffffffffffffffffffffff168152602001908152602001600020614490565b9050919050565b6000600c60008373ffffffffffffffffffffffffffffffffffffffff1673ffffffffffffffffffffffffffffffffffffffff168152602001908152602001600020549050919050565b60116020528060005260406000206000915090508060010154905081565b60106020528060005260406000206000915054906101000a900473ffffffffffffffffffffffffffffffffffffffff1681565b600a6020528060005260406000206000915054906101000a900460ff1681565b601560009054906101000a900473ffffffffffffffffffffffffffffffffffffffff1681565b60004260175410156125c9576040517f08c379a000000000000000000000000000000000000000000000000000000000815260040180806020018281038252600d8152602001807f53616c65206973206f766572210000000000000000000000000000000000000081525060200191505060405180910390fd5b6108006125d461183b565b1115612648576040517f08c379a00000000000000000000000000000000000000000000000000000000081526004018080602001828103825260148152602001807f416c6c204e4654277320617265206d696e74656400000000000000000000000081525060200191505060405180910390fd5b6000670b1a2bc2ec5000009050808302915050919050565b606060006010600084815260200190815260200160002060009054906101000a900473ffffffffffffffffffffffffffffffffffffffff1673ffffffffffffffffffffffffffffffffffffffff163373ffffffffffffffffffffffffffffffffffffffff161461271b576040517f08c379a00000000000000000000000000000000000000000000000000000000081526004018080602001828103825260258152602001806159336025913960400191505060405180910390fd5b6011600084815260200190815260200160002060000160116000858152602001908152602001600020600101548180548060200260200160405190810160405280929190818152602001828054801561279357602002820191906000526020600020905b81548152602001906001019080831161277f575b5050505050915091509150915091565b606060078054600181600116156101000203166002900480601f01602080910402602001604051908101604052809291908181526020018280546001816001161561010002031660029004801561283b5780601f106128105761010080835404028352916020019161283b565b820191906000526020600020905b81548152906001019060200180831161281e57829003601f168201915b5050505050905090565b6060600d80548060200260200160405190810160405280929190818152602001828054801561289357602002820191906000526020600020905b81548152602001906001019080831161287f575b5050505050905090565b6128a561401b565b73ffffffffffffffffffffffffffffffffffffffff168273ffffffffffffffffffffffffffffffffffffffff161415612946576040517f08c379a00000000000000000000000000000000000000000000000000000000081526004018080602001828103825260198152602001807f4552433732313a20617070726f766520746f2063616c6c65720000000000000081525060200191505060405180910390fd5b806005600061295361401b565b73ffffffffffffffffffffffffffffffffffffffff1673ffffffffffffffffffffffffffffffffffffffff16815260200190815260200160002060008473ffffffffffffffffffffffffffffffffffffffff1673ffffffffffffffffffffffffffffffffffffffff16815260200190815260200160002060006101000a81548160ff0219169083151502179055508173ffffffffffffffffffffffffffffffffffffffff16612a0061401b565b73ffffffffffffffffffffffffffffffffffffffff167f17307eab39ab6107e8899845ad3d59bd9653f200f220920489ca2b5937696c3183604051808215151515815260200191505060405180910390a35050565b61080081565b612a6c612a6661401b565b836140f1565b612ac1576040517f08c379a0000000000000000000000000000000000000000000000000000000008152600401808060200182810382526031815260200180615b0a6031913960400191505060405180910390fd5b612acd848484846144a5565b50505050565b60136020528160005260406000208181548110612aec57fe5b90600052602060002001600091509150505481565b60011515612b0e82611981565b151514612b83576040517f08c379a000000000000000000000000000000000000000000000000000000000815260040180806020018281038252601b8152602001807f546f6b656e206e6f7420617661696c616c6520666f722073616c65000000000081525060200191505060405180910390fd5b34612b8d82613d66565b14612be3576040517f08c379a0000000000000000000000000000000000000000000000000000000008152600401808060200182810382526024815260200180615ac36024913960400191505060405180910390fd5b3373ffffffffffffffffffffffffffffffffffffffff16612c0382612200565b73ffffffffffffffffffffffffffffffffffffffff161415612c70576040517f08c379a00000000000000000000000000000000000000000000000000000000081526004018080602001828103825260238152602001806157186023913960400191505060405180910390fd5b60003490506000612c8b600a8361451790919063ffffffff16565b9050612cca600b600085815260200190815260200160002060009054906101000a900473ffffffffffffffffffffffffffffffffffffffff1682614561565b6000600a612ce260098561462290919063ffffffff16565b81612ce957fe5b049050612cfe612cf885612200565b82614561565b6000600e6000868152602001908152602001600020600101819055506000600e600086815260200190815260200160002060000160006101000a81548160ff021916908315150217905550612d5c612d5585612200565b33866146a8565b50505050565b6060612d6d82612200565b73ffffffffffffffffffffffffffffffffffffffff163373ffffffffffffffffffffffffffffffffffffffff1614612e0d576040517f08c379a00000000000000000000000000000000000000000000000000000000081526004018080602001828103825260208152602001807f596f752063616e206f6e6c79207669657720796f7572206f776e20736b696e7381525060200191505060405180910390fd5b60126000838152602001908152602001600020805480602002602001604051908101604052809291908181526020018280548015612e6a57602002820191906000526020600020905b815481526020019060010190808311612e56575b50505050509050919050565b60018110158015612e88575060038111155b612edd576040517f08c379a00000000000000000000000000000000000000000000000000000000081526004018080602001828103825260368152602001806158aa6036913960400191505060405180910390fd5b60008090505b818160ff1610156136e35760011515601860009054906101000a900460ff16151514612f77576040517f08c379a00000000000000000000000000000000000000000000000000000000081526004018080602001828103825260128152602001807f4d696e74696e672069732050617573656421000000000000000000000000000081525060200191505060405180910390fd5b426017541015612fef576040517f08c379a000000000000000000000000000000000000000000000000000000000815260040180806020018281038252600d8152602001807f53616c65206973206f766572210000000000000000000000000000000000000081525060200191505060405180910390fd5b6003601660003373ffffffffffffffffffffffffffffffffffffffff1673ffffffffffffffffffffffffffffffffffffffff1681526020019081526020016000205410613087576040517f08c379a0000000000000000000000000000000000000000000000000000000008152600401808060200182810382526023815260200180615ae76023913960400191505060405180910390fd5b61080061309261183b565b106130e8576040517f08c379a0000000000000000000000000000000000000000000000000000000008152600401808060200182810382526036815260200180615b8d6036913960400191505060405180910390fd5b346130f28361254f565b14613148576040517f08c379a000000000000000000000000000000000000000000000000000000000815260040180806020018281038252603481526020018061583e6034913960400191505060405180910390fd5b600080905060006108004233600f54604051602001808481526020018373ffffffffffffffffffffffffffffffffffffffff1673ffffffffffffffffffffffffffffffffffffffff1660601b815260140182815260200193505050506040516020818303038152906040528051906020012060001c816131c457fe5b069050600181019050600f600081548092919060010191905055505b60011515600a600083815260200190815260200160002060009054906101000a900460ff161515141561323357610801600182018161321b57fe5b069050600081141561322e576001810190505b613267565b6001600a600083815260200190815260200160002060006101000a81548160ff021916908315150217905550809150613270565b600082146131e0575b6001600c60003373ffffffffffffffffffffffffffffffffffffffff1673ffffffffffffffffffffffffffffffffffffffff1681526020019081526020016000206000828254019250508190555033600b600084815260200190815260200160002060006101000a81548173ffffffffffffffffffffffffffffffffffffffff021916908373ffffffffffffffffffffffffffffffffffffffff160217905550601660003373ffffffffffffffffffffffffffffffffffffffff1673ffffffffffffffffffffffffffffffffffffffff1681526020019081526020016000206000815460010191905081905550600d82908060018154018082558091505060019003906000526020600020016000909190919091505560008090505b601e8110156134565760136000848152602001908152602001600020606533424485604051602001808573ffffffffffffffffffffffffffffffffffffffff1673ffffffffffffffffffffffffffffffffffffffff1660601b81526014018481526020018381526020018281526020019450505050506040516020818303038152906040528051906020012060001c8161342257fe5b069080600181540180825580915050600190039060005260206000200160009091909190915055808060010191505061338c565b506000824260405160200180838152602001828152602001925050506040516020818303038152906040528051906020012060001c9050606061349884613c31565b90506000818360405160200180838051906020019060200280838360005b838110156134d15780820151818401526020810190506134b6565b505050509050018281526020019250505060405160208183030381529060405280519060200120905060126000868152602001908152602001600020819080600181540180825580915050600190039060005260206000200160009091909190915055336010600083815260200190815260200160002060006101000a81548173ffffffffffffffffffffffffffffffffffffffff021916908373ffffffffffffffffffffffffffffffffffffffff160217905550816011600083815260200190815260200160002060000190805190602001906135b0929190615603565b50826011600083815260200190815260200160002060010181905550601460009054906101000a900473ffffffffffffffffffffffffffffffffffffffff1673ffffffffffffffffffffffffffffffffffffffff1663f74b40c386426040518363ffffffff1660e01b81526004018083815260200182815260200192505050600060405180830381600087803b15801561364957600080fd5b505af115801561365d573d6000803e3d6000fd5b5050505061366b33866146b8565b61368d85604051806080016040528060578152602001615958605791396146d6565b843373ffffffffffffffffffffffffffffffffffffffff167f7a5477f3d257e8974dc6fb5c008b442d975968577dfad5d1283aa0a488bfab0b60405160405180910390a350505050508080600101915050612ee3565b5050565b60606136f282613ffe565b613747576040517f08c379a000000000000000000000000000000000000000000000000000000000815260040180806020018281038252602f815260200180615a73602f913960400191505060405180910390fd5b6060600860008481526020019081526020016000208054600181600116156101000203166002900480601f0160208091040260200160405190810160405280929190818152602001828054600181600116156101000203166002900480156137f05780601f106137c5576101008083540402835291602001916137f0565b820191906000526020600020905b8154815290600101906020018083116137d357829003601f168201915b5050505050905060006009805460018160011615610100020316600290049050141561381f57809150506139cb565b6000815111156138f857600981604051602001808380546001816001161561010002031660029004801561388a5780601f1061386857610100808354040283529182019161388a565b820191906000526020600020905b815481529060010190602001808311613876575b505082805190602001908083835b602083106138bb5780518252602082019150602081019050602083039250613898565b6001836020036101000a038019825116818451168082178552505050505050905001925050506040516020818303038152906040529150506139cb565b600961390384614760565b60405160200180838054600181600116156101000203166002900480156139615780601f1061393f576101008083540402835291820191613961565b820191906000526020600020905b81548152906001019060200180831161394d575b505082805190602001908083835b60208310613992578051825260208201915060208101905060208303925061396f565b6001836020036101000a038019825116818451168082178552505050505050905001925050506040516020818303038152906040529150505b919050565b601460009054906101000a900473ffffffffffffffffffffffffffffffffffffffff1681565b3373ffffffffffffffffffffffffffffffffffffffff16601560009054906101000a900473ffffffffffffffffffffffffffffffffffffffff1673ffffffffffffffffffffffffffffffffffffffff1614613a9c576040517f08c379a000000000000000000000000000000000000000000000000000000000815260040180806020018281038252602d8152602001806157e5602d913960400191505060405180910390fd5b80601860006101000a81548160ff02191690831515021790555050565b60011515600e600084815260200190815260200160002060000160009054906101000a900460ff1615151415613b57576040517f08c379a00000000000000000000000000000000000000000000000000000000081526004018080602001828103825260208152602001807f546f6b656e20616c7265616479206176616961626c6520666f722073616c652e81525060200191505060405180910390fd5b613b6082612200565b73ffffffffffffffffffffffffffffffffffffffff163373ffffffffffffffffffffffffffffffffffffffff1614613be3576040517f08c379a0000000000000000000000000000000000000000000000000000000008152600401808060200182810382526027815260200180615b3b6027913960400191505060405180910390fd5b6001600e600084815260200190815260200160002060000160006101000a81548160ff02191690831515021790555080600e6000848152602001908152602001600020600101819055505050565b6060610800821115613c8e576040517f08c379a000000000000000000000000000000000000000000000000000000000815260040180806020018281038252602b815260200180615b62602b913960400191505060405180910390fd5b601e601360008481526020019081526020016000208054905014613cfd576040517f08c379a000000000000000000000000000000000000000000000000000000000815260040180806020018281038252602e815260200180615791602e913960400191505060405180910390fd5b60136000838152602001908152602001600020805480602002602001604051908101604052809291908181526020018280548015613d5a57602002820191906000526020600020905b815481526020019060010190808311613d46575b50505050509050919050565b6000600e6000838152602001908152602001600020600101549050919050565b60166020528060005260406000206000915090505481565b6000600560008473ffffffffffffffffffffffffffffffffffffffff1673ffffffffffffffffffffffffffffffffffffffff16815260200190815260200160002060008373ffffffffffffffffffffffffffffffffffffffff1673ffffffffffffffffffffffffffffffffffffffff16815260200190815260200160002060009054906101000a900460ff16905092915050565b3373ffffffffffffffffffffffffffffffffffffffff16601560009054906101000a900473ffffffffffffffffffffffffffffffffffffffff1673ffffffffffffffffffffffffffffffffffffffff1614613ed8576040517f08c379a000000000000000000000000000000000000000000000000000000000815260040180806020018281038252602d8152602001806157e5602d913960400191505060405180910390fd5b60003390506000613ee76122ec565b90508173ffffffffffffffffffffffffffffffffffffffff166108fc829081150290604051600060405180830381858888f19350505050158015613f2f573d6000803e3d6000fd5b505050565b600c6020528060005260406000206000915090505481565b3373ffffffffffffffffffffffffffffffffffffffff16601560009054906101000a900473ffffffffffffffffffffffffffffffffffffffff1673ffffffffffffffffffffffffffffffffffffffff1614613ff2576040517f08c379a000000000000000000000000000000000000000000000000000000000815260040180806020018281038252602d8152602001806157e5602d913960400191505060405180910390fd5b80420160178190555050565b60006140148260026148a790919063ffffffff16565b9050919050565b600033905090565b816004600083815260200190815260200160002060006101000a81548173ffffffffffffffffffffffffffffffffffffffff021916908373ffffffffffffffffffffffffffffffffffffffff160217905550808273ffffffffffffffffffffffffffffffffffffffff1661409683612200565b73ffffffffffffffffffffffffffffffffffffffff167f8c5be1e5ebec7d5bd14f71427d1e84f3dd0314c0f7b2291e5b200ac8c7c3b92560405160405180910390a45050565b60006140ea826000016148c1565b9050919050565b60006140fc82613ffe565b614151576040517f08c379a000000000000000000000000000000000000000000000000000000000815260040180806020018281038252602c815260200180615812602c913960400191505060405180910390fd5b600061415c83612200565b90508073ffffffffffffffffffffffffffffffffffffffff168473ffffffffffffffffffffffffffffffffffffffff1614806141cb57508373ffffffffffffffffffffffffffffffffffffffff166141b384611622565b73ffffffffffffffffffffffffffffffffffffffff16145b806141dc57506141db8185613d9e565b5b91505092915050565b8273ffffffffffffffffffffffffffffffffffffffff1661420582612200565b73ffffffffffffffffffffffffffffffffffffffff1614614271576040517f08c379a0000000000000000000000000000000000000000000000000000000008152600401808060200182810382526029815260200180615a4a6029913960400191505060405180910390fd5b600073ffffffffffffffffffffffffffffffffffffffff168273ffffffffffffffffffffffffffffffffffffffff1614156142f7576040517f08c379a000000000000000000000000000000000000000000000000000000000815260040180806020018281038252602481526020018061576d6024913960400191505060405180910390fd5b6143028383836148d2565b61430d600082614023565b61435e81600160008673ffffffffffffffffffffffffffffffffffffffff1673ffffffffffffffffffffffffffffffffffffffff1681526020019081526020016000206148d790919063ffffffff16565b506143b081600160008573ffffffffffffffffffffffffffffffffffffffff1673ffffffffffffffffffffffffffffffffffffffff1681526020019081526020016000206148f190919063ffffffff16565b506143c78183600261490b9092919063ffffffff16565b50808273ffffffffffffffffffffffffffffffffffffffff168473ffffffffffffffffffffffffffffffffffffffff167fddf252ad1be2c89b69c2b068fc378daa952ba7f163c4a11628f55a4df523b3ef60405160405180910390a4505050565b60006144378360000183614940565b60001c905092915050565b60008060008061445586600001866149c3565b915091508160001c8160001c8090509350935050509250929050565b6000614484846000018460001b84614a5c565b60001c90509392505050565b600061449e82600001614b52565b9050919050565b6144b08484846141e5565b6144bc84848484614b63565b614511576040517f08c379a000000000000000000000000000000000000000000000000000000000815260040180806020018281038252603281526020018061573b6032913960400191505060405180910390fd5b50505050565b600061455983836040518060400160405280601a81526020017f536166654d6174683a206469766973696f6e206279207a65726f000000000000815250614da8565b905092915050565b478111156145d7576040517f08c379a00000000000000000000000000000000000000000000000000000000081526004018080602001828103825260038152602001807f6d7367000000000000000000000000000000000000000000000000000000000081525060200191505060405180910390fd5b8173ffffffffffffffffffffffffffffffffffffffff166108fc829081150290604051600060405180830381858888f1935050505015801561461d573d6000803e3d6000fd5b505050565b60008083141561463557600090506146a2565b600082840290508284828161464657fe5b041461469d576040517f08c379a00000000000000000000000000000000000000000000000000000000081526004018080602001828103825260218152602001806159d16021913960400191505060405180910390fd5b809150505b92915050565b6146b38383836141e5565b505050565b6146d2828260405180602001604052806000815250614e6e565b5050565b6146df82613ffe565b614734576040517f08c379a000000000000000000000000000000000000000000000000000000000815260040180806020018281038252602c815260200180615a1e602c913960400191505060405180910390fd5b8060086000848152602001908152602001600020908051906020019061475b929190615650565b505050565b606060008214156147a8576040518060400160405280600181526020017f300000000000000000000000000000000000000000000000000000000000000081525090506148a2565b600082905060005b600082146147d2578080600101915050600a82816147ca57fe5b0491506147b0565b60608167ffffffffffffffff811180156147eb57600080fd5b506040519080825280601f01601f19166020018201604052801561481e5781602001600182028036833780820191505090505b50905060006001830390508593505b6000841461489a57600a848161483f57fe5b0660300160f81b8282806001900393508151811061485957fe5b60200101907effffffffffffffffffffffffffffffffffffffffffffffffffffffffffffff1916908160001a905350600a848161489257fe5b04935061482d565b819450505050505b919050565b60006148b9836000018360001b614edf565b905092915050565b600081600001805490509050919050565b505050565b60006148e9836000018360001b614f02565b905092915050565b6000614903836000018360001b614fea565b905092915050565b6000614937846000018460001b8473ffffffffffffffffffffffffffffffffffffffff1660001b61505a565b90509392505050565b6000818360000180549050116149a1576040517f08c379a00000000000000000000000000000000000000000000000000000000081526004018080602001828103825260228152602001806156f66022913960400191505060405180910390fd5b8260000182815481106149b057fe5b9060005260206000200154905092915050565b60008082846000018054905011614a25576040517f08c379a00000000000000000000000000000000000000000000000000000000081526004018080602001828103825260228152602001806159af6022913960400191505060405180910390fd5b6000846000018481548110614a3657fe5b906000526020600020906002020190508060000154816001015492509250509250929050565b60008084600101600085815260200190815260200160002054905060008114158390614b23576040517f08c379a00000000000000000000000000000000000000000000000000000000081526004018080602001828103825283818151815260200191508051906020019080838360005b83811015614ae8578082015181840152602081019050614acd565b50505050905090810190601f168015614b155780820380516001836020036101000a031916815260200191505b509250505060405180910390fd5b50846000016001820381548110614b3657fe5b9060005260206000209060020201600101549150509392505050565b600081600001805490509050919050565b6000614b848473ffffffffffffffffffffffffffffffffffffffff16615136565b614b915760019050614da0565b6060614d2763150b7a0260e01b614ba661401b565b888787604051602401808573ffffffffffffffffffffffffffffffffffffffff1673ffffffffffffffffffffffffffffffffffffffff1681526020018473ffffffffffffffffffffffffffffffffffffffff1673ffffffffffffffffffffffffffffffffffffffff16815260200183815260200180602001828103825283818151815260200191508051906020019080838360005b83811015614c56578082015181840152602081019050614c3b565b50505050905090810190601f168015614c835780820380516001836020036101000a031916815260200191505b5095505050505050604051602081830303815290604052907bffffffffffffffffffffffffffffffffffffffffffffffffffffffff19166020820180517bffffffffffffffffffffffffffffffffffffffffffffffffffffffff838183161783525050505060405180606001604052806032815260200161573b603291398773ffffffffffffffffffffffffffffffffffffffff166151819092919063ffffffff16565b90506000818060200190516020811015614d4057600080fd5b8101908080519060200190929190505050905063150b7a0260e01b7bffffffffffffffffffffffffffffffffffffffffffffffffffffffff1916817bffffffffffffffffffffffffffffffffffffffffffffffffffffffff191614925050505b949350505050565b60008083118290614e54576040517f08c379a00000000000000000000000000000000000000000000000000000000081526004018080602001828103825283818151815260200191508051906020019080838360005b83811015614e19578082015181840152602081019050614dfe565b50505050905090810190601f168015614e465780820380516001836020036101000a031916815260200191505b509250505060405180910390fd5b506000838581614e6057fe5b049050809150509392505050565b614e788383615199565b614e856000848484614b63565b614eda576040517f08c379a000000000000000000000000000000000000000000000000000000000815260040180806020018281038252603281526020018061573b6032913960400191505060405180910390fd5b505050565b600080836001016000848152602001908152602001600020541415905092915050565b60008083600101600084815260200190815260200160002054905060008114614fde5760006001820390506000600186600001805490500390506000866000018281548110614f4d57fe5b9060005260206000200154905080876000018481548110614f6a57fe5b9060005260206000200181905550600183018760010160008381526020019081526020016000208190555086600001805480614fa257fe5b60019003818190600052602060002001600090559055866001016000878152602001908152602001600020600090556001945050505050614fe4565b60009150505b92915050565b6000614ff6838361538d565b61504f578260000182908060018154018082558091505060019003906000526020600020016000909190919091505582600001805490508360010160008481526020019081526020016000208190555060019050615054565b600090505b92915050565b60008084600101600085815260200190815260200160002054905060008114156151015784600001604051806040016040528086815260200185815250908060018154018082558091505060019003906000526020600020906002020160009091909190915060008201518160000155602082015181600101555050846000018054905085600101600086815260200190815260200160002081905550600191505061512f565b8285600001600183038154811061511457fe5b90600052602060002090600202016001018190555060009150505b9392505050565b60008060007fc5d2460186f7233c927e7db2dcc703c0e500b653ca82273b7bfad8045d85a47060001b9050833f915080821415801561517857506000801b8214155b92505050919050565b606061519084846000856153b0565b90509392505050565b600073ffffffffffffffffffffffffffffffffffffffff168273ffffffffffffffffffffffffffffffffffffffff16141561523c576040517f08c379a00000000000000000000000000000000000000000000000000000000081526004018080602001828103825260208152602001807f4552433732313a206d696e7420746f20746865207a65726f206164647265737381525060200191505060405180910390fd5b61524581613ffe565b156152b8576040517f08c379a000000000000000000000000000000000000000000000000000000000815260040180806020018281038252601c8152602001807f4552433732313a20746f6b656e20616c7265616479206d696e7465640000000081525060200191505060405180910390fd5b6152c4600083836148d2565b61531581600160008573ffffffffffffffffffffffffffffffffffffffff1673ffffffffffffffffffffffffffffffffffffffff1681526020019081526020016000206148f190919063ffffffff16565b5061532c8183600261490b9092919063ffffffff16565b50808273ffffffffffffffffffffffffffffffffffffffff16600073ffffffffffffffffffffffffffffffffffffffff167fddf252ad1be2c89b69c2b068fc378daa952ba7f163c4a11628f55a4df523b3ef60405160405180910390a45050565b600080836001016000848152602001908152602001600020541415905092915050565b60606153bb85615136565b61542d576040517f08c379a000000000000000000000000000000000000000000000000000000000815260040180806020018281038252601d8152602001807f416464726573733a2063616c6c20746f206e6f6e2d636f6e747261637400000081525060200191505060405180910390fd5b600060608673ffffffffffffffffffffffffffffffffffffffff1685876040518082805190602001908083835b6020831061547d578051825260208201915060208101905060208303925061545a565b6001836020036101000a03801982511681845116808217855250505050505090500191505060006040518083038185875af1925050503d80600081146154df576040519150601f19603f3d011682016040523d82523d6000602084013e6154e4565b606091505b509150915081156154f95780925050506155ae565b60008151111561550c5780518082602001fd5b836040517f08c379a00000000000000000000000000000000000000000000000000000000081526004018080602001828103825283818151815260200191508051906020019080838360005b83811015615573578082015181840152602081019050615558565b50505050905090810190601f1680156155a05780820380516001836020036101000a031916815260200191505b509250505060405180910390fd5b949350505050565b8280548282559060005260206000209081019282156155f2579160200282015b828111156155f15782518255916020019190600101906155d6565b5b5090506155ff91906156d0565b5090565b82805482825590600052602060002090810192821561563f579160200282015b8281111561563e578251825591602001919060010190615623565b5b50905061564c91906156d0565b5090565b828054600181600116156101000203166002900490600052602060002090601f016020900481019282601f1061569157805160ff19168380011785556156bf565b828001600101855582156156bf579182015b828111156156be5782518255916020019190600101906156a3565b5b5090506156cc91906156d0565b5090565b6156f291905b808211156156ee5760008160009055506001016156d6565b5090565b9056fe456e756d657261626c655365743a20696e646578206f7574206f6620626f756e6473596f752063616e6e6f742073656c6c20746f6b656e7320746f20796f757273656c662e4552433732313a207472616e7366657220746f206e6f6e20455243373231526563656976657220696d706c656d656e7465724552433732313a207472616e7366657220746f20746865207a65726f20616464726573734e465420666f722074686520737570706c69656420746f6b656e4964206973206e6f74206d696e746564207965744e6577207061747465726e2069732073616d65206173207468652063757272656e74206f6e654f6e6c79206f776e657220697320617574686f72697a656420666f722074686973207472616e73616374696f6e4552433732313a206f70657261746f7220717565727920666f72206e6f6e6578697374656e7420746f6b656e45746865722076616c756520697320696e636f72726563742c20706c656173652073656e6420636f727265637420616d6f756e744552433732313a20617070726f76652063616c6c6572206973206e6f74206f776e6572206e6f7220617070726f76656420666f7220616c6c596f752063616e206d696e74206f6e6c792031206f722032206f72203320746f6b656e7320696e206f6e65206f7065726174696f6e2e4552433732313a2062616c616e636520717565727920666f7220746865207a65726f20616464726573734552433732313a206f776e657220717565727920666f72206e6f6e6578697374656e7420746f6b656e4f6e6c7920736b696e206f776e65722063616e207669657720746865697220736b696e732e68747470733a2f2f676174657761792e70696e6174612e636c6f75642f697066732f516d57367662574172754555416151596a48425a423178676375744165775668526843465733505554523570546a2f312e6a736f6e456e756d657261626c654d61703a20696e646578206f7574206f6620626f756e6473536166654d6174683a206d756c7469706c69636174696f6e206f766572666c6f774552433732313a20617070726f76656420717565727920666f72206e6f6e6578697374656e7420746f6b656e4552433732314d657461646174613a2055524920736574206f66206e6f6e6578697374656e7420746f6b656e4552433732313a207472616e73666572206f6620746f6b656e2074686174206973206e6f74206f776e4552433732314d657461646174613a2055524920717565727920666f72206e6f6e6578697374656e7420746f6b656e4552433732313a20617070726f76616c20746f2063757272656e74206f776e657276616c75652073656e74206973206e6f7420657175616c20746f207468652070726963654d6178203320746f6b656e732063616e206265206d696e7465642070657220757365724552433732313a207472616e736665722063616c6c6572206973206e6f74206f776e6572206e6f7220617070726f7665644f6e6c7920746865206f776e65722063616e206d61726b206974656d7320666f722073616c652e546f6b656e2049642073686f756c64206265206c657373207468616e206d6178696d756d20737570706c7943616e6e6f74206d696e74206d6f7265204e46542c203230343820697320746865206d6178204e465420737570706c79206c696d6974a2646970667358221220848f9b298d721a732cc26b6c725313a2a739644b1285eefb1360f6b8ed1ade6564736f6c63430006060033",
  "immutableReferences": {},
  "source": "// SPDX-License-Identifier: MIT\npragma solidity ^0.6.6;\n\nimport \"@openzeppelin/contracts/token/ERC721/ERC721.sol\";\n\ninterface Token20 {\n    //This will set the birth time of NFT in ICT contract\n    function setBirthOfNFT(uint256 _tokenId, uint256 _time) external;\n\n    /**\n     * @dev Returns the amount of tokens in existence.\n     */\n    function totalSupply() external view returns (uint256);\n\n    /**\n     * @dev Returns the amount of tokens owned by `account`.\n     */\n    function balanceOf(address account) external view returns (uint256);\n\n    /**\n     * @dev Moves `amount` tokens from the caller's account to `recipient`.\n     *\n     * Returns a boolean value indicating whether the operation succeeded.\n     *\n     * Emits a {Transfer} event.\n     */\n    function transfer(address recipient, uint256 amount)\n        external\n        returns (bool);\n\n    /**\n     * @dev Returns the remaining number of tokens that `spender` will be\n     * allowed to spend on behalf of `owner` through {transferFrom}. This is\n     * zero by default.\n     *\n     * This value changes when {approve} or {transferFrom} are called.\n     */\n    function allowance(address owner, address spender)\n        external\n        view\n        returns (uint256);\n\n    /**\n     * @dev Sets `amount` as the allowance of `spender` over the caller's tokens.\n     *\n     * Returns a boolean value indicating whether the operation succeeded.\n     *\n     * IMPORTANT: Beware that changing an allowance with this method brings the risk\n     * that someone may use both the old and the new allowance by unfortunate\n     * transaction ordering. One possible solution to mitigate this race\n     * condition is to first reduce the spender's allowance to 0 and set the\n     * desired value afterwards:\n     * https://github.com/ethereum/EIPs/issues/20#issuecomment-263524729\n     *\n     * Emits an {Approval} event.\n     */\n    function approve(\n        address owner,\n        address spender,\n        uint256 amount\n    ) external returns (bool);\n\n    /**\n     * @dev Moves `amount` tokens from `sender` to `recipient` using the\n     * allowance mechanism. `amount` is then deducted from the caller's\n     * allowance.\n     *\n     * Returns a boolean value indicating whether the operation succeeded.\n     *\n     * Emits a {Transfer} event.\n     */\n    function transferFrom(\n        address sender,\n        address recipient,\n        uint256 amount\n    ) external returns (bool);\n\n    /**\n     * TODO: Add comment\n     */\n    function burn(uint256 burnQuantity) external returns (bool);\n\n    /**\n     * @dev Emitted when `value` tokens are moved from one account (`from`) to\n     * another (`to`).\n     *\n     * Note that `value` may be zero.\n     */\n    event Transfer(address indexed from, address indexed to, uint256 value);\n\n    /**\n     * @dev Emitted when the allowance of a `spender` for an `owner` is set by\n     * a call to {approve}. `value` is the new allowance.\n     */\n    event Approval(\n        address indexed owner,\n        address indexed spender,\n        uint256 value\n    );\n}\n\ncontract LedNFT is ERC721 {\n    using SafeMath for uint256;\n    mapping(uint256 => bool) public numNotAllowed;\n    mapping(uint256 => address payable) public initialOwner;\n\n    // tokens minted by an address\n    mapping(address => uint256) public mintCount;\n    uint256[] mintedIds;\n\n    struct tokenSaleStat {\n        bool forSale;\n        uint256 price;\n    }\n    mapping(uint256 => tokenSaleStat) public tokenSaleData;\n\n    uint256 nonce = 0;\n\n    event MintedNFT(address indexed _owner, uint256 indexed _tokenId);\n\n    // owners and their pulse and seed\n    struct pulseData {\n        uint256[] pulse;\n        uint256 seed;\n    }\n\n    // owner of skin\n    mapping(bytes32 => address) public skinOwner;\n\n    // skin to pulseData\n    mapping(bytes32 => pulseData) public skinToPulse;\n\n    // token to skins\n    mapping(uint256 => bytes32[]) public tokenSkin;\n\n    //mapping for NFT tokendID to blinking pattern\n    mapping(uint256 => uint256[]) public ledNFTBlinkPattern;\n\n    //Store the ICT token contract address\n    address public ICTContractAddress;\n\n    //owner of the contract\n    address public owner;\n\n    //mapping of address to their minted token count\n    mapping(address => uint256) public ownerTotalTokensMintCount;\n\n    //end time for minting NFT once the timer is started\n    uint256 public endTime;\n\n    //It stores the pause/unpause status of minting (owner can pause/unpause the minting)\n    bool public isMintingActive;\n\n    //Maximum NFT supply\n    uint256 public constant MAX_NFT_SUPPLY = 2048;\n\n    //1 ICT token is required to change the LED NFT blink pattern\n    uint256 public constant BLINK_PATTERN_CHANGE_PRICE = 1 * 10**18;\n\n    modifier onlyOwner() {\n        require(\n            owner == msg.sender,\n            \"Only owner is authorized for this transaction\"\n        );\n        _;\n    }\n\n    // mapping(uint256 => string) private _tokenURIs;\n\n    constructor(address _ictAddress) public ERC721(\"LedNFT\", \"LED\") {\n        ICTContractAddress = _ictAddress;\n        owner = msg.sender;\n        isMintingActive = false;\n        endTime = 0;\n        // _setBaseURI();\n    }\n\n    //Function accepts epoch time as parameter which will be added to the current epoch time and timer will be started\n    function startTimerForNFTMinting(uint256 _endTimeLimit) public onlyOwner {\n        endTime = block.timestamp + _endTimeLimit;\n    }\n\n    //Function to pause and unpause minting process\n    function pauseUnpauseMinting(bool _status) public onlyOwner {\n        isMintingActive = _status;\n    }\n\n    //function to get the NFT price based on the supplied NFT's\n    function getNFTPrice(uint256 _nos) public view returns (uint256) {\n        require(endTime >= block.timestamp, \"Sale is over!\");\n        require(totalSupply() <= MAX_NFT_SUPPLY, \"All NFT's are minted\");\n\n        uint256 priceOfOneToken = 0.8 * 10**18;\n\n        return _nos * priceOfOneToken;\n    }\n\n    //Get contract balance\n    function getContractBalance() public view onlyOwner returns (uint256) {\n        return address(this).balance;\n    }\n\n    //Get the blinking pattern for any LED NFT\n    function getBlinkPatternOfTokenID(uint256 _tokenId)\n        public\n        view\n        returns (uint256[] memory)\n    {\n        require(\n            _tokenId <= MAX_NFT_SUPPLY,\n            \"Token Id should be less than maximum supply\"\n        );\n        require(\n            ledNFTBlinkPattern[_tokenId].length == 30,\n            \"NFT for the supplied tokenId is not minted yet\"\n        );\n        return ledNFTBlinkPattern[_tokenId];\n    }\n\n    //method to mint LED NFT tokens for msg.sender\n    function mintToken(uint256 _nos) public payable {\n        require(\n            _nos >= 1 && _nos <= 3,\n            \"You can mint only 1 or 2 or 3 tokens in one operation.\"\n        );\n        for (uint8 j = 0; j < _nos; j++) {\n            require(isMintingActive == true, \"Minting is Paused!\");\n\n            require(endTime >= block.timestamp, \"Sale is over!\");\n\n            require(\n                ownerTotalTokensMintCount[msg.sender] < 3,\n                \"Max 3 tokens can be minted per user\"\n            );\n\n            require(\n                totalSupply() < MAX_NFT_SUPPLY,\n                \"Cannot mint more NFT, 2048 is the max NFT supply limit\"\n            );\n\n            require(\n                getNFTPrice(_nos) == msg.value,\n                \"Ether value is incorrect, please send correct amount\"\n            );\n\n            // uint256 tokenId = totalSupply() + 1;\n            uint256 tokenId = 0;\n            uint256 randomNumber = uint256(\n                keccak256(abi.encodePacked(now, msg.sender, nonce))\n            ) % 2048;\n            randomNumber = randomNumber + 1;\n            nonce++;\n\n            do {\n                if (numNotAllowed[randomNumber] == true) {\n                    randomNumber = (randomNumber + 1) % 2049;\n                    if (randomNumber == 0) {\n                        randomNumber = randomNumber + 1;\n                    }\n                } else {\n                    numNotAllowed[randomNumber] = true;\n                    tokenId = randomNumber;\n                    break;\n                }\n            } while (tokenId == 0);\n\n            // forSale[_tokenId] = false;\n            mintCount[msg.sender] += 1;\n            initialOwner[tokenId] = msg.sender;\n            ++ownerTotalTokensMintCount[msg.sender];\n            mintedIds.push(tokenId);\n\n            //Generating random LED blink pattern array\n            for (uint256 i = 0; i < 30; i++) {\n                ledNFTBlinkPattern[tokenId].push(\n                    uint256(\n                        keccak256(\n                            abi.encodePacked(\n                                msg.sender,\n                                block.timestamp,\n                                block.difficulty,\n                                i\n                            )\n                        )\n                    ) % 101\n                );\n            }\n\n            // pulseOwner[msg.sender].pulse = getBlinkPatternOfTokenID(tokenId);\n            // pulseOwner[msg.sender].seed = nseed;\n\n            // generating a unique seed\n            uint256 nseed = uint256(\n                keccak256(abi.encodePacked(tokenId, block.timestamp))\n            );\n\n            // pulse\n            uint256[] memory npulse = getBlinkPatternOfTokenID(tokenId);\n            // use built array\n\n            // calculate skin\n            bytes32 skin = keccak256(abi.encodePacked(npulse, nseed));\n\n            // record history of skin - token to string\n            tokenSkin[tokenId].push(skin);\n\n            skinOwner[skin] = msg.sender;\n\n            // skin to its data\n            skinToPulse[skin].pulse = npulse;\n            skinToPulse[skin].seed = nseed;\n\n            //set birth time of NFT in ICT contract, this will be used in calculation of claim ICT amount\n            Token20(ICTContractAddress).setBirthOfNFT(tokenId, block.timestamp);\n\n            //Mint ERC721\n            _safeMint(msg.sender, tokenId);\n            _setTokenURI(\n                tokenId,\n                \"https://gateway.pinata.cloud/ipfs/QmW6vbWAruEUAaQYjHBZB1xgcutAewVhRhCFW3PUTR5pTj/1.json\"\n            );\n            emit MintedNFT(msg.sender, tokenId);\n        }\n    }\n\n    function changeLEDBlinkPattern(\n        uint256 _tokenId,\n        uint256[30] memory _newPattern\n    ) public {\n        address ownerOfToken = ownerOf(_tokenId);\n        require(ownerOfToken == msg.sender, \"Not authorised\");\n        require(\n            Token20(ICTContractAddress).balanceOf(msg.sender) >=\n                BLINK_PATTERN_CHANGE_PRICE,\n            \"Not enough balance\"\n        );\n        require(\n            keccak256(abi.encodePacked(_newPattern)) !=\n                keccak256(abi.encodePacked(getBlinkPatternOfTokenID(_tokenId))),\n            \"New pattern is same as the current one\"\n        );\n\n        //validate blink pattern\n        for (uint256 i = 0; i < 30; i++) {\n            if (!(_newPattern[i] >= 0 && _newPattern[i] <= 100)) {\n                revert(\"Invalid blink pattern\");\n            }\n        }\n\n        ledNFTBlinkPattern[_tokenId] = _newPattern;\n\n        // new seed\n        uint256 nseed = uint256(\n            keccak256(abi.encodePacked(_tokenId, block.timestamp))\n        );\n\n        // calculate skin\n        bytes32 skin = keccak256(abi.encodePacked(_newPattern, nseed));\n\n        // record history of skin - token to string\n        tokenSkin[_tokenId].push(skin);\n\n        skinOwner[skin] = msg.sender;\n\n        // skin to its data\n        skinToPulse[skin].pulse = _newPattern;\n        skinToPulse[skin].seed = nseed;\n\n        Token20(ICTContractAddress).approve(\n            msg.sender,\n            address(this),\n            BLINK_PATTERN_CHANGE_PRICE\n        );\n        bool res1 = Token20(ICTContractAddress).transferFrom(\n            msg.sender,\n            address(this),\n            BLINK_PATTERN_CHANGE_PRICE\n        );\n\n        require(res1, \"Failed to transfer ICT\");\n    }\n\n    //Owner can withdraw the Ethers collected via NFT minting\n    function withdrawCollectedEther() public onlyOwner {\n        address payable addr = payable(msg.sender);\n        uint256 amount = getContractBalance();\n        addr.transfer(amount);\n    }\n\n    // ////////////////\n    function mintedTokens(address _address) public view returns (uint256) {\n        return mintCount[_address];\n    }\n\n    //\n\n    function markForSale(uint256 _tokenId, uint256 _price) public {\n        require(\n            tokenSaleData[_tokenId].forSale != true,\n            \"Token already avaiable for sale.\"\n        );\n        require(\n            msg.sender == ownerOf(_tokenId),\n            \"Only the owner can mark items for sale.\"\n        );\n        tokenSaleData[_tokenId].forSale = true;\n        tokenSaleData[_tokenId].price = _price;\n    }\n\n    function getPriceOfToken(uint256 _tokenId) public view returns (uint256) {\n        return tokenSaleData[_tokenId].price;\n    }\n\n    function isAvailableForSale(uint256 _tokenId) public view returns (bool) {\n        return tokenSaleData[_tokenId].forSale;\n    }\n\n    // buyer side\n    function sendMoney(address payable _to, uint256 _value) private {\n        require(_value <= address(this).balance, \"msg\");\n        _to.transfer(_value);\n    }\n\n    function transferPurchasedToken(\n        address from,\n        address to,\n        uint256 tokenId\n    ) private {\n        _transfer(from, to, tokenId);\n    }\n\n    // buy function\n    function purchaseToken(uint256 _tokenId) public payable {\n        require(\n            isAvailableForSale(_tokenId) == true,\n            \"Token not availale for sale\"\n        );\n        require(\n            getPriceOfToken(_tokenId) == msg.value,\n            \"value sent is not equal to the price\"\n        );\n        require(\n            ownerOf(_tokenId) != msg.sender,\n            \"You cannot sell tokens to yourself.\"\n        );\n\n        uint256 value = msg.value;\n\n        // transfer 10% of msg.value to owner\n        uint256 _10value = value.div(10);\n        sendMoney(initialOwner[_tokenId], _10value);\n\n        // transfer 90% to new owner\n        uint256 _90value = (value.mul(9)) / 10;\n        sendMoney(payable(ownerOf(_tokenId)), _90value);\n\n        // unmark from sale\n        tokenSaleData[_tokenId].price = 0;\n        tokenSaleData[_tokenId].forSale = false;\n\n        // transfer token ot buyer\n        transferPurchasedToken(ownerOf(_tokenId), msg.sender, _tokenId);\n    }\n\n    // list of all ids in circulation\n    function allMintedId() public view returns (uint256[] memory) {\n        return mintedIds;\n    }\n\n    // get all skins of a token\n    function getSkinsOfToken(uint256 _tokenId)\n        public\n        view\n        returns (bytes32[] memory)\n    {\n        require(\n            msg.sender == ownerOf(_tokenId),\n            \"You can only view your own skins\"\n        );\n        return tokenSkin[_tokenId];\n    }\n\n    function getpulseNSeed(bytes32 _skin)\n        public\n        view\n        returns (uint256[] memory, uint256)\n    {\n        require(\n            msg.sender == skinOwner[_skin],\n            \"Only skin owner can view their skins.\"\n        );\n\n        return (skinToPulse[_skin].pulse, skinToPulse[_skin].seed);\n    }\n\n    // opensea methods\n    // function _setBaseURI() internal override {\n    //     _baseURI = \"ipfs://QmW6vbWAruEUAaQYjHBZB1xgcutAewVhRhCFW3PUTR5pTj\";\n    // }\n\n    // function _setTokenURI(uint256 tokenId, string memory _tokenURI) internal override {\n    //     require(\n    //         _exists(tokenId),\n    //         \"ERC721Metadata: URI set of nonexistent token\"\n    //     );\n    //     _tokenURIs[\n    //         tokenId\n    //     ] = \"https://gateway.pinata.cloud/ipfs/QmW6vbWAruEUAaQYjHBZB1xgcutAewVhRhCFW3PUTR5pTj/1.json\";\n    // }\n\n    // opensea method\n    // function tokenURI(uint256 _tokenId) public view override returns (string memory) {\n    //     return \"https://gateway.pinata.cloud/ipfs/QmdBRTXNt5vWpMxun8CpM9bDmxFdzro3oq7n3KPFfNriyk/1.jpg\";\n    // }\n}\n",
  "sourcePath": "/home/vdcodes/internship/NFT/nft-truffle/src/contracts/LedNFT.sol",
  "compiler": {
    "name": "solc",
    "version": "0.6.6+commit.6c089d02.Emscripten.clang"
  },
  "schemaVersion": "3.4.3",
  "updatedAt": "2021-12-13T17:33:15.573Z",
  "networkType": "ethereum",
  "devdoc": {
    "methods": {
      "approve(address,uint256)": {
        "details": "See {IERC721-approve}."
      },
      "balanceOf(address)": {
        "details": "See {IERC721-balanceOf}."
      },
      "baseURI()": {
        "details": "Returns the base URI set via {_setBaseURI}. This will be automatically added as a prefix in {tokenURI} to each token's URI, or to the token ID if no specific URI is set for that token ID."
      },
      "getApproved(uint256)": {
        "details": "See {IERC721-getApproved}."
      },
      "isApprovedForAll(address,address)": {
        "details": "See {IERC721-isApprovedForAll}."
      },
      "name()": {
        "details": "See {IERC721Metadata-name}."
      },
      "ownerOf(uint256)": {
        "details": "See {IERC721-ownerOf}."
      },
      "safeTransferFrom(address,address,uint256)": {
        "details": "See {IERC721-safeTransferFrom}."
      },
      "safeTransferFrom(address,address,uint256,bytes)": {
        "details": "See {IERC721-safeTransferFrom}."
      },
      "setApprovalForAll(address,bool)": {
        "details": "See {IERC721-setApprovalForAll}."
      },
      "supportsInterface(bytes4)": {
        "details": "See {IERC165-supportsInterface}.     * Time complexity O(1), guaranteed to always use less than 30 000 gas."
      },
      "symbol()": {
        "details": "See {IERC721Metadata-symbol}."
      },
      "tokenByIndex(uint256)": {
        "details": "See {IERC721Enumerable-tokenByIndex}."
      },
      "tokenOfOwnerByIndex(address,uint256)": {
        "details": "See {IERC721Enumerable-tokenOfOwnerByIndex}."
      },
      "tokenURI(uint256)": {
        "details": "See {IERC721Metadata-tokenURI}."
      },
      "totalSupply()": {
        "details": "See {IERC721Enumerable-totalSupply}."
      },
      "transferFrom(address,address,uint256)": {
        "details": "See {IERC721-transferFrom}."
      }
    }
  },
  "userdoc": {
    "methods": {}
  }
}