{
  "contractName": "LedNFT",
  "abi": [
    {
      "inputs": [
        {
          "internalType": "address",
          "name": "_ictAddress",
          "type": "address"
        }
      ],
      "stateMutability": "nonpayable",
      "type": "constructor"
    },
    {
      "anonymous": false,
      "inputs": [
        {
          "indexed": true,
          "internalType": "address",
          "name": "owner",
          "type": "address"
        },
        {
          "indexed": true,
          "internalType": "address",
          "name": "approved",
          "type": "address"
        },
        {
          "indexed": true,
          "internalType": "uint256",
          "name": "tokenId",
          "type": "uint256"
        }
      ],
      "name": "Approval",
      "type": "event"
    },
    {
      "anonymous": false,
      "inputs": [
        {
          "indexed": true,
          "internalType": "address",
          "name": "owner",
          "type": "address"
        },
        {
          "indexed": true,
          "internalType": "address",
          "name": "operator",
          "type": "address"
        },
        {
          "indexed": false,
          "internalType": "bool",
          "name": "approved",
          "type": "bool"
        }
      ],
      "name": "ApprovalForAll",
      "type": "event"
    },
    {
      "anonymous": false,
      "inputs": [
        {
          "indexed": true,
          "internalType": "address",
          "name": "_owner",
          "type": "address"
        },
        {
          "indexed": true,
          "internalType": "uint256",
          "name": "_tokenId",
          "type": "uint256"
        }
      ],
      "name": "MintedNFT",
      "type": "event"
    },
    {
      "anonymous": false,
      "inputs": [
        {
          "indexed": true,
          "internalType": "address",
          "name": "from",
          "type": "address"
        },
        {
          "indexed": true,
          "internalType": "address",
          "name": "to",
          "type": "address"
        },
        {
          "indexed": true,
          "internalType": "uint256",
          "name": "tokenId",
          "type": "uint256"
        }
      ],
      "name": "Transfer",
      "type": "event"
    },
    {
      "inputs": [],
      "name": "BLINK_PATTERN_CHANGE_PRICE",
      "outputs": [
        {
          "internalType": "uint256",
          "name": "",
          "type": "uint256"
        }
      ],
      "stateMutability": "view",
      "type": "function",
      "constant": true
    },
    {
      "inputs": [],
      "name": "ICTContractAddress",
      "outputs": [
        {
          "internalType": "address",
          "name": "",
          "type": "address"
        }
      ],
      "stateMutability": "view",
      "type": "function",
      "constant": true
    },
    {
      "inputs": [],
      "name": "MAX_NFT_SUPPLY",
      "outputs": [
        {
          "internalType": "uint256",
          "name": "",
          "type": "uint256"
        }
      ],
      "stateMutability": "view",
      "type": "function",
      "constant": true
    },
    {
      "inputs": [
        {
          "internalType": "address",
          "name": "to",
          "type": "address"
        },
        {
          "internalType": "uint256",
          "name": "tokenId",
          "type": "uint256"
        }
      ],
      "name": "approve",
      "outputs": [],
      "stateMutability": "nonpayable",
      "type": "function"
    },
    {
      "inputs": [
        {
          "internalType": "address",
          "name": "owner",
          "type": "address"
        }
      ],
      "name": "balanceOf",
      "outputs": [
        {
          "internalType": "uint256",
          "name": "",
          "type": "uint256"
        }
      ],
      "stateMutability": "view",
      "type": "function",
      "constant": true
    },
    {
      "inputs": [],
      "name": "baseURI",
      "outputs": [
        {
          "internalType": "string",
          "name": "",
          "type": "string"
        }
      ],
      "stateMutability": "view",
      "type": "function",
      "constant": true
    },
    {
      "inputs": [],
      "name": "endTime",
      "outputs": [
        {
          "internalType": "uint256",
          "name": "",
          "type": "uint256"
        }
      ],
      "stateMutability": "view",
      "type": "function",
      "constant": true
    },
    {
      "inputs": [
        {
          "internalType": "uint256",
          "name": "tokenId",
          "type": "uint256"
        }
      ],
      "name": "getApproved",
      "outputs": [
        {
          "internalType": "address",
          "name": "",
          "type": "address"
        }
      ],
      "stateMutability": "view",
      "type": "function",
      "constant": true
    },
    {
      "inputs": [
        {
          "internalType": "uint256",
          "name": "",
          "type": "uint256"
        }
      ],
      "name": "initialOwner",
      "outputs": [
        {
          "internalType": "address payable",
          "name": "",
          "type": "address"
        }
      ],
      "stateMutability": "view",
      "type": "function",
      "constant": true
    },
    {
      "inputs": [
        {
          "internalType": "address",
          "name": "owner",
          "type": "address"
        },
        {
          "internalType": "address",
          "name": "operator",
          "type": "address"
        }
      ],
      "name": "isApprovedForAll",
      "outputs": [
        {
          "internalType": "bool",
          "name": "",
          "type": "bool"
        }
      ],
      "stateMutability": "view",
      "type": "function",
      "constant": true
    },
    {
      "inputs": [],
      "name": "isMintingActive",
      "outputs": [
        {
          "internalType": "bool",
          "name": "",
          "type": "bool"
        }
      ],
      "stateMutability": "view",
      "type": "function",
      "constant": true
    },
    {
      "inputs": [
        {
          "internalType": "uint256",
          "name": "",
          "type": "uint256"
        },
        {
          "internalType": "uint256",
          "name": "",
          "type": "uint256"
        }
      ],
      "name": "ledNFTBlinkPattern",
      "outputs": [
        {
          "internalType": "uint256",
          "name": "",
          "type": "uint256"
        }
      ],
      "stateMutability": "view",
      "type": "function",
      "constant": true
    },
    {
      "inputs": [
        {
          "internalType": "address",
          "name": "",
          "type": "address"
        }
      ],
      "name": "mintCount",
      "outputs": [
        {
          "internalType": "uint256",
          "name": "",
          "type": "uint256"
        }
      ],
      "stateMutability": "view",
      "type": "function",
      "constant": true
    },
    {
      "inputs": [],
      "name": "name",
      "outputs": [
        {
          "internalType": "string",
          "name": "",
          "type": "string"
        }
      ],
      "stateMutability": "view",
      "type": "function",
      "constant": true
    },
    {
      "inputs": [
        {
          "internalType": "uint256",
          "name": "",
          "type": "uint256"
        }
      ],
      "name": "numNotAllowed",
      "outputs": [
        {
          "internalType": "bool",
          "name": "",
          "type": "bool"
        }
      ],
      "stateMutability": "view",
      "type": "function",
      "constant": true
    },
    {
      "inputs": [],
      "name": "owner",
      "outputs": [
        {
          "internalType": "address",
          "name": "",
          "type": "address"
        }
      ],
      "stateMutability": "view",
      "type": "function",
      "constant": true
    },
    {
      "inputs": [
        {
          "internalType": "uint256",
          "name": "tokenId",
          "type": "uint256"
        }
      ],
      "name": "ownerOf",
      "outputs": [
        {
          "internalType": "address",
          "name": "",
          "type": "address"
        }
      ],
      "stateMutability": "view",
      "type": "function",
      "constant": true
    },
    {
      "inputs": [
        {
          "internalType": "address",
          "name": "",
          "type": "address"
        }
      ],
      "name": "ownerTotalTokensMintCount",
      "outputs": [
        {
          "internalType": "uint256",
          "name": "",
          "type": "uint256"
        }
      ],
      "stateMutability": "view",
      "type": "function",
      "constant": true
    },
    {
      "inputs": [
        {
          "internalType": "address",
          "name": "from",
          "type": "address"
        },
        {
          "internalType": "address",
          "name": "to",
          "type": "address"
        },
        {
          "internalType": "uint256",
          "name": "tokenId",
          "type": "uint256"
        }
      ],
      "name": "safeTransferFrom",
      "outputs": [],
      "stateMutability": "nonpayable",
      "type": "function"
    },
    {
      "inputs": [
        {
          "internalType": "address",
          "name": "from",
          "type": "address"
        },
        {
          "internalType": "address",
          "name": "to",
          "type": "address"
        },
        {
          "internalType": "uint256",
          "name": "tokenId",
          "type": "uint256"
        },
        {
          "internalType": "bytes",
          "name": "_data",
          "type": "bytes"
        }
      ],
      "name": "safeTransferFrom",
      "outputs": [],
      "stateMutability": "nonpayable",
      "type": "function"
    },
    {
      "inputs": [
        {
          "internalType": "address",
          "name": "operator",
          "type": "address"
        },
        {
          "internalType": "bool",
          "name": "approved",
          "type": "bool"
        }
      ],
      "name": "setApprovalForAll",
      "outputs": [],
      "stateMutability": "nonpayable",
      "type": "function"
    },
    {
      "inputs": [
        {
          "internalType": "bytes32",
          "name": "",
          "type": "bytes32"
        }
      ],
      "name": "skinOwner",
      "outputs": [
        {
          "internalType": "address",
          "name": "",
          "type": "address"
        }
      ],
      "stateMutability": "view",
      "type": "function",
      "constant": true
    },
    {
      "inputs": [
        {
          "internalType": "bytes32",
          "name": "",
          "type": "bytes32"
        }
      ],
      "name": "skinToPulse",
      "outputs": [
        {
          "internalType": "uint256",
          "name": "seed",
          "type": "uint256"
        }
      ],
      "stateMutability": "view",
      "type": "function",
      "constant": true
    },
    {
      "inputs": [
        {
          "internalType": "bytes4",
          "name": "interfaceId",
          "type": "bytes4"
        }
      ],
      "name": "supportsInterface",
      "outputs": [
        {
          "internalType": "bool",
          "name": "",
          "type": "bool"
        }
      ],
      "stateMutability": "view",
      "type": "function",
      "constant": true
    },
    {
      "inputs": [],
      "name": "symbol",
      "outputs": [
        {
          "internalType": "string",
          "name": "",
          "type": "string"
        }
      ],
      "stateMutability": "view",
      "type": "function",
      "constant": true
    },
    {
      "inputs": [
        {
          "internalType": "uint256",
          "name": "index",
          "type": "uint256"
        }
      ],
      "name": "tokenByIndex",
      "outputs": [
        {
          "internalType": "uint256",
          "name": "",
          "type": "uint256"
        }
      ],
      "stateMutability": "view",
      "type": "function",
      "constant": true
    },
    {
      "inputs": [
        {
          "internalType": "uint256",
          "name": "",
          "type": "uint256"
        }
      ],
      "name": "tokenHash",
      "outputs": [
        {
          "internalType": "bytes32",
          "name": "",
          "type": "bytes32"
        }
      ],
      "stateMutability": "view",
      "type": "function",
      "constant": true
    },
    {
      "inputs": [
        {
          "internalType": "address",
          "name": "owner",
          "type": "address"
        },
        {
          "internalType": "uint256",
          "name": "index",
          "type": "uint256"
        }
      ],
      "name": "tokenOfOwnerByIndex",
      "outputs": [
        {
          "internalType": "uint256",
          "name": "",
          "type": "uint256"
        }
      ],
      "stateMutability": "view",
      "type": "function",
      "constant": true
    },
    {
      "inputs": [
        {
          "internalType": "uint256",
          "name": "",
          "type": "uint256"
        }
      ],
      "name": "tokenSaleData",
      "outputs": [
        {
          "internalType": "bool",
          "name": "forSale",
          "type": "bool"
        },
        {
          "internalType": "uint256",
          "name": "price",
          "type": "uint256"
        }
      ],
      "stateMutability": "view",
      "type": "function",
      "constant": true
    },
    {
      "inputs": [
        {
          "internalType": "uint256",
          "name": "",
          "type": "uint256"
        },
        {
          "internalType": "uint256",
          "name": "",
          "type": "uint256"
        }
      ],
      "name": "tokenSkin",
      "outputs": [
        {
          "internalType": "bytes32",
          "name": "",
          "type": "bytes32"
        }
      ],
      "stateMutability": "view",
      "type": "function",
      "constant": true
    },
    {
      "inputs": [
        {
          "internalType": "uint256",
          "name": "tokenId",
          "type": "uint256"
        }
      ],
      "name": "tokenURI",
      "outputs": [
        {
          "internalType": "string",
          "name": "",
          "type": "string"
        }
      ],
      "stateMutability": "view",
      "type": "function",
      "constant": true
    },
    {
      "inputs": [],
      "name": "totalSupply",
      "outputs": [
        {
          "internalType": "uint256",
          "name": "",
          "type": "uint256"
        }
      ],
      "stateMutability": "view",
      "type": "function",
      "constant": true
    },
    {
      "inputs": [
        {
          "internalType": "address",
          "name": "from",
          "type": "address"
        },
        {
          "internalType": "address",
          "name": "to",
          "type": "address"
        },
        {
          "internalType": "uint256",
          "name": "tokenId",
          "type": "uint256"
        }
      ],
      "name": "transferFrom",
      "outputs": [],
      "stateMutability": "nonpayable",
      "type": "function"
    },
    {
      "inputs": [
        {
          "internalType": "uint256",
          "name": "_endTimeLimit",
          "type": "uint256"
        }
      ],
      "name": "startTimerForNFTMinting",
      "outputs": [],
      "stateMutability": "nonpayable",
      "type": "function"
    },
    {
      "inputs": [
        {
          "internalType": "bool",
          "name": "_status",
          "type": "bool"
        }
      ],
      "name": "pauseUnpauseMinting",
      "outputs": [],
      "stateMutability": "nonpayable",
      "type": "function"
    },
    {
      "inputs": [
        {
          "internalType": "uint256",
          "name": "_nos",
          "type": "uint256"
        }
      ],
      "name": "getNFTPrice",
      "outputs": [
        {
          "internalType": "uint256",
          "name": "",
          "type": "uint256"
        }
      ],
      "stateMutability": "view",
      "type": "function",
      "constant": true
    },
    {
      "inputs": [],
      "name": "getContractBalance",
      "outputs": [
        {
          "internalType": "uint256",
          "name": "",
          "type": "uint256"
        }
      ],
      "stateMutability": "view",
      "type": "function",
      "constant": true
    },
    {
      "inputs": [
        {
          "internalType": "uint256",
          "name": "_tokenId",
          "type": "uint256"
        }
      ],
      "name": "getBlinkPatternOfTokenID",
      "outputs": [
        {
          "internalType": "uint256[]",
          "name": "",
          "type": "uint256[]"
        }
      ],
      "stateMutability": "view",
      "type": "function",
      "constant": true
    },
    {
      "inputs": [
        {
          "internalType": "uint256",
          "name": "_nos",
          "type": "uint256"
        }
      ],
      "name": "mintToken",
      "outputs": [],
      "stateMutability": "payable",
      "type": "function",
      "payable": true
    },
    {
      "inputs": [
        {
          "internalType": "uint256",
          "name": "_tokenId",
          "type": "uint256"
        },
        {
          "internalType": "uint256[30]",
          "name": "_newPattern",
          "type": "uint256[30]"
        }
      ],
      "name": "changeLEDBlinkPattern",
      "outputs": [],
      "stateMutability": "nonpayable",
      "type": "function"
    },
    {
      "inputs": [],
      "name": "withdrawCollectedEther",
      "outputs": [],
      "stateMutability": "nonpayable",
      "type": "function"
    },
    {
      "inputs": [
        {
          "internalType": "address",
          "name": "_address",
          "type": "address"
        }
      ],
      "name": "mintedTokens",
      "outputs": [
        {
          "internalType": "uint256",
          "name": "",
          "type": "uint256"
        }
      ],
      "stateMutability": "view",
      "type": "function",
      "constant": true
    },
    {
      "inputs": [
        {
          "internalType": "uint256",
          "name": "_tokenId",
          "type": "uint256"
        },
        {
          "internalType": "uint256",
          "name": "_price",
          "type": "uint256"
        }
      ],
      "name": "markForSale",
      "outputs": [],
      "stateMutability": "nonpayable",
      "type": "function"
    },
    {
      "inputs": [
        {
          "internalType": "uint256",
          "name": "_tokenId",
          "type": "uint256"
        }
      ],
      "name": "getPriceOfToken",
      "outputs": [
        {
          "internalType": "uint256",
          "name": "",
          "type": "uint256"
        }
      ],
      "stateMutability": "view",
      "type": "function",
      "constant": true
    },
    {
      "inputs": [
        {
          "internalType": "uint256",
          "name": "_tokenId",
          "type": "uint256"
        }
      ],
      "name": "isAvailableForSale",
      "outputs": [
        {
          "internalType": "bool",
          "name": "",
          "type": "bool"
        }
      ],
      "stateMutability": "view",
      "type": "function",
      "constant": true
    },
    {
      "inputs": [
        {
          "internalType": "uint256",
          "name": "_tokenId",
          "type": "uint256"
        }
      ],
      "name": "purchaseToken",
      "outputs": [],
      "stateMutability": "payable",
      "type": "function",
      "payable": true
    },
    {
      "inputs": [],
      "name": "allMintedId",
      "outputs": [
        {
          "internalType": "uint256[]",
          "name": "",
          "type": "uint256[]"
        }
      ],
      "stateMutability": "view",
      "type": "function",
      "constant": true
    },
    {
      "inputs": [
        {
          "internalType": "uint256",
          "name": "_tokenId",
          "type": "uint256"
        }
      ],
      "name": "getSkinsOfToken",
      "outputs": [
        {
          "internalType": "bytes32[]",
          "name": "",
          "type": "bytes32[]"
        }
      ],
      "stateMutability": "view",
      "type": "function",
      "constant": true
    },
    {
      "inputs": [
        {
          "internalType": "bytes32",
          "name": "_skin",
          "type": "bytes32"
        }
      ],
      "name": "getpulseNSeed",
      "outputs": [
        {
          "internalType": "uint256[]",
          "name": "",
          "type": "uint256[]"
        },
        {
          "internalType": "uint256",
          "name": "",
          "type": "uint256"
        }
      ],
      "stateMutability": "view",
      "type": "function",
      "constant": true
    }
  ],
  "bytecode": "0x60806040526000600f553480156200001657600080fd5b506040516200607938038062006079833981810160405260208110156200003c57600080fd5b81019080805190602001909291905050506040518060400160405280600681526020017f4c65644e465400000000000000000000000000000000000000000000000000008152506040518060400160405280600381526020017f4c45440000000000000000000000000000000000000000000000000000000000815250620000d16301ffc9a760e01b620001f960201b60201c565b8160069080519060200190620000e992919062000302565b5080600790805190602001906200010292919062000302565b506200011b6380ac58cd60e01b620001f960201b60201c565b62000133635b5e139f60e01b620001f960201b60201c565b6200014b63780e9d6360e01b620001f960201b60201c565b505080601560006101000a81548173ffffffffffffffffffffffffffffffffffffffff021916908373ffffffffffffffffffffffffffffffffffffffff16021790555033601660006101000a81548173ffffffffffffffffffffffffffffffffffffffff021916908373ffffffffffffffffffffffffffffffffffffffff1602179055506000601960006101000a81548160ff021916908315150217905550600060188190555050620003b1565b63ffffffff60e01b817bffffffffffffffffffffffffffffffffffffffffffffffffffffffff1916141562000296576040517f08c379a000000000000000000000000000000000000000000000000000000000815260040180806020018281038252601c8152602001807f4552433136353a20696e76616c696420696e746572666163652069640000000081525060200191505060405180910390fd5b6001600080837bffffffffffffffffffffffffffffffffffffffffffffffffffffffff19167bffffffffffffffffffffffffffffffffffffffffffffffffffffffff1916815260200190815260200160002060006101000a81548160ff02191690831515021790555050565b828054600181600116156101000203166002900490600052602060002090601f016020900481019282601f106200034557805160ff191683800117855562000376565b8280016001018555821562000376579182015b828111156200037557825182559160200191906001019062000358565b5b50905062000385919062000389565b5090565b620003ae91905b80821115620003aa57600081600090555060010162000390565b5090565b90565b615cb880620003c16000396000f3fe6080604052600436106102ae5760003560e01c80638571d35511610175578063c5e09b66116100dc578063d89eac9a11610095578063e985e9c51161006f578063e985e9c514611443578063ea72a36d146114cc578063ed9ec888146114e3578063f4487d7c14611548576102ae565b8063d89eac9a146112ff578063dcd6a95d1461138f578063dfe9c3cf146113de576102ae565b8063c5e09b66146110b4578063c634d03214611144578063c87b56dd14611172578063cc6d452314611226578063ccee28381461127d578063cdfb36cd146112ba576102ae565b8063a22cb4651161012e578063a22cb46514610e44578063a386439714610ea1578063b5077f4414610ef0578063b88d4fde14610f1b578063bab33dd61461102d578063c2db2c4214611086576102ae565b80638571d35514610bb85780638da5cb5b14610c0b5780639297617914610c625780639426543814610cb157806395d89b4114610d4857806398b2b52314610dd8576102ae565b80633197cbb6116102195780636c0360eb116101d25780636c0360eb146109695780636f9fb98a146109f957806370a0823114610a245780637241dfa014610a895780637fec13d714610aee578063814b525514610b3d576102ae565b80633197cbb61461074c57806342842e0e146107775780634404c50f146107f25780634f6ccce7146108705780636352211e146108bf5780636ac437b01461093a576102ae565b806318160ddd1161026b57806318160ddd1461050f578063207ce2fe1461053a57806323b872dd146105b557806324ac8cc2146106305780632f745c591461068a5780633145065c146106f9576102ae565b806301ffc9a7146102b357806306fdde0314610325578063081812fc146103b5578063095ea7b3146104305780630c129ccf1461048b5780630ef59bd0146104b6575b600080fd5b3480156102bf57600080fd5b5061030b600480360360208110156102d657600080fd5b8101908080357bffffffffffffffffffffffffffffffffffffffffffffffffffffffff19169060200190929190505050611583565b604051808215151515815260200191505060405180910390f35b34801561033157600080fd5b5061033a6115ea565b6040518080602001828103825283818151815260200191508051906020019080838360005b8381101561037a57808201518184015260208101905061035f565b50505050905090810190601f1680156103a75780820380516001836020036101000a031916815260200191505b509250505060405180910390f35b3480156103c157600080fd5b506103ee600480360360208110156103d857600080fd5b810190808035906020019092919050505061168c565b604051808273ffffffffffffffffffffffffffffffffffffffff1673ffffffffffffffffffffffffffffffffffffffff16815260200191505060405180910390f35b34801561043c57600080fd5b506104896004803603604081101561045357600080fd5b81019080803573ffffffffffffffffffffffffffffffffffffffff16906020019092919080359060200190929190505050611727565b005b34801561049757600080fd5b506104a061186b565b6040518082815260200191505060405180910390f35b3480156104c257600080fd5b506104f9600480360360408110156104d957600080fd5b810190808035906020019092919080359060200190929190505050611877565b6040518082815260200191505060405180910390f35b34801561051b57600080fd5b506105246118a5565b6040518082815260200191505060405180910390f35b34801561054657600080fd5b506105736004803603602081101561055d57600080fd5b81019080803590602001909291905050506118b6565b604051808273ffffffffffffffffffffffffffffffffffffffff1673ffffffffffffffffffffffffffffffffffffffff16815260200191505060405180910390f35b3480156105c157600080fd5b5061062e600480360360608110156105d857600080fd5b81019080803573ffffffffffffffffffffffffffffffffffffffff169060200190929190803573ffffffffffffffffffffffffffffffffffffffff169060200190929190803590602001909291905050506118e9565b005b34801561063c57600080fd5b506106696004803603602081101561065357600080fd5b810190808035906020019092919050505061195f565b60405180831515151581526020018281526020019250505060405180910390f35b34801561069657600080fd5b506106e3600480360360408110156106ad57600080fd5b81019080803573ffffffffffffffffffffffffffffffffffffffff16906020019092919080359060200190929190505050611990565b6040518082815260200191505060405180910390f35b34801561070557600080fd5b506107326004803603602081101561071c57600080fd5b81019080803590602001909291905050506119eb565b604051808215151515815260200191505060405180910390f35b34801561075857600080fd5b50610761611a18565b6040518082815260200191505060405180910390f35b34801561078357600080fd5b506107f06004803603606081101561079a57600080fd5b81019080803573ffffffffffffffffffffffffffffffffffffffff169060200190929190803573ffffffffffffffffffffffffffffffffffffffff16906020019092919080359060200190929190505050611a1e565b005b3480156107fe57600080fd5b5061086e60048036036103e081101561081657600080fd5b8101908080359060200190929190806103c00190601e806020026040519081016040528092919082601e60200280828437600081840152601f19601f8201169050808301925050505050509192919290505050611a3e565b005b34801561087c57600080fd5b506108a96004803603602081101561089357600080fd5b8101908080359060200190929190505050612247565b6040518082815260200191505060405180910390f35b3480156108cb57600080fd5b506108f8600480360360208110156108e257600080fd5b810190808035906020019092919050505061226a565b604051808273ffffffffffffffffffffffffffffffffffffffff1673ffffffffffffffffffffffffffffffffffffffff16815260200191505060405180910390f35b34801561094657600080fd5b5061094f6122a1565b604051808215151515815260200191505060405180910390f35b34801561097557600080fd5b5061097e6122b4565b6040518080602001828103825283818151815260200191508051906020019080838360005b838110156109be5780820151818401526020810190506109a3565b50505050905090810190601f1680156109eb5780820380516001836020036101000a031916815260200191505b509250505060405180910390f35b348015610a0557600080fd5b50610a0e612356565b6040518082815260200191505060405180910390f35b348015610a3057600080fd5b50610a7360048036036020811015610a4757600080fd5b81019080803573ffffffffffffffffffffffffffffffffffffffff169060200190929190505050612404565b6040518082815260200191505060405180910390f35b348015610a9557600080fd5b50610ad860048036036020811015610aac57600080fd5b81019080803573ffffffffffffffffffffffffffffffffffffffff1690602001909291905050506124d9565b6040518082815260200191505060405180910390f35b348015610afa57600080fd5b50610b2760048036036020811015610b1157600080fd5b8101908080359060200190929190505050612522565b6040518082815260200191505060405180910390f35b348015610b4957600080fd5b50610b7660048036036020811015610b6057600080fd5b8101908080359060200190929190505050612540565b604051808273ffffffffffffffffffffffffffffffffffffffff1673ffffffffffffffffffffffffffffffffffffffff16815260200191505060405180910390f35b348015610bc457600080fd5b50610bf160048036036020811015610bdb57600080fd5b8101908080359060200190929190505050612573565b604051808215151515815260200191505060405180910390f35b348015610c1757600080fd5b50610c20612593565b604051808273ffffffffffffffffffffffffffffffffffffffff1673ffffffffffffffffffffffffffffffffffffffff16815260200191505060405180910390f35b348015610c6e57600080fd5b50610c9b60048036036020811015610c8557600080fd5b81019080803590602001909291905050506125b9565b6040518082815260200191505060405180910390f35b348015610cbd57600080fd5b50610cea60048036036020811015610cd457600080fd5b81019080803590602001909291905050506126ca565b6040518080602001838152602001828103825284818151815260200191508051906020019060200280838360005b83811015610d33578082015181840152602081019050610d18565b50505050905001935050505060405180910390f35b348015610d5457600080fd5b50610d5d61280d565b6040518080602001828103825283818151815260200191508051906020019080838360005b83811015610d9d578082015181840152602081019050610d82565b50505050905090810190601f168015610dca5780820380516001836020036101000a031916815260200191505b509250505060405180910390f35b348015610de457600080fd5b50610ded6128af565b6040518080602001828103825283818151815260200191508051906020019060200280838360005b83811015610e30578082015181840152602081019050610e15565b505050509050019250505060405180910390f35b348015610e5057600080fd5b50610e9f60048036036040811015610e6757600080fd5b81019080803573ffffffffffffffffffffffffffffffffffffffff169060200190929190803515159060200190929190505050612907565b005b348015610ead57600080fd5b50610eda60048036036020811015610ec457600080fd5b8101908080359060200190929190505050612abf565b6040518082815260200191505060405180910390f35b348015610efc57600080fd5b50610f05612ad7565b6040518082815260200191505060405180910390f35b348015610f2757600080fd5b5061102b60048036036080811015610f3e57600080fd5b81019080803573ffffffffffffffffffffffffffffffffffffffff169060200190929190803573ffffffffffffffffffffffffffffffffffffffff1690602001909291908035906020019092919080359060200190640100000000811115610fa557600080fd5b820183602082011115610fb757600080fd5b80359060200191846001830284011164010000000083111715610fd957600080fd5b91908080601f016020809104026020016040519081016040528093929190818152602001838380828437600081840152601f19601f820116905080830192505050505050509192919290505050612add565b005b34801561103957600080fd5b506110706004803603604081101561105057600080fd5b810190808035906020019092919080359060200190929190505050612b55565b6040518082815260200191505060405180910390f35b6110b26004803603602081101561109c57600080fd5b8101908080359060200190929190505050612b83565b005b3480156110c057600080fd5b506110ed600480360360208110156110d757600080fd5b8101908080359060200190929190505050612de4565b6040518080602001828103825283818151815260200191508051906020019060200280838360005b83811015611130578082015181840152602081019050611115565b505050509050019250505060405180910390f35b6111706004803603602081101561115a57600080fd5b8101908080359060200190929190505050612ef8565b005b34801561117e57600080fd5b506111ab6004803603602081101561119557600080fd5b81019080803590602001909291905050506137a7565b6040518080602001828103825283818151815260200191508051906020019080838360005b838110156111eb5780820151818401526020810190506111d0565b50505050905090810190601f1680156112185780820380516001836020036101000a031916815260200191505b509250505060405180910390f35b34801561123257600080fd5b5061123b613a90565b604051808273ffffffffffffffffffffffffffffffffffffffff1673ffffffffffffffffffffffffffffffffffffffff16815260200191505060405180910390f35b34801561128957600080fd5b506112b8600480360360208110156112a057600080fd5b81019080803515159060200190929190505050613ab6565b005b3480156112c657600080fd5b506112fd600480360360408110156112dd57600080fd5b810190808035906020019092919080359060200190929190505050613b79565b005b34801561130b57600080fd5b506113386004803603602081101561132257600080fd5b8101908080359060200190929190505050613cf1565b6040518080602001828103825283818151815260200191508051906020019060200280838360005b8381101561137b578082015181840152602081019050611360565b505050509050019250505060405180910390f35b34801561139b57600080fd5b506113c8600480360360208110156113b257600080fd5b8101908080359060200190929190505050613e26565b6040518082815260200191505060405180910390f35b3480156113ea57600080fd5b5061142d6004803603602081101561140157600080fd5b81019080803573ffffffffffffffffffffffffffffffffffffffff169060200190929190505050613e46565b6040518082815260200191505060405180910390f35b34801561144f57600080fd5b506114b26004803603604081101561146657600080fd5b81019080803573ffffffffffffffffffffffffffffffffffffffff169060200190929190803573ffffffffffffffffffffffffffffffffffffffff169060200190929190505050613e5e565b604051808215151515815260200191505060405180910390f35b3480156114d857600080fd5b506114e1613ef2565b005b3480156114ef57600080fd5b506115326004803603602081101561150657600080fd5b81019080803573ffffffffffffffffffffffffffffffffffffffff169060200190929190505050613ff4565b6040518082815260200191505060405180910390f35b34801561155457600080fd5b506115816004803603602081101561156b57600080fd5b810190808035906020019092919050505061400c565b005b6000806000837bffffffffffffffffffffffffffffffffffffffffffffffffffffffff19167bffffffffffffffffffffffffffffffffffffffffffffffffffffffff1916815260200190815260200160002060009054906101000a900460ff169050919050565b606060068054600181600116156101000203166002900480601f0160208091040260200160405190810160405280929190818152602001828054600181600116156101000203166002900480156116825780601f1061165757610100808354040283529160200191611682565b820191906000526020600020905b81548152906001019060200180831161166557829003601f168201915b5050505050905090565b6000611697826140be565b6116ec576040517f08c379a000000000000000000000000000000000000000000000000000000000815260040180806020018281038252602c815260200180615ab2602c913960400191505060405180910390fd5b6004600083815260200190815260200160002060009054906101000a900473ffffffffffffffffffffffffffffffffffffffff169050919050565b60006117328261226a565b90508073ffffffffffffffffffffffffffffffffffffffff168373ffffffffffffffffffffffffffffffffffffffff1614156117b9576040517f08c379a0000000000000000000000000000000000000000000000000000000008152600401808060200182810382526021815260200180615b626021913960400191505060405180910390fd5b8073ffffffffffffffffffffffffffffffffffffffff166117d86140db565b73ffffffffffffffffffffffffffffffffffffffff1614806118075750611806816118016140db565b613e5e565b5b61185c576040517f08c379a00000000000000000000000000000000000000000000000000000000081526004018080602001828103825260388152602001806159326038913960400191505060405180910390fd5b61186683836140e3565b505050565b670de0b6b3a764000081565b6012602052816000526040600020818154811061189057fe5b90600052602060002001600091509150505481565b60006118b1600261419c565b905090565b600b6020528060005260406000206000915054906101000a900473ffffffffffffffffffffffffffffffffffffffff1681565b6118fa6118f46140db565b826141b1565b61194f576040517f08c379a0000000000000000000000000000000000000000000000000000000008152600401808060200182810382526031815260200180615bca6031913960400191505060405180910390fd5b61195a8383836142a5565b505050565b600e6020528060005260406000206000915090508060000160009054906101000a900460ff16908060010154905082565b60006119e382600160008673ffffffffffffffffffffffffffffffffffffffff1673ffffffffffffffffffffffffffffffffffffffff1681526020019081526020016000206144e890919063ffffffff16565b905092915050565b6000600e600083815260200190815260200160002060000160009054906101000a900460ff169050919050565b60185481565b611a3983838360405180602001604052806000815250612add565b505050565b6000611a498361226a565b90503373ffffffffffffffffffffffffffffffffffffffff168173ffffffffffffffffffffffffffffffffffffffff1614611aec576040517f08c379a000000000000000000000000000000000000000000000000000000000815260040180806020018281038252600e8152602001807f4e6f7420617574686f726973656400000000000000000000000000000000000081525060200191505060405180910390fd5b670de0b6b3a7640000601560009054906101000a900473ffffffffffffffffffffffffffffffffffffffff1673ffffffffffffffffffffffffffffffffffffffff166370a08231336040518263ffffffff1660e01b8152600401808273ffffffffffffffffffffffffffffffffffffffff1673ffffffffffffffffffffffffffffffffffffffff16815260200191505060206040518083038186803b158015611b9457600080fd5b505afa158015611ba8573d6000803e3d6000fd5b505050506040513d6020811015611bbe57600080fd5b81019080805190602001909291905050501015611c43576040517f08c379a00000000000000000000000000000000000000000000000000000000081526004018080602001828103825260128152602001807f4e6f7420656e6f7567682062616c616e6365000000000000000000000000000081525060200191505060405180910390fd5b611c4c83613cf1565b60405160200180828051906020019060200280838360005b83811015611c7f578082015181840152602081019050611c64565b5050505090500191505060405160208183030381529060405280519060200120826040516020018082601e60200280838360005b83811015611cce578082015181840152602081019050611cb3565b50505050905001915050604051602081830303815290604052805190602001201415611d45576040517f08c379a000000000000000000000000000000000000000000000000000000000815260040180806020018281038252602681526020018061587f6026913960400191505060405180910390fd5b60008090505b601e811015611e055760008382601e8110611d6257fe5b602002015110158015611d86575060648382601e8110611d7e57fe5b602002015111155b611df8576040517f08c379a00000000000000000000000000000000000000000000000000000000081526004018080602001828103825260158152602001807f496e76616c696420626c696e6b207061747465726e000000000000000000000081525060200191505060405180910390fd5b8080600101915050611d4b565b50816014600085815260200190815260200160002090601e611e28929190615676565b506000834260405160200180838152602001828152602001925050506040516020818303038152906040528051906020012060001c9050600083826040516020018083601e60200280838360005b83811015611e91578082015181840152602081019050611e76565b505050509050018281526020019250505060405160208183030381529060405280519060200120905060126000868152602001908152602001600020819080600181540180825580915050600190039060005260206000200160009091909190915055336010600083815260200190815260200160002060006101000a81548173ffffffffffffffffffffffffffffffffffffffff021916908373ffffffffffffffffffffffffffffffffffffffff160217905550836011600083815260200190815260200160002060000190601e611f6b929190615676565b50816011600083815260200190815260200160002060010181905550601560009054906101000a900473ffffffffffffffffffffffffffffffffffffffff1673ffffffffffffffffffffffffffffffffffffffff1663e1f21c673330670de0b6b3a76400006040518463ffffffff1660e01b8152600401808473ffffffffffffffffffffffffffffffffffffffff1673ffffffffffffffffffffffffffffffffffffffff1681526020018373ffffffffffffffffffffffffffffffffffffffff1673ffffffffffffffffffffffffffffffffffffffff1681526020018281526020019350505050602060405180830381600087803b15801561206c57600080fd5b505af1158015612080573d6000803e3d6000fd5b505050506040513d602081101561209657600080fd5b8101908080519060200190929190505050506000601560009054906101000a900473ffffffffffffffffffffffffffffffffffffffff1673ffffffffffffffffffffffffffffffffffffffff166323b872dd3330670de0b6b3a76400006040518463ffffffff1660e01b8152600401808473ffffffffffffffffffffffffffffffffffffffff1673ffffffffffffffffffffffffffffffffffffffff1681526020018373ffffffffffffffffffffffffffffffffffffffff1673ffffffffffffffffffffffffffffffffffffffff1681526020018281526020019350505050602060405180830381600087803b15801561218f57600080fd5b505af11580156121a3573d6000803e3d6000fd5b505050506040513d60208110156121b957600080fd5b810190808051906020019092919050505090508061223f576040517f08c379a00000000000000000000000000000000000000000000000000000000081526004018080602001828103825260168152602001807f4661696c656420746f207472616e73666572204943540000000000000000000081525060200191505060405180910390fd5b505050505050565b60008061225e83600261450290919063ffffffff16565b50905080915050919050565b600061229a826040518060600160405280602981526020016159ca6029913960026145319092919063ffffffff16565b9050919050565b601960009054906101000a900460ff1681565b606060098054600181600116156101000203166002900480601f01602080910402602001604051908101604052809291908181526020018280546001816001161561010002031660029004801561234c5780601f106123215761010080835404028352916020019161234c565b820191906000526020600020905b81548152906001019060200180831161232f57829003601f168201915b5050505050905090565b60003373ffffffffffffffffffffffffffffffffffffffff16601660009054906101000a900473ffffffffffffffffffffffffffffffffffffffff1673ffffffffffffffffffffffffffffffffffffffff16146123fe576040517f08c379a000000000000000000000000000000000000000000000000000000000815260040180806020018281038252602d8152602001806158a5602d913960400191505060405180910390fd5b47905090565b60008073ffffffffffffffffffffffffffffffffffffffff168273ffffffffffffffffffffffffffffffffffffffff16141561248b576040517f08c379a000000000000000000000000000000000000000000000000000000000815260040180806020018281038252602a8152602001806159a0602a913960400191505060405180910390fd5b6124d2600160008473ffffffffffffffffffffffffffffffffffffffff1673ffffffffffffffffffffffffffffffffffffffff168152602001908152602001600020614550565b9050919050565b6000600c60008373ffffffffffffffffffffffffffffffffffffffff1673ffffffffffffffffffffffffffffffffffffffff168152602001908152602001600020549050919050565b60116020528060005260406000206000915090508060010154905081565b60106020528060005260406000206000915054906101000a900473ffffffffffffffffffffffffffffffffffffffff1681565b600a6020528060005260406000206000915054906101000a900460ff1681565b601660009054906101000a900473ffffffffffffffffffffffffffffffffffffffff1681565b6000426018541015612633576040517f08c379a000000000000000000000000000000000000000000000000000000000815260040180806020018281038252600d8152602001807f53616c65206973206f766572210000000000000000000000000000000000000081525060200191505060405180910390fd5b61080061263e6118a5565b11156126b2576040517f08c379a00000000000000000000000000000000000000000000000000000000081526004018080602001828103825260148152602001807f416c6c204e4654277320617265206d696e74656400000000000000000000000081525060200191505060405180910390fd5b6000670b1a2bc2ec5000009050808302915050919050565b606060006010600084815260200190815260200160002060009054906101000a900473ffffffffffffffffffffffffffffffffffffffff1673ffffffffffffffffffffffffffffffffffffffff163373ffffffffffffffffffffffffffffffffffffffff1614612785576040517f08c379a00000000000000000000000000000000000000000000000000000000081526004018080602001828103825260258152602001806159f36025913960400191505060405180910390fd5b601160008481526020019081526020016000206000016011600085815260200190815260200160002060010154818054806020026020016040519081016040528092919081815260200182805480156127fd57602002820191906000526020600020905b8154815260200190600101908083116127e9575b5050505050915091509150915091565b606060078054600181600116156101000203166002900480601f0160208091040260200160405190810160405280929190818152602001828054600181600116156101000203166002900480156128a55780601f1061287a576101008083540402835291602001916128a5565b820191906000526020600020905b81548152906001019060200180831161288857829003601f168201915b5050505050905090565b6060600d8054806020026020016040519081016040528092919081815260200182805480156128fd57602002820191906000526020600020905b8154815260200190600101908083116128e9575b5050505050905090565b61290f6140db565b73ffffffffffffffffffffffffffffffffffffffff168273ffffffffffffffffffffffffffffffffffffffff1614156129b0576040517f08c379a00000000000000000000000000000000000000000000000000000000081526004018080602001828103825260198152602001807f4552433732313a20617070726f766520746f2063616c6c65720000000000000081525060200191505060405180910390fd5b80600560006129bd6140db565b73ffffffffffffffffffffffffffffffffffffffff1673ffffffffffffffffffffffffffffffffffffffff16815260200190815260200160002060008473ffffffffffffffffffffffffffffffffffffffff1673ffffffffffffffffffffffffffffffffffffffff16815260200190815260200160002060006101000a81548160ff0219169083151502179055508173ffffffffffffffffffffffffffffffffffffffff16612a6a6140db565b73ffffffffffffffffffffffffffffffffffffffff167f17307eab39ab6107e8899845ad3d59bd9653f200f220920489ca2b5937696c3183604051808215151515815260200191505060405180910390a35050565b60136020528060005260406000206000915090505481565b61080081565b612aee612ae86140db565b836141b1565b612b43576040517f08c379a0000000000000000000000000000000000000000000000000000000008152600401808060200182810382526031815260200180615bca6031913960400191505060405180910390fd5b612b4f84848484614565565b50505050565b60146020528160005260406000208181548110612b6e57fe5b90600052602060002001600091509150505481565b60011515612b90826119eb565b151514612c05576040517f08c379a000000000000000000000000000000000000000000000000000000000815260040180806020018281038252601b8152602001807f546f6b656e206e6f7420617661696c616c6520666f722073616c65000000000081525060200191505060405180910390fd5b34612c0f82613e26565b14612c65576040517f08c379a0000000000000000000000000000000000000000000000000000000008152600401808060200182810382526024815260200180615b836024913960400191505060405180910390fd5b3373ffffffffffffffffffffffffffffffffffffffff16612c858261226a565b73ffffffffffffffffffffffffffffffffffffffff161415612cf2576040517f08c379a00000000000000000000000000000000000000000000000000000000081526004018080602001828103825260238152602001806157d86023913960400191505060405180910390fd5b60003490506000612d0d600a836145d790919063ffffffff16565b9050612d4c600b600085815260200190815260200160002060009054906101000a900473ffffffffffffffffffffffffffffffffffffffff1682614621565b6000600a612d646009856146e290919063ffffffff16565b81612d6b57fe5b049050612d80612d7a8561226a565b82614621565b6000600e6000868152602001908152602001600020600101819055506000600e600086815260200190815260200160002060000160006101000a81548160ff021916908315150217905550612dde612dd78561226a565b3386614768565b50505050565b6060612def8261226a565b73ffffffffffffffffffffffffffffffffffffffff163373ffffffffffffffffffffffffffffffffffffffff1614612e8f576040517f08c379a00000000000000000000000000000000000000000000000000000000081526004018080602001828103825260208152602001807f596f752063616e206f6e6c79207669657720796f7572206f776e20736b696e7381525060200191505060405180910390fd5b60126000838152602001908152602001600020805480602002602001604051908101604052809291908181526020018280548015612eec57602002820191906000526020600020905b815481526020019060010190808311612ed8575b50505050509050919050565b60018110158015612f0a575060038111155b612f5f576040517f08c379a000000000000000000000000000000000000000000000000000000000815260040180806020018281038252603681526020018061596a6036913960400191505060405180910390fd5b60008090505b818160ff1610156137a35760011515601960009054906101000a900460ff16151514612ff9576040517f08c379a00000000000000000000000000000000000000000000000000000000081526004018080602001828103825260128152602001807f4d696e74696e672069732050617573656421000000000000000000000000000081525060200191505060405180910390fd5b426018541015613071576040517f08c379a000000000000000000000000000000000000000000000000000000000815260040180806020018281038252600d8152602001807f53616c65206973206f766572210000000000000000000000000000000000000081525060200191505060405180910390fd5b6003601760003373ffffffffffffffffffffffffffffffffffffffff1673ffffffffffffffffffffffffffffffffffffffff1681526020019081526020016000205410613109576040517f08c379a0000000000000000000000000000000000000000000000000000000008152600401808060200182810382526023815260200180615ba76023913960400191505060405180910390fd5b6108006131146118a5565b1061316a576040517f08c379a0000000000000000000000000000000000000000000000000000000008152600401808060200182810382526036815260200180615c4d6036913960400191505060405180910390fd5b34613174836125b9565b146131ca576040517f08c379a00000000000000000000000000000000000000000000000000000000081526004018080602001828103825260348152602001806158fe6034913960400191505060405180910390fd5b600080905060006108004233600f54604051602001808481526020018373ffffffffffffffffffffffffffffffffffffffff1673ffffffffffffffffffffffffffffffffffffffff1660601b815260140182815260200193505050506040516020818303038152906040528051906020012060001c8161324657fe5b069050600181019050600f600081548092919060010191905055505b60011515600a600083815260200190815260200160002060009054906101000a900460ff16151514156132b557610801600182018161329d57fe5b06905060008114156132b0576001810190505b6132e9565b6001600a600083815260200190815260200160002060006101000a81548160ff0219169083151502179055508091506132f2565b60008214613262575b6001600c60003373ffffffffffffffffffffffffffffffffffffffff1673ffffffffffffffffffffffffffffffffffffffff1681526020019081526020016000206000828254019250508190555033600b600084815260200190815260200160002060006101000a81548173ffffffffffffffffffffffffffffffffffffffff021916908373ffffffffffffffffffffffffffffffffffffffff160217905550601760003373ffffffffffffffffffffffffffffffffffffffff1673ffffffffffffffffffffffffffffffffffffffff1681526020019081526020016000206000815460010191905081905550600d82908060018154018082558091505060019003906000526020600020016000909190919091505560008090505b601e8110156134d85760146000848152602001908152602001600020606533424485604051602001808573ffffffffffffffffffffffffffffffffffffffff1673ffffffffffffffffffffffffffffffffffffffff1660601b81526014018481526020018381526020018281526020019450505050506040516020818303038152906040528051906020012060001c816134a457fe5b069080600181540180825580915050600190039060005260206000200160009091909190915055808060010191505061340e565b506000824260405160200180838152602001828152602001925050506040516020818303038152906040528051906020012060001c9050606061351a84613cf1565b90506000818360405160200180838051906020019060200280838360005b83811015613553578082015181840152602081019050613538565b505050509050018281526020019250505060405160208183030381529060405280519060200120905060126000868152602001908152602001600020819080600181540180825580915050600190039060005260206000200160009091909190915055336010600083815260200190815260200160002060006101000a81548173ffffffffffffffffffffffffffffffffffffffff021916908373ffffffffffffffffffffffffffffffffffffffff160217905550816011600083815260200190815260200160002060000190805190602001906136329291906156c3565b50826011600083815260200190815260200160002060010181905550601560009054906101000a900473ffffffffffffffffffffffffffffffffffffffff1673ffffffffffffffffffffffffffffffffffffffff1663f74b40c386426040518363ffffffff1660e01b81526004018083815260200182815260200192505050600060405180830381600087803b1580156136cb57600080fd5b505af11580156136df573d6000803e3d6000fd5b50505050846040516020018082815260200191505060405160208183030381529060405280519060200120601360008781526020019081526020016000208190555061372b3386614778565b61374d85604051806080016040528060578152602001615a1860579139614796565b843373ffffffffffffffffffffffffffffffffffffffff167f7a5477f3d257e8974dc6fb5c008b442d975968577dfad5d1283aa0a488bfab0b60405160405180910390a350505050508080600101915050612f65565b5050565b60606137b2826140be565b613807576040517f08c379a000000000000000000000000000000000000000000000000000000000815260040180806020018281038252602f815260200180615b33602f913960400191505060405180910390fd5b6060600860008481526020019081526020016000208054600181600116156101000203166002900480601f0160208091040260200160405190810160405280929190818152602001828054600181600116156101000203166002900480156138b05780601f10613885576101008083540402835291602001916138b0565b820191906000526020600020905b81548152906001019060200180831161389357829003601f168201915b505050505090506000600980546001816001161561010002031660029004905014156138df5780915050613a8b565b6000815111156139b857600981604051602001808380546001816001161561010002031660029004801561394a5780601f1061392857610100808354040283529182019161394a565b820191906000526020600020905b815481529060010190602001808311613936575b505082805190602001908083835b6020831061397b5780518252602082019150602081019050602083039250613958565b6001836020036101000a03801982511681845116808217855250505050505090500192505050604051602081830303815290604052915050613a8b565b60096139c384614820565b6040516020018083805460018160011615610100020316600290048015613a215780601f106139ff576101008083540402835291820191613a21565b820191906000526020600020905b815481529060010190602001808311613a0d575b505082805190602001908083835b60208310613a525780518252602082019150602081019050602083039250613a2f565b6001836020036101000a038019825116818451168082178552505050505050905001925050506040516020818303038152906040529150505b919050565b601560009054906101000a900473ffffffffffffffffffffffffffffffffffffffff1681565b3373ffffffffffffffffffffffffffffffffffffffff16601660009054906101000a900473ffffffffffffffffffffffffffffffffffffffff1673ffffffffffffffffffffffffffffffffffffffff1614613b5c576040517f08c379a000000000000000000000000000000000000000000000000000000000815260040180806020018281038252602d8152602001806158a5602d913960400191505060405180910390fd5b80601960006101000a81548160ff02191690831515021790555050565b60011515600e600084815260200190815260200160002060000160009054906101000a900460ff1615151415613c17576040517f08c379a00000000000000000000000000000000000000000000000000000000081526004018080602001828103825260208152602001807f546f6b656e20616c7265616479206176616961626c6520666f722073616c652e81525060200191505060405180910390fd5b613c208261226a565b73ffffffffffffffffffffffffffffffffffffffff163373ffffffffffffffffffffffffffffffffffffffff1614613ca3576040517f08c379a0000000000000000000000000000000000000000000000000000000008152600401808060200182810382526027815260200180615bfb6027913960400191505060405180910390fd5b6001600e600084815260200190815260200160002060000160006101000a81548160ff02191690831515021790555080600e6000848152602001908152602001600020600101819055505050565b6060610800821115613d4e576040517f08c379a000000000000000000000000000000000000000000000000000000000815260040180806020018281038252602b815260200180615c22602b913960400191505060405180910390fd5b601e601460008481526020019081526020016000208054905014613dbd576040517f08c379a000000000000000000000000000000000000000000000000000000000815260040180806020018281038252602e815260200180615851602e913960400191505060405180910390fd5b60146000838152602001908152602001600020805480602002602001604051908101604052809291908181526020018280548015613e1a57602002820191906000526020600020905b815481526020019060010190808311613e06575b50505050509050919050565b6000600e6000838152602001908152602001600020600101549050919050565b60176020528060005260406000206000915090505481565b6000600560008473ffffffffffffffffffffffffffffffffffffffff1673ffffffffffffffffffffffffffffffffffffffff16815260200190815260200160002060008373ffffffffffffffffffffffffffffffffffffffff1673ffffffffffffffffffffffffffffffffffffffff16815260200190815260200160002060009054906101000a900460ff16905092915050565b3373ffffffffffffffffffffffffffffffffffffffff16601660009054906101000a900473ffffffffffffffffffffffffffffffffffffffff1673ffffffffffffffffffffffffffffffffffffffff1614613f98576040517f08c379a000000000000000000000000000000000000000000000000000000000815260040180806020018281038252602d8152602001806158a5602d913960400191505060405180910390fd5b60003390506000613fa7612356565b90508173ffffffffffffffffffffffffffffffffffffffff166108fc829081150290604051600060405180830381858888f19350505050158015613fef573d6000803e3d6000fd5b505050565b600c6020528060005260406000206000915090505481565b3373ffffffffffffffffffffffffffffffffffffffff16601660009054906101000a900473ffffffffffffffffffffffffffffffffffffffff1673ffffffffffffffffffffffffffffffffffffffff16146140b2576040517f08c379a000000000000000000000000000000000000000000000000000000000815260040180806020018281038252602d8152602001806158a5602d913960400191505060405180910390fd5b80420160188190555050565b60006140d482600261496790919063ffffffff16565b9050919050565b600033905090565b816004600083815260200190815260200160002060006101000a81548173ffffffffffffffffffffffffffffffffffffffff021916908373ffffffffffffffffffffffffffffffffffffffff160217905550808273ffffffffffffffffffffffffffffffffffffffff166141568361226a565b73ffffffffffffffffffffffffffffffffffffffff167f8c5be1e5ebec7d5bd14f71427d1e84f3dd0314c0f7b2291e5b200ac8c7c3b92560405160405180910390a45050565b60006141aa82600001614981565b9050919050565b60006141bc826140be565b614211576040517f08c379a000000000000000000000000000000000000000000000000000000000815260040180806020018281038252602c8152602001806158d2602c913960400191505060405180910390fd5b600061421c8361226a565b90508073ffffffffffffffffffffffffffffffffffffffff168473ffffffffffffffffffffffffffffffffffffffff16148061428b57508373ffffffffffffffffffffffffffffffffffffffff166142738461168c565b73ffffffffffffffffffffffffffffffffffffffff16145b8061429c575061429b8185613e5e565b5b91505092915050565b8273ffffffffffffffffffffffffffffffffffffffff166142c58261226a565b73ffffffffffffffffffffffffffffffffffffffff1614614331576040517f08c379a0000000000000000000000000000000000000000000000000000000008152600401808060200182810382526029815260200180615b0a6029913960400191505060405180910390fd5b600073ffffffffffffffffffffffffffffffffffffffff168273ffffffffffffffffffffffffffffffffffffffff1614156143b7576040517f08c379a000000000000000000000000000000000000000000000000000000000815260040180806020018281038252602481526020018061582d6024913960400191505060405180910390fd5b6143c2838383614992565b6143cd6000826140e3565b61441e81600160008673ffffffffffffffffffffffffffffffffffffffff1673ffffffffffffffffffffffffffffffffffffffff16815260200190815260200160002061499790919063ffffffff16565b5061447081600160008573ffffffffffffffffffffffffffffffffffffffff1673ffffffffffffffffffffffffffffffffffffffff1681526020019081526020016000206149b190919063ffffffff16565b50614487818360026149cb9092919063ffffffff16565b50808273ffffffffffffffffffffffffffffffffffffffff168473ffffffffffffffffffffffffffffffffffffffff167fddf252ad1be2c89b69c2b068fc378daa952ba7f163c4a11628f55a4df523b3ef60405160405180910390a4505050565b60006144f78360000183614a00565b60001c905092915050565b6000806000806145158660000186614a83565b915091508160001c8160001c8090509350935050509250929050565b6000614544846000018460001b84614b1c565b60001c90509392505050565b600061455e82600001614c12565b9050919050565b6145708484846142a5565b61457c84848484614c23565b6145d1576040517f08c379a00000000000000000000000000000000000000000000000000000000081526004018080602001828103825260328152602001806157fb6032913960400191505060405180910390fd5b50505050565b600061461983836040518060400160405280601a81526020017f536166654d6174683a206469766973696f6e206279207a65726f000000000000815250614e68565b905092915050565b47811115614697576040517f08c379a00000000000000000000000000000000000000000000000000000000081526004018080602001828103825260038152602001807f6d7367000000000000000000000000000000000000000000000000000000000081525060200191505060405180910390fd5b8173ffffffffffffffffffffffffffffffffffffffff166108fc829081150290604051600060405180830381858888f193505050501580156146dd573d6000803e3d6000fd5b505050565b6000808314156146f55760009050614762565b600082840290508284828161470657fe5b041461475d576040517f08c379a0000000000000000000000000000000000000000000000000000000008152600401808060200182810382526021815260200180615a916021913960400191505060405180910390fd5b809150505b92915050565b6147738383836142a5565b505050565b614792828260405180602001604052806000815250614f2e565b5050565b61479f826140be565b6147f4576040517f08c379a000000000000000000000000000000000000000000000000000000000815260040180806020018281038252602c815260200180615ade602c913960400191505060405180910390fd5b8060086000848152602001908152602001600020908051906020019061481b929190615710565b505050565b60606000821415614868576040518060400160405280600181526020017f30000000000000000000000000000000000000000000000000000000000000008152509050614962565b600082905060005b60008214614892578080600101915050600a828161488a57fe5b049150614870565b60608167ffffffffffffffff811180156148ab57600080fd5b506040519080825280601f01601f1916602001820160405280156148de5781602001600182028036833780820191505090505b50905060006001830390508593505b6000841461495a57600a84816148ff57fe5b0660300160f81b8282806001900393508151811061491957fe5b60200101907effffffffffffffffffffffffffffffffffffffffffffffffffffffffffffff1916908160001a905350600a848161495257fe5b0493506148ed565b819450505050505b919050565b6000614979836000018360001b614f9f565b905092915050565b600081600001805490509050919050565b505050565b60006149a9836000018360001b614fc2565b905092915050565b60006149c3836000018360001b6150aa565b905092915050565b60006149f7846000018460001b8473ffffffffffffffffffffffffffffffffffffffff1660001b61511a565b90509392505050565b600081836000018054905011614a61576040517f08c379a00000000000000000000000000000000000000000000000000000000081526004018080602001828103825260228152602001806157b66022913960400191505060405180910390fd5b826000018281548110614a7057fe5b9060005260206000200154905092915050565b60008082846000018054905011614ae5576040517f08c379a0000000000000000000000000000000000000000000000000000000008152600401808060200182810382526022815260200180615a6f6022913960400191505060405180910390fd5b6000846000018481548110614af657fe5b906000526020600020906002020190508060000154816001015492509250509250929050565b60008084600101600085815260200190815260200160002054905060008114158390614be3576040517f08c379a00000000000000000000000000000000000000000000000000000000081526004018080602001828103825283818151815260200191508051906020019080838360005b83811015614ba8578082015181840152602081019050614b8d565b50505050905090810190601f168015614bd55780820380516001836020036101000a031916815260200191505b509250505060405180910390fd5b50846000016001820381548110614bf657fe5b9060005260206000209060020201600101549150509392505050565b600081600001805490509050919050565b6000614c448473ffffffffffffffffffffffffffffffffffffffff166151f6565b614c515760019050614e60565b6060614de763150b7a0260e01b614c666140db565b888787604051602401808573ffffffffffffffffffffffffffffffffffffffff1673ffffffffffffffffffffffffffffffffffffffff1681526020018473ffffffffffffffffffffffffffffffffffffffff1673ffffffffffffffffffffffffffffffffffffffff16815260200183815260200180602001828103825283818151815260200191508051906020019080838360005b83811015614d16578082015181840152602081019050614cfb565b50505050905090810190601f168015614d435780820380516001836020036101000a031916815260200191505b5095505050505050604051602081830303815290604052907bffffffffffffffffffffffffffffffffffffffffffffffffffffffff19166020820180517bffffffffffffffffffffffffffffffffffffffffffffffffffffffff83818316178352505050506040518060600160405280603281526020016157fb603291398773ffffffffffffffffffffffffffffffffffffffff166152419092919063ffffffff16565b90506000818060200190516020811015614e0057600080fd5b8101908080519060200190929190505050905063150b7a0260e01b7bffffffffffffffffffffffffffffffffffffffffffffffffffffffff1916817bffffffffffffffffffffffffffffffffffffffffffffffffffffffff191614925050505b949350505050565b60008083118290614f14576040517f08c379a00000000000000000000000000000000000000000000000000000000081526004018080602001828103825283818151815260200191508051906020019080838360005b83811015614ed9578082015181840152602081019050614ebe565b50505050905090810190601f168015614f065780820380516001836020036101000a031916815260200191505b509250505060405180910390fd5b506000838581614f2057fe5b049050809150509392505050565b614f388383615259565b614f456000848484614c23565b614f9a576040517f08c379a00000000000000000000000000000000000000000000000000000000081526004018080602001828103825260328152602001806157fb6032913960400191505060405180910390fd5b505050565b600080836001016000848152602001908152602001600020541415905092915050565b6000808360010160008481526020019081526020016000205490506000811461509e576000600182039050600060018660000180549050039050600086600001828154811061500d57fe5b906000526020600020015490508087600001848154811061502a57fe5b906000526020600020018190555060018301876001016000838152602001908152602001600020819055508660000180548061506257fe5b600190038181906000526020600020016000905590558660010160008781526020019081526020016000206000905560019450505050506150a4565b60009150505b92915050565b60006150b6838361544d565b61510f578260000182908060018154018082558091505060019003906000526020600020016000909190919091505582600001805490508360010160008481526020019081526020016000208190555060019050615114565b600090505b92915050565b60008084600101600085815260200190815260200160002054905060008114156151c1578460000160405180604001604052808681526020018581525090806001815401808255809150506001900390600052602060002090600202016000909190919091506000820151816000015560208201518160010155505084600001805490508560010160008681526020019081526020016000208190555060019150506151ef565b828560000160018303815481106151d457fe5b90600052602060002090600202016001018190555060009150505b9392505050565b60008060007fc5d2460186f7233c927e7db2dcc703c0e500b653ca82273b7bfad8045d85a47060001b9050833f915080821415801561523857506000801b8214155b92505050919050565b60606152508484600085615470565b90509392505050565b600073ffffffffffffffffffffffffffffffffffffffff168273ffffffffffffffffffffffffffffffffffffffff1614156152fc576040517f08c379a00000000000000000000000000000000000000000000000000000000081526004018080602001828103825260208152602001807f4552433732313a206d696e7420746f20746865207a65726f206164647265737381525060200191505060405180910390fd5b615305816140be565b15615378576040517f08c379a000000000000000000000000000000000000000000000000000000000815260040180806020018281038252601c8152602001807f4552433732313a20746f6b656e20616c7265616479206d696e7465640000000081525060200191505060405180910390fd5b61538460008383614992565b6153d581600160008573ffffffffffffffffffffffffffffffffffffffff1673ffffffffffffffffffffffffffffffffffffffff1681526020019081526020016000206149b190919063ffffffff16565b506153ec818360026149cb9092919063ffffffff16565b50808273ffffffffffffffffffffffffffffffffffffffff16600073ffffffffffffffffffffffffffffffffffffffff167fddf252ad1be2c89b69c2b068fc378daa952ba7f163c4a11628f55a4df523b3ef60405160405180910390a45050565b600080836001016000848152602001908152602001600020541415905092915050565b606061547b856151f6565b6154ed576040517f08c379a000000000000000000000000000000000000000000000000000000000815260040180806020018281038252601d8152602001807f416464726573733a2063616c6c20746f206e6f6e2d636f6e747261637400000081525060200191505060405180910390fd5b600060608673ffffffffffffffffffffffffffffffffffffffff1685876040518082805190602001908083835b6020831061553d578051825260208201915060208101905060208303925061551a565b6001836020036101000a03801982511681845116808217855250505050505090500191505060006040518083038185875af1925050503d806000811461559f576040519150601f19603f3d011682016040523d82523d6000602084013e6155a4565b606091505b509150915081156155b957809250505061566e565b6000815111156155cc5780518082602001fd5b836040517f08c379a00000000000000000000000000000000000000000000000000000000081526004018080602001828103825283818151815260200191508051906020019080838360005b83811015615633578082015181840152602081019050615618565b50505050905090810190601f1680156156605780820380516001836020036101000a031916815260200191505b509250505060405180910390fd5b949350505050565b8280548282559060005260206000209081019282156156b2579160200282015b828111156156b1578251825591602001919060010190615696565b5b5090506156bf9190615790565b5090565b8280548282559060005260206000209081019282156156ff579160200282015b828111156156fe5782518255916020019190600101906156e3565b5b50905061570c9190615790565b5090565b828054600181600116156101000203166002900490600052602060002090601f016020900481019282601f1061575157805160ff191683800117855561577f565b8280016001018555821561577f579182015b8281111561577e578251825591602001919060010190615763565b5b50905061578c9190615790565b5090565b6157b291905b808211156157ae576000816000905550600101615796565b5090565b9056fe456e756d657261626c655365743a20696e646578206f7574206f6620626f756e6473596f752063616e6e6f742073656c6c20746f6b656e7320746f20796f757273656c662e4552433732313a207472616e7366657220746f206e6f6e20455243373231526563656976657220696d706c656d656e7465724552433732313a207472616e7366657220746f20746865207a65726f20616464726573734e465420666f722074686520737570706c69656420746f6b656e4964206973206e6f74206d696e746564207965744e6577207061747465726e2069732073616d65206173207468652063757272656e74206f6e654f6e6c79206f776e657220697320617574686f72697a656420666f722074686973207472616e73616374696f6e4552433732313a206f70657261746f7220717565727920666f72206e6f6e6578697374656e7420746f6b656e45746865722076616c756520697320696e636f72726563742c20706c656173652073656e6420636f727265637420616d6f756e744552433732313a20617070726f76652063616c6c6572206973206e6f74206f776e6572206e6f7220617070726f76656420666f7220616c6c596f752063616e206d696e74206f6e6c792031206f722032206f72203320746f6b656e7320696e206f6e65206f7065726174696f6e2e4552433732313a2062616c616e636520717565727920666f7220746865207a65726f20616464726573734552433732313a206f776e657220717565727920666f72206e6f6e6578697374656e7420746f6b656e4f6e6c7920736b696e206f776e65722063616e207669657720746865697220736b696e732e68747470733a2f2f676174657761792e70696e6174612e636c6f75642f697066732f516d57367662574172754555416151596a48425a423178676375744165775668526843465733505554523570546a2f312e6a736f6e456e756d657261626c654d61703a20696e646578206f7574206f6620626f756e6473536166654d6174683a206d756c7469706c69636174696f6e206f766572666c6f774552433732313a20617070726f76656420717565727920666f72206e6f6e6578697374656e7420746f6b656e4552433732314d657461646174613a2055524920736574206f66206e6f6e6578697374656e7420746f6b656e4552433732313a207472616e73666572206f6620746f6b656e2074686174206973206e6f74206f776e4552433732314d657461646174613a2055524920717565727920666f72206e6f6e6578697374656e7420746f6b656e4552433732313a20617070726f76616c20746f2063757272656e74206f776e657276616c75652073656e74206973206e6f7420657175616c20746f207468652070726963654d6178203320746f6b656e732063616e206265206d696e7465642070657220757365724552433732313a207472616e736665722063616c6c6572206973206e6f74206f776e6572206e6f7220617070726f7665644f6e6c7920746865206f776e65722063616e206d61726b206974656d7320666f722073616c652e546f6b656e2049642073686f756c64206265206c657373207468616e206d6178696d756d20737570706c7943616e6e6f74206d696e74206d6f7265204e46542c203230343820697320746865206d6178204e465420737570706c79206c696d6974a2646970667358221220683cfcfac4084b4ac3982f53b42f79f58acb3024dca0fe6faeefda9f29edc3f864736f6c63430006060033",
  "immutableReferences": {},
  "source": "// SPDX-License-Identifier: MIT\npragma solidity ^0.6.6;\n\nimport \"@openzeppelin/contracts/token/ERC721/ERC721.sol\";\n\ninterface Token20 {\n    //This will set the birth time of NFT in ICT contract\n    function setBirthOfNFT(uint256 _tokenId, uint256 _time) external;\n\n    /**\n     * @dev Returns the amount of tokens in existence.\n     */\n    function totalSupply() external view returns (uint256);\n\n    /**\n     * @dev Returns the amount of tokens owned by `account`.\n     */\n    function balanceOf(address account) external view returns (uint256);\n\n    /**\n     * @dev Moves `amount` tokens from the caller's account to `recipient`.\n     *\n     * Returns a boolean value indicating whether the operation succeeded.\n     *\n     * Emits a {Transfer} event.\n     */\n    function transfer(address recipient, uint256 amount)\n        external\n        returns (bool);\n\n    /**\n     * @dev Returns the remaining number of tokens that `spender` will be\n     * allowed to spend on behalf of `owner` through {transferFrom}. This is\n     * zero by default.\n     *\n     * This value changes when {approve} or {transferFrom} are called.\n     */\n    function allowance(address owner, address spender)\n        external\n        view\n        returns (uint256);\n\n    /**\n     * @dev Sets `amount` as the allowance of `spender` over the caller's tokens.\n     *\n     * Returns a boolean value indicating whether the operation succeeded.\n     *\n     * IMPORTANT: Beware that changing an allowance with this method brings the risk\n     * that someone may use both the old and the new allowance by unfortunate\n     * transaction ordering. One possible solution to mitigate this race\n     * condition is to first reduce the spender's allowance to 0 and set the\n     * desired value afterwards:\n     * https://github.com/ethereum/EIPs/issues/20#issuecomment-263524729\n     *\n     * Emits an {Approval} event.\n     */\n    function approve(\n        address owner,\n        address spender,\n        uint256 amount\n    ) external returns (bool);\n\n    /**\n     * @dev Moves `amount` tokens from `sender` to `recipient` using the\n     * allowance mechanism. `amount` is then deducted from the caller's\n     * allowance.\n     *\n     * Returns a boolean value indicating whether the operation succeeded.\n     *\n     * Emits a {Transfer} event.\n     */\n    function transferFrom(\n        address sender,\n        address recipient,\n        uint256 amount\n    ) external returns (bool);\n\n    /**\n     * TODO: Add comment\n     */\n    function burn(uint256 burnQuantity) external returns (bool);\n\n    /**\n     * @dev Emitted when `value` tokens are moved from one account (`from`) to\n     * another (`to`).\n     *\n     * Note that `value` may be zero.\n     */\n    event Transfer(address indexed from, address indexed to, uint256 value);\n\n    /**\n     * @dev Emitted when the allowance of a `spender` for an `owner` is set by\n     * a call to {approve}. `value` is the new allowance.\n     */\n    event Approval(\n        address indexed owner,\n        address indexed spender,\n        uint256 value\n    );\n}\n\ncontract LedNFT is ERC721 {\n    using SafeMath for uint256;\n    mapping(uint256 => bool) public numNotAllowed;\n    mapping(uint256 => address payable) public initialOwner;\n\n    // tokens minted by an address\n    mapping(address => uint256) public mintCount;\n    uint256[] mintedIds;\n\n    struct tokenSaleStat {\n        bool forSale;\n        uint256 price;\n    }\n    mapping(uint256 => tokenSaleStat) public tokenSaleData;\n\n    uint256 nonce = 0;\n\n    event MintedNFT(address indexed _owner, uint256 indexed _tokenId);\n\n    // owners and their pulse and seed\n    struct pulseData {\n        uint256[] pulse;\n        uint256 seed;\n    }\n\n    // owner of skin\n    mapping(bytes32 => address) public skinOwner;\n\n    // skin to pulseData\n    mapping(bytes32 => pulseData) public skinToPulse;\n\n    // token to skins\n    mapping(uint256 => bytes32[]) public tokenSkin;\n\n    // token to tokenhash\n    mapping(uint256 => bytes32) public tokenHash;\n\n    //mapping for NFT tokendID to blinking pattern\n    mapping(uint256 => uint256[]) public ledNFTBlinkPattern;\n\n    //Store the ICT token contract address\n    address public ICTContractAddress;\n\n    //owner of the contract\n    address public owner;\n\n    //mapping of address to their minted token count\n    mapping(address => uint256) public ownerTotalTokensMintCount;\n\n    //end time for minting NFT once the timer is started\n    uint256 public endTime;\n\n    //It stores the pause/unpause status of minting (owner can pause/unpause the minting)\n    bool public isMintingActive;\n\n    //Maximum NFT supply\n    uint256 public constant MAX_NFT_SUPPLY = 2048;\n\n    //1 ICT token is required to change the LED NFT blink pattern\n    uint256 public constant BLINK_PATTERN_CHANGE_PRICE = 1 * 10**18;\n\n    modifier onlyOwner() {\n        require(\n            owner == msg.sender,\n            \"Only owner is authorized for this transaction\"\n        );\n        _;\n    }\n\n    // mapping(uint256 => string) private _tokenURIs;\n\n    constructor(address _ictAddress) public ERC721(\"LedNFT\", \"LED\") {\n        ICTContractAddress = _ictAddress;\n        owner = msg.sender;\n        isMintingActive = false;\n        endTime = 0;\n        // _setBaseURI();\n    }\n\n    //Function accepts epoch time as parameter which will be added to the current epoch time and timer will be started\n    function startTimerForNFTMinting(uint256 _endTimeLimit) public onlyOwner {\n        endTime = block.timestamp + _endTimeLimit;\n    }\n\n    //Function to pause and unpause minting process\n    function pauseUnpauseMinting(bool _status) public onlyOwner {\n        isMintingActive = _status;\n    }\n\n    //function to get the NFT price based on the supplied NFT's\n    function getNFTPrice(uint256 _nos) public view returns (uint256) {\n        require(endTime >= block.timestamp, \"Sale is over!\");\n        require(totalSupply() <= MAX_NFT_SUPPLY, \"All NFT's are minted\");\n\n        uint256 priceOfOneToken = 0.8 * 10**18;\n\n        return _nos * priceOfOneToken;\n    }\n\n    //Get contract balance\n    function getContractBalance() public view onlyOwner returns (uint256) {\n        return address(this).balance;\n    }\n\n    //Get the blinking pattern for any LED NFT\n    function getBlinkPatternOfTokenID(uint256 _tokenId)\n        public\n        view\n        returns (uint256[] memory)\n    {\n        require(\n            _tokenId <= MAX_NFT_SUPPLY,\n            \"Token Id should be less than maximum supply\"\n        );\n        require(\n            ledNFTBlinkPattern[_tokenId].length == 30,\n            \"NFT for the supplied tokenId is not minted yet\"\n        );\n        return ledNFTBlinkPattern[_tokenId];\n    }\n\n    //method to mint LED NFT tokens for msg.sender\n    function mintToken(uint256 _nos) public payable {\n        require(\n            _nos >= 1 && _nos <= 3,\n            \"You can mint only 1 or 2 or 3 tokens in one operation.\"\n        );\n        for (uint8 j = 0; j < _nos; j++) {\n            require(isMintingActive == true, \"Minting is Paused!\");\n\n            require(endTime >= block.timestamp, \"Sale is over!\");\n\n            require(\n                ownerTotalTokensMintCount[msg.sender] < 3,\n                \"Max 3 tokens can be minted per user\"\n            );\n\n            require(\n                totalSupply() < MAX_NFT_SUPPLY,\n                \"Cannot mint more NFT, 2048 is the max NFT supply limit\"\n            );\n\n            require(\n                getNFTPrice(_nos) == msg.value,\n                \"Ether value is incorrect, please send correct amount\"\n            );\n\n            // uint256 tokenId = totalSupply() + 1;\n            uint256 tokenId = 0;\n            uint256 randomNumber = uint256(\n                keccak256(abi.encodePacked(now, msg.sender, nonce))\n            ) % 2048;\n            randomNumber = randomNumber + 1;\n            nonce++;\n\n            do {\n                if (numNotAllowed[randomNumber] == true) {\n                    randomNumber = (randomNumber + 1) % 2049;\n                    if (randomNumber == 0) {\n                        randomNumber = randomNumber + 1;\n                    }\n                } else {\n                    numNotAllowed[randomNumber] = true;\n                    tokenId = randomNumber;\n                    break;\n                }\n            } while (tokenId == 0);\n\n            // forSale[_tokenId] = false;\n            mintCount[msg.sender] += 1;\n            initialOwner[tokenId] = msg.sender;\n            ++ownerTotalTokensMintCount[msg.sender];\n            mintedIds.push(tokenId);\n\n            //Generating random LED blink pattern array\n            for (uint256 i = 0; i < 30; i++) {\n                ledNFTBlinkPattern[tokenId].push(\n                    uint256(\n                        keccak256(\n                            abi.encodePacked(\n                                msg.sender,\n                                block.timestamp,\n                                block.difficulty,\n                                i\n                            )\n                        )\n                    ) % 101\n                );\n            }\n\n            // pulseOwner[msg.sender].pulse = getBlinkPatternOfTokenID(tokenId);\n            // pulseOwner[msg.sender].seed = nseed;\n\n            // generating a unique seed\n            uint256 nseed = uint256(\n                keccak256(abi.encodePacked(tokenId, block.timestamp))\n            );\n\n            // pulse\n            uint256[] memory npulse = getBlinkPatternOfTokenID(tokenId);\n            // use built array\n\n            // calculate skin\n            bytes32 skin = keccak256(abi.encodePacked(npulse, nseed));\n\n            // record history of skin - token to string\n            tokenSkin[tokenId].push(skin);\n\n            skinOwner[skin] = msg.sender;\n\n            // skin to its data\n            skinToPulse[skin].pulse = npulse;\n            skinToPulse[skin].seed = nseed;\n\n            //set birth time of NFT in ICT contract, this will be used in calculation of claim ICT amount\n            Token20(ICTContractAddress).setBirthOfNFT(tokenId, block.timestamp);\n            tokenHash[tokenId] = keccak256(abi.encodePacked(tokenId));\n\n            //Mint ERC721\n            _safeMint(msg.sender, tokenId);\n            _setTokenURI(\n                tokenId,\n                \"https://gateway.pinata.cloud/ipfs/QmW6vbWAruEUAaQYjHBZB1xgcutAewVhRhCFW3PUTR5pTj/1.json\"\n            );\n            emit MintedNFT(msg.sender, tokenId);\n        }\n    }\n\n    function changeLEDBlinkPattern(\n        uint256 _tokenId,\n        uint256[30] memory _newPattern\n    ) public {\n        address ownerOfToken = ownerOf(_tokenId);\n        require(ownerOfToken == msg.sender, \"Not authorised\");\n        require(\n            Token20(ICTContractAddress).balanceOf(msg.sender) >=\n                BLINK_PATTERN_CHANGE_PRICE,\n            \"Not enough balance\"\n        );\n        require(\n            keccak256(abi.encodePacked(_newPattern)) !=\n                keccak256(abi.encodePacked(getBlinkPatternOfTokenID(_tokenId))),\n            \"New pattern is same as the current one\"\n        );\n\n        //validate blink pattern\n        for (uint256 i = 0; i < 30; i++) {\n            if (!(_newPattern[i] >= 0 && _newPattern[i] <= 100)) {\n                revert(\"Invalid blink pattern\");\n            }\n        }\n\n        ledNFTBlinkPattern[_tokenId] = _newPattern;\n\n        // new seed\n        uint256 nseed = uint256(\n            keccak256(abi.encodePacked(_tokenId, block.timestamp))\n        );\n\n        // calculate skin\n        bytes32 skin = keccak256(abi.encodePacked(_newPattern, nseed));\n\n        // record history of skin - token to string\n        tokenSkin[_tokenId].push(skin);\n\n        skinOwner[skin] = msg.sender;\n\n        // skin to its data\n        skinToPulse[skin].pulse = _newPattern;\n        skinToPulse[skin].seed = nseed;\n\n        Token20(ICTContractAddress).approve(\n            msg.sender,\n            address(this),\n            BLINK_PATTERN_CHANGE_PRICE\n        );\n        bool res1 = Token20(ICTContractAddress).transferFrom(\n            msg.sender,\n            address(this),\n            BLINK_PATTERN_CHANGE_PRICE\n        );\n\n        require(res1, \"Failed to transfer ICT\");\n    }\n\n    //Owner can withdraw the Ethers collected via NFT minting\n    function withdrawCollectedEther() public onlyOwner {\n        address payable addr = payable(msg.sender);\n        uint256 amount = getContractBalance();\n        addr.transfer(amount);\n    }\n\n    // ////////////////\n    function mintedTokens(address _address) public view returns (uint256) {\n        return mintCount[_address];\n    }\n\n    //\n\n    function markForSale(uint256 _tokenId, uint256 _price) public {\n        require(\n            tokenSaleData[_tokenId].forSale != true,\n            \"Token already avaiable for sale.\"\n        );\n        require(\n            msg.sender == ownerOf(_tokenId),\n            \"Only the owner can mark items for sale.\"\n        );\n        tokenSaleData[_tokenId].forSale = true;\n        tokenSaleData[_tokenId].price = _price;\n    }\n\n    function getPriceOfToken(uint256 _tokenId) public view returns (uint256) {\n        return tokenSaleData[_tokenId].price;\n    }\n\n    function isAvailableForSale(uint256 _tokenId) public view returns (bool) {\n        return tokenSaleData[_tokenId].forSale;\n    }\n\n    // buyer side\n    function sendMoney(address payable _to, uint256 _value) private {\n        require(_value <= address(this).balance, \"msg\");\n        _to.transfer(_value);\n    }\n\n    function transferPurchasedToken(\n        address from,\n        address to,\n        uint256 tokenId\n    ) private {\n        _transfer(from, to, tokenId);\n    }\n\n    // buy function\n    function purchaseToken(uint256 _tokenId) public payable {\n        require(\n            isAvailableForSale(_tokenId) == true,\n            \"Token not availale for sale\"\n        );\n        require(\n            getPriceOfToken(_tokenId) == msg.value,\n            \"value sent is not equal to the price\"\n        );\n        require(\n            ownerOf(_tokenId) != msg.sender,\n            \"You cannot sell tokens to yourself.\"\n        );\n\n        uint256 value = msg.value;\n\n        // transfer 10% of msg.value to owner\n        uint256 _10value = value.div(10);\n        sendMoney(initialOwner[_tokenId], _10value);\n\n        // transfer 90% to new owner\n        uint256 _90value = (value.mul(9)) / 10;\n        sendMoney(payable(ownerOf(_tokenId)), _90value);\n\n        // unmark from sale\n        tokenSaleData[_tokenId].price = 0;\n        tokenSaleData[_tokenId].forSale = false;\n\n        // transfer token ot buyer\n        transferPurchasedToken(ownerOf(_tokenId), msg.sender, _tokenId);\n    }\n\n    // list of all ids in circulation\n    function allMintedId() public view returns (uint256[] memory) {\n        return mintedIds;\n    }\n\n    // get all skins of a token\n    function getSkinsOfToken(uint256 _tokenId)\n        public\n        view\n        returns (bytes32[] memory)\n    {\n        require(\n            msg.sender == ownerOf(_tokenId),\n            \"You can only view your own skins\"\n        );\n        return tokenSkin[_tokenId];\n    }\n\n    function getpulseNSeed(bytes32 _skin)\n        public\n        view\n        returns (uint256[] memory, uint256)\n    {\n        require(\n            msg.sender == skinOwner[_skin],\n            \"Only skin owner can view their skins.\"\n        );\n\n        return (skinToPulse[_skin].pulse, skinToPulse[_skin].seed);\n    }\n\n    // opensea methods\n    // function _setBaseURI() internal override {\n    //     _baseURI = \"ipfs://QmW6vbWAruEUAaQYjHBZB1xgcutAewVhRhCFW3PUTR5pTj\";\n    // }\n\n    // function _setTokenURI(uint256 tokenId, string memory _tokenURI) internal override {\n    //     require(\n    //         _exists(tokenId),\n    //         \"ERC721Metadata: URI set of nonexistent token\"\n    //     );\n    //     _tokenURIs[\n    //         tokenId\n    //     ] = \"https://gateway.pinata.cloud/ipfs/QmW6vbWAruEUAaQYjHBZB1xgcutAewVhRhCFW3PUTR5pTj/1.json\";\n    // }\n\n    // opensea method\n    // function tokenURI(uint256 _tokenId) public view override returns (string memory) {\n    //     return \"https://gateway.pinata.cloud/ipfs/QmdBRTXNt5vWpMxun8CpM9bDmxFdzro3oq7n3KPFfNriyk/1.jpg\";\n    // }\n}\n",
  "sourcePath": "/home/vdcodes/internship/NFT/nft-truffle/src/contracts/LedNFT.sol",
  "compiler": {
    "name": "solc",
    "version": "0.6.6+commit.6c089d02.Emscripten.clang"
  },
  "schemaVersion": "3.4.4",
  "updatedAt": "2022-01-04T16:07:30.880Z",
  "networkType": "ethereum",
  "devdoc": {
    "methods": {
      "approve(address,uint256)": {
        "details": "See {IERC721-approve}."
      },
      "balanceOf(address)": {
        "details": "See {IERC721-balanceOf}."
      },
      "baseURI()": {
        "details": "Returns the base URI set via {_setBaseURI}. This will be automatically added as a prefix in {tokenURI} to each token's URI, or to the token ID if no specific URI is set for that token ID."
      },
      "getApproved(uint256)": {
        "details": "See {IERC721-getApproved}."
      },
      "isApprovedForAll(address,address)": {
        "details": "See {IERC721-isApprovedForAll}."
      },
      "name()": {
        "details": "See {IERC721Metadata-name}."
      },
      "ownerOf(uint256)": {
        "details": "See {IERC721-ownerOf}."
      },
      "safeTransferFrom(address,address,uint256)": {
        "details": "See {IERC721-safeTransferFrom}."
      },
      "safeTransferFrom(address,address,uint256,bytes)": {
        "details": "See {IERC721-safeTransferFrom}."
      },
      "setApprovalForAll(address,bool)": {
        "details": "See {IERC721-setApprovalForAll}."
      },
      "supportsInterface(bytes4)": {
        "details": "See {IERC165-supportsInterface}.     * Time complexity O(1), guaranteed to always use less than 30 000 gas."
      },
      "symbol()": {
        "details": "See {IERC721Metadata-symbol}."
      },
      "tokenByIndex(uint256)": {
        "details": "See {IERC721Enumerable-tokenByIndex}."
      },
      "tokenOfOwnerByIndex(address,uint256)": {
        "details": "See {IERC721Enumerable-tokenOfOwnerByIndex}."
      },
      "tokenURI(uint256)": {
        "details": "See {IERC721Metadata-tokenURI}."
      },
      "totalSupply()": {
        "details": "See {IERC721Enumerable-totalSupply}."
      },
      "transferFrom(address,address,uint256)": {
        "details": "See {IERC721-transferFrom}."
      }
    }
  },
  "userdoc": {
    "methods": {}
  }
}